{
	"DID.sol": {
		"DID": {
			"abi": [
				{
					"anonymous": false,
					"inputs": [
						{
							"indexed": true,
							"internalType": "address",
							"name": "previousOwner",
							"type": "address"
						},
						{
							"indexed": true,
							"internalType": "address",
							"name": "newOwner",
							"type": "address"
						}
					],
					"name": "OwnershipTransferred",
					"type": "event"
				},
				{
					"anonymous": false,
					"inputs": [
						{
							"indexed": false,
							"internalType": "string",
							"name": "_identifier",
							"type": "string"
						}
					],
					"name": "Send",
					"type": "event"
				},
				{
					"inputs": [
						{
							"internalType": "string",
							"name": "_identifier",
							"type": "string"
						},
						{
							"internalType": "string",
							"name": "_app",
							"type": "string"
						},
						{
							"internalType": "uint256",
							"name": "_point",
							"type": "uint256"
						}
					],
					"name": "addPoint",
					"outputs": [],
					"stateMutability": "nonpayable",
					"type": "function"
				},
				{
					"inputs": [
						{
							"internalType": "string",
							"name": "_identifier",
							"type": "string"
						},
						{
							"internalType": "string",
							"name": "_app",
							"type": "string"
						}
					],
					"name": "connectApp",
					"outputs": [],
					"stateMutability": "nonpayable",
					"type": "function"
				},
				{
					"inputs": [
						{
							"internalType": "string",
							"name": "_identifier",
							"type": "string"
						},
						{
							"internalType": "string",
							"name": "_app",
							"type": "string"
						}
					],
					"name": "disconnectApp",
					"outputs": [],
					"stateMutability": "nonpayable",
					"type": "function"
				},
				{
					"inputs": [
						{
							"internalType": "string",
							"name": "_identifier",
							"type": "string"
						},
						{
							"internalType": "string",
							"name": "_app",
							"type": "string"
						}
					],
					"name": "getPoint",
					"outputs": [
						{
							"internalType": "uint256",
							"name": "",
							"type": "uint256"
						}
					],
					"stateMutability": "view",
					"type": "function"
				},
				{
					"inputs": [
						{
							"internalType": "string",
							"name": "_identifier",
							"type": "string"
						}
					],
					"name": "getUserApps",
					"outputs": [
						{
							"internalType": "string[]",
							"name": "",
							"type": "string[]"
						}
					],
					"stateMutability": "view",
					"type": "function"
				},
				{
					"inputs": [],
					"name": "owner",
					"outputs": [
						{
							"internalType": "address",
							"name": "",
							"type": "address"
						}
					],
					"stateMutability": "view",
					"type": "function"
				},
				{
					"inputs": [
						{
							"internalType": "string",
							"name": "_identifier",
							"type": "string"
						},
						{
							"components": [
								{
									"internalType": "string",
									"name": "name",
									"type": "string"
								},
								{
									"internalType": "string",
									"name": "birth",
									"type": "string"
								},
								{
									"internalType": "string",
									"name": "gender",
									"type": "string"
								},
								{
									"internalType": "string",
									"name": "email",
									"type": "string"
								}
							],
							"internalType": "struct IDID.UserInfo",
							"name": "_userData",
							"type": "tuple"
						}
					],
					"name": "register",
					"outputs": [
						{
							"internalType": "bool",
							"name": "",
							"type": "bool"
						}
					],
					"stateMutability": "nonpayable",
					"type": "function"
				},
				{
					"inputs": [],
					"name": "renounceOwnership",
					"outputs": [],
					"stateMutability": "nonpayable",
					"type": "function"
				},
				{
					"inputs": [],
					"name": "sendPoint",
					"outputs": [],
					"stateMutability": "nonpayable",
					"type": "function"
				},
				{
					"inputs": [
						{
							"internalType": "string",
							"name": "_identifier",
							"type": "string"
						},
						{
							"internalType": "string",
							"name": "_app",
							"type": "string"
						},
						{
							"internalType": "uint256",
							"name": "_point",
							"type": "uint256"
						}
					],
					"name": "subtractPoint",
					"outputs": [],
					"stateMutability": "nonpayable",
					"type": "function"
				},
				{
					"inputs": [
						{
							"internalType": "address",
							"name": "newOwner",
							"type": "address"
						}
					],
					"name": "transferOwnership",
					"outputs": [],
					"stateMutability": "nonpayable",
					"type": "function"
				},
				{
					"inputs": [
						{
							"internalType": "string",
							"name": "_identifier",
							"type": "string"
						},
						{
							"components": [
								{
									"internalType": "string",
									"name": "name",
									"type": "string"
								},
								{
									"internalType": "string",
									"name": "birth",
									"type": "string"
								},
								{
									"internalType": "string",
									"name": "gender",
									"type": "string"
								},
								{
									"internalType": "string",
									"name": "email",
									"type": "string"
								}
							],
							"internalType": "struct IDID.UserInfo",
							"name": "_userData",
							"type": "tuple"
						}
					],
					"name": "updateUserInfo",
					"outputs": [],
					"stateMutability": "nonpayable",
					"type": "function"
				},
				{
					"inputs": [
						{
							"internalType": "string",
							"name": "",
							"type": "string"
						}
					],
					"name": "user",
					"outputs": [
						{
							"internalType": "string",
							"name": "name",
							"type": "string"
						},
						{
							"internalType": "string",
							"name": "birth",
							"type": "string"
						},
						{
							"internalType": "string",
							"name": "gender",
							"type": "string"
						},
						{
							"internalType": "string",
							"name": "email",
							"type": "string"
						}
					],
					"stateMutability": "view",
					"type": "function"
				},
				{
					"inputs": [
						{
							"internalType": "string",
							"name": "",
							"type": "string"
						},
						{
							"internalType": "uint256",
							"name": "",
							"type": "uint256"
						}
					],
					"name": "userApp",
					"outputs": [
						{
							"internalType": "string",
							"name": "app",
							"type": "string"
						},
						{
							"internalType": "uint256",
							"name": "point",
							"type": "uint256"
						}
					],
					"stateMutability": "view",
					"type": "function"
				}
			],
			"devdoc": {
				"kind": "dev",
				"methods": {
					"owner()": {
						"details": "Returns the address of the current owner."
					},
					"renounceOwnership()": {
						"details": "Leaves the contract without owner. It will not be possible to call `onlyOwner` functions anymore. Can only be called by the current owner. NOTE: Renouncing ownership will leave the contract without an owner, thereby removing any functionality that is only available to the owner."
					},
					"transferOwnership(address)": {
						"details": "Transfers ownership of the contract to a new account (`newOwner`). Can only be called by the current owner."
					}
				},
				"version": 1
			},
			"evm": {
				"assembly": "    /* \"DID.sol\":141:4308  contract DID is IDID, Ownable {... */\n  mstore(0x40, 0x80)\n  callvalue\n  dup1\n  iszero\n  tag_1\n  jumpi\n  0x00\n  dup1\n  revert\ntag_1:\n  pop\n    /* \"openzeppelin-solidity/contracts/access/Ownable.sol\":921:953  _transferOwnership(_msgSender()) */\n  tag_4\n    /* \"openzeppelin-solidity/contracts/access/Ownable.sol\":940:952  _msgSender() */\n  tag_5\n    /* \"openzeppelin-solidity/contracts/access/Ownable.sol\":940:950  _msgSender */\n  shl(0x20, tag_6)\n    /* \"openzeppelin-solidity/contracts/access/Ownable.sol\":940:952  _msgSender() */\n  0x20\n  shr\n  jump\t// in\ntag_5:\n    /* \"openzeppelin-solidity/contracts/access/Ownable.sol\":921:939  _transferOwnership */\n  shl(0x20, tag_7)\n    /* \"openzeppelin-solidity/contracts/access/Ownable.sol\":921:953  _transferOwnership(_msgSender()) */\n  0x20\n  shr\n  jump\t// in\ntag_4:\n    /* \"DID.sol\":141:4308  contract DID is IDID, Ownable {... */\n  jump(tag_8)\n    /* \"openzeppelin-solidity/contracts/utils/Context.sol\":640:736  function _msgSender() internal view virtual returns (address) {... */\ntag_6:\n    /* \"openzeppelin-solidity/contracts/utils/Context.sol\":693:700  address */\n  0x00\n    /* \"openzeppelin-solidity/contracts/utils/Context.sol\":719:729  msg.sender */\n  caller\n    /* \"openzeppelin-solidity/contracts/utils/Context.sol\":712:729  return msg.sender */\n  swap1\n  pop\n    /* \"openzeppelin-solidity/contracts/utils/Context.sol\":640:736  function _msgSender() internal view virtual returns (address) {... */\n  swap1\n  jump\t// out\n    /* \"openzeppelin-solidity/contracts/access/Ownable.sol\":2270:2457  function _transferOwnership(address newOwner) internal virtual {... */\ntag_7:\n    /* \"openzeppelin-solidity/contracts/access/Ownable.sol\":2343:2359  address oldOwner */\n  0x00\n    /* \"openzeppelin-solidity/contracts/access/Ownable.sol\":2362:2368  _owner */\n  dup1\n  0x00\n  swap1\n  sload\n  swap1\n  0x0100\n  exp\n  swap1\n  div\n  0xffffffffffffffffffffffffffffffffffffffff\n  and\n    /* \"openzeppelin-solidity/contracts/access/Ownable.sol\":2343:2368  address oldOwner = _owner */\n  swap1\n  pop\n    /* \"openzeppelin-solidity/contracts/access/Ownable.sol\":2387:2395  newOwner */\n  dup2\n    /* \"openzeppelin-solidity/contracts/access/Ownable.sol\":2378:2384  _owner */\n  0x00\n  dup1\n    /* \"openzeppelin-solidity/contracts/access/Ownable.sol\":2378:2395  _owner = newOwner */\n  0x0100\n  exp\n  dup2\n  sload\n  dup2\n  0xffffffffffffffffffffffffffffffffffffffff\n  mul\n  not\n  and\n  swap1\n  dup4\n  0xffffffffffffffffffffffffffffffffffffffff\n  and\n  mul\n  or\n  swap1\n  sstore\n  pop\n    /* \"openzeppelin-solidity/contracts/access/Ownable.sol\":2441:2449  newOwner */\n  dup2\n    /* \"openzeppelin-solidity/contracts/access/Ownable.sol\":2410:2450  OwnershipTransferred(oldOwner, newOwner) */\n  0xffffffffffffffffffffffffffffffffffffffff\n  and\n    /* \"openzeppelin-solidity/contracts/access/Ownable.sol\":2431:2439  oldOwner */\n  dup2\n    /* \"openzeppelin-solidity/contracts/access/Ownable.sol\":2410:2450  OwnershipTransferred(oldOwner, newOwner) */\n  0xffffffffffffffffffffffffffffffffffffffff\n  and\n  0x8be0079c531659141344cd1fd0a4f28419497f9722a3daafe3b4186f6b6457e0\n  mload(0x40)\n  mload(0x40)\n  dup1\n  swap2\n  sub\n  swap1\n  log3\n    /* \"openzeppelin-solidity/contracts/access/Ownable.sol\":2333:2457  {... */\n  pop\n    /* \"openzeppelin-solidity/contracts/access/Ownable.sol\":2270:2457  function _transferOwnership(address newOwner) internal virtual {... */\n  pop\n  jump\t// out\n    /* \"DID.sol\":141:4308  contract DID is IDID, Ownable {... */\ntag_8:\n  dataSize(sub_0)\n  dup1\n  dataOffset(sub_0)\n  0x00\n  codecopy\n  0x00\n  return\nstop\n\nsub_0: assembly {\n        /* \"DID.sol\":141:4308  contract DID is IDID, Ownable {... */\n      mstore(0x40, 0x80)\n      callvalue\n      dup1\n      iszero\n      tag_1\n      jumpi\n      0x00\n      dup1\n      revert\n    tag_1:\n      pop\n      jumpi(tag_2, lt(calldatasize, 0x04))\n      shr(0xe0, calldataload(0x00))\n      dup1\n      0x967572ce\n      gt\n      tag_17\n      jumpi\n      dup1\n      0xdf6a9a69\n      gt\n      tag_18\n      jumpi\n      dup1\n      0xdf6a9a69\n      eq\n      tag_13\n      jumpi\n      dup1\n      0xe50d7934\n      eq\n      tag_14\n      jumpi\n      dup1\n      0xf2fde38b\n      eq\n      tag_15\n      jumpi\n      dup1\n      0xf4bf93be\n      eq\n      tag_16\n      jumpi\n      jump(tag_2)\n    tag_18:\n      dup1\n      0x967572ce\n      eq\n      tag_10\n      jumpi\n      dup1\n      0xa07990c8\n      eq\n      tag_11\n      jumpi\n      dup1\n      0xc744f2b2\n      eq\n      tag_12\n      jumpi\n      jump(tag_2)\n    tag_17:\n      dup1\n      0x513f8b02\n      gt\n      tag_19\n      jumpi\n      dup1\n      0x513f8b02\n      eq\n      tag_6\n      jumpi\n      dup1\n      0x715018a6\n      eq\n      tag_7\n      jumpi\n      dup1\n      0x7a63e74e\n      eq\n      tag_8\n      jumpi\n      dup1\n      0x8da5cb5b\n      eq\n      tag_9\n      jumpi\n      jump(tag_2)\n    tag_19:\n      dup1\n      0x02784721\n      eq\n      tag_3\n      jumpi\n      dup1\n      0x2a596f57\n      eq\n      tag_4\n      jumpi\n      dup1\n      0x2dd7ed5f\n      eq\n      tag_5\n      jumpi\n    tag_2:\n      0x00\n      dup1\n      revert\n        /* \"DID.sol\":3004:3521  function getPoint(string memory _identifier, string memory _app) public override view onlyOwner returns (uint) {... */\n    tag_3:\n      tag_20\n      0x04\n      dup1\n      calldatasize\n      sub\n      dup2\n      add\n      swap1\n      tag_21\n      swap2\n      swap1\n      tag_22\n      jump\t// in\n    tag_21:\n      tag_23\n      jump\t// in\n    tag_20:\n      mload(0x40)\n      tag_24\n      swap2\n      swap1\n      tag_25\n      jump\t// in\n    tag_24:\n      mload(0x40)\n      dup1\n      swap2\n      sub\n      swap1\n      return\n        /* \"DID.sol\":1872:1911  function sendPoint() public override {} */\n    tag_4:\n      tag_26\n      tag_27\n      jump\t// in\n    tag_26:\n      stop\n        /* \"DID.sol\":341:726  function register(string memory _identifier, UserInfo memory _userData) public override onlyOwner returns (bool) {... */\n    tag_5:\n      tag_28\n      0x04\n      dup1\n      calldatasize\n      sub\n      dup2\n      add\n      swap1\n      tag_29\n      swap2\n      swap1\n      tag_30\n      jump\t// in\n    tag_29:\n      tag_31\n      jump\t// in\n    tag_28:\n      mload(0x40)\n      tag_32\n      swap2\n      swap1\n      tag_33\n      jump\t// in\n    tag_32:\n      mload(0x40)\n      dup1\n      swap2\n      sub\n      swap1\n      return\n        /* \"DID.sol\":732:964  function connectApp(string memory _identifier, string memory _app) public override onlyOwner {... */\n    tag_6:\n      tag_34\n      0x04\n      dup1\n      calldatasize\n      sub\n      dup2\n      add\n      swap1\n      tag_35\n      swap2\n      swap1\n      tag_22\n      jump\t// in\n    tag_35:\n      tag_36\n      jump\t// in\n    tag_34:\n      stop\n        /* \"openzeppelin-solidity/contracts/access/Ownable.sol\":1668:1769  function renounceOwnership() public virtual onlyOwner {... */\n    tag_7:\n      tag_37\n      tag_38\n      jump\t// in\n    tag_37:\n      stop\n        /* \"DID.sol\":1464:1866  function updateUserInfo(string memory _identifier, UserInfo memory _userData) public override onlyOwner {... */\n    tag_8:\n      tag_39\n      0x04\n      dup1\n      calldatasize\n      sub\n      dup2\n      add\n      swap1\n      tag_40\n      swap2\n      swap1\n      tag_30\n      jump\t// in\n    tag_40:\n      tag_41\n      jump\t// in\n    tag_39:\n      stop\n        /* \"openzeppelin-solidity/contracts/access/Ownable.sol\":1036:1121  function owner() public view virtual returns (address) {... */\n    tag_9:\n      tag_42\n      tag_43\n      jump\t// in\n    tag_42:\n      mload(0x40)\n      tag_44\n      swap2\n      swap1\n      tag_45\n      jump\t// in\n    tag_44:\n      mload(0x40)\n      dup1\n      swap2\n      sub\n      swap1\n      return\n        /* \"DID.sol\":970:1458  function disconnectApp(string memory _identifier, string memory _app) public override onlyOwner {... */\n    tag_10:\n      tag_46\n      0x04\n      dup1\n      calldatasize\n      sub\n      dup2\n      add\n      swap1\n      tag_47\n      swap2\n      swap1\n      tag_22\n      jump\t// in\n    tag_47:\n      tag_48\n      jump\t// in\n    tag_46:\n      stop\n        /* \"DID.sol\":289:334  mapping(string => Connected[]) public userApp */\n    tag_11:\n      tag_49\n      0x04\n      dup1\n      calldatasize\n      sub\n      dup2\n      add\n      swap1\n      tag_50\n      swap2\n      swap1\n      tag_51\n      jump\t// in\n    tag_50:\n      tag_52\n      jump\t// in\n    tag_49:\n      mload(0x40)\n      tag_53\n      swap3\n      swap2\n      swap1\n      tag_54\n      jump\t// in\n    tag_53:\n      mload(0x40)\n      dup1\n      swap2\n      sub\n      swap1\n      return\n        /* \"DID.sol\":1917:2452  function addPoint(string memory _identifier, string memory _app, uint _point) public override onlyOwner {... */\n    tag_12:\n      tag_55\n      0x04\n      dup1\n      calldatasize\n      sub\n      dup2\n      add\n      swap1\n      tag_56\n      swap2\n      swap1\n      tag_57\n      jump\t// in\n    tag_56:\n      tag_58\n      jump\t// in\n    tag_55:\n      stop\n        /* \"DID.sol\":3527:3857  function getUserApps(string memory _identifier) public view override onlyOwner returns (string[] memory) {... */\n    tag_13:\n      tag_59\n      0x04\n      dup1\n      calldatasize\n      sub\n      dup2\n      add\n      swap1\n      tag_60\n      swap2\n      swap1\n      tag_61\n      jump\t// in\n    tag_60:\n      tag_62\n      jump\t// in\n    tag_59:\n      mload(0x40)\n      tag_63\n      swap2\n      swap1\n      tag_64\n      jump\t// in\n    tag_63:\n      mload(0x40)\n      dup1\n      swap2\n      sub\n      swap1\n      return\n        /* \"DID.sol\":2458:2998  function subtractPoint(string memory _identifier, string memory _app, uint _point) public override onlyOwner {... */\n    tag_14:\n      tag_65\n      0x04\n      dup1\n      calldatasize\n      sub\n      dup2\n      add\n      swap1\n      tag_66\n      swap2\n      swap1\n      tag_57\n      jump\t// in\n    tag_66:\n      tag_67\n      jump\t// in\n    tag_65:\n      stop\n        /* \"openzeppelin-solidity/contracts/access/Ownable.sol\":1918:2116  function transferOwnership(address newOwner) public virtual onlyOwner {... */\n    tag_15:\n      tag_68\n      0x04\n      dup1\n      calldatasize\n      sub\n      dup2\n      add\n      swap1\n      tag_69\n      swap2\n      swap1\n      tag_70\n      jump\t// in\n    tag_69:\n      tag_71\n      jump\t// in\n    tag_68:\n      stop\n        /* \"DID.sol\":208:247  mapping(string => UserInfo) public user */\n    tag_16:\n      tag_72\n      0x04\n      dup1\n      calldatasize\n      sub\n      dup2\n      add\n      swap1\n      tag_73\n      swap2\n      swap1\n      tag_61\n      jump\t// in\n    tag_73:\n      tag_74\n      jump\t// in\n    tag_72:\n      mload(0x40)\n      tag_75\n      swap5\n      swap4\n      swap3\n      swap2\n      swap1\n      tag_76\n      jump\t// in\n    tag_75:\n      mload(0x40)\n      dup1\n      swap2\n      sub\n      swap1\n      return\n        /* \"DID.sol\":3004:3521  function getPoint(string memory _identifier, string memory _app) public override view onlyOwner returns (uint) {... */\n    tag_23:\n        /* \"DID.sol\":3109:3113  uint */\n      0x00\n        /* \"openzeppelin-solidity/contracts/access/Ownable.sol\":1259:1271  _msgSender() */\n      tag_78\n        /* \"openzeppelin-solidity/contracts/access/Ownable.sol\":1259:1269  _msgSender */\n      tag_79\n        /* \"openzeppelin-solidity/contracts/access/Ownable.sol\":1259:1271  _msgSender() */\n      jump\t// in\n    tag_78:\n        /* \"openzeppelin-solidity/contracts/access/Ownable.sol\":1248:1271  owner() == _msgSender() */\n      0xffffffffffffffffffffffffffffffffffffffff\n      and\n        /* \"openzeppelin-solidity/contracts/access/Ownable.sol\":1248:1255  owner() */\n      tag_80\n        /* \"openzeppelin-solidity/contracts/access/Ownable.sol\":1248:1253  owner */\n      tag_43\n        /* \"openzeppelin-solidity/contracts/access/Ownable.sol\":1248:1255  owner() */\n      jump\t// in\n    tag_80:\n        /* \"openzeppelin-solidity/contracts/access/Ownable.sol\":1248:1271  owner() == _msgSender() */\n      0xffffffffffffffffffffffffffffffffffffffff\n      and\n      eq\n        /* \"openzeppelin-solidity/contracts/access/Ownable.sol\":1240:1308  require(owner() == _msgSender(), \"Ownable: caller is not the owner\") */\n      tag_81\n      jumpi\n      mload(0x40)\n      0x08c379a000000000000000000000000000000000000000000000000000000000\n      dup2\n      mstore\n      0x04\n      add\n      tag_82\n      swap1\n      tag_83\n      jump\t// in\n    tag_82:\n      mload(0x40)\n      dup1\n      swap2\n      sub\n      swap1\n      revert\n    tag_81:\n        /* \"DID.sol\":3133:3163  findUserApp(_identifier, _app) */\n      tag_85\n        /* \"DID.sol\":3145:3156  _identifier */\n      dup4\n        /* \"DID.sol\":3158:3162  _app */\n      dup4\n        /* \"DID.sol\":3133:3144  findUserApp */\n      tag_86\n        /* \"DID.sol\":3133:3163  findUserApp(_identifier, _app) */\n      jump\t// in\n    tag_85:\n        /* \"DID.sol\":3125:3164  require(findUserApp(_identifier, _app)) */\n      tag_87\n      jumpi\n      0x00\n      dup1\n      revert\n    tag_87:\n        /* \"DID.sol\":3184:3195  uint length */\n      0x00\n        /* \"DID.sol\":3198:3205  userApp */\n      0x02\n        /* \"DID.sol\":3206:3217  _identifier */\n      dup5\n        /* \"DID.sol\":3198:3218  userApp[_identifier] */\n      mload(0x40)\n      tag_88\n      swap2\n      swap1\n      tag_89\n      jump\t// in\n    tag_88:\n      swap1\n      dup2\n      mstore\n      0x20\n      add\n      mload(0x40)\n      dup1\n      swap2\n      sub\n      swap1\n      keccak256\n        /* \"DID.sol\":3198:3225  userApp[_identifier].length */\n      dup1\n      sload\n      swap1\n      pop\n        /* \"DID.sol\":3184:3225  uint length = userApp[_identifier].length */\n      swap1\n      pop\n        /* \"DID.sol\":3235:3250  bytes32 compare */\n      0x00\n        /* \"DID.sol\":3280:3284  _app */\n      dup4\n        /* \"DID.sol\":3263:3285  abi.encodePacked(_app) */\n      add(0x20, mload(0x40))\n      tag_90\n      swap2\n      swap1\n      tag_89\n      jump\t// in\n    tag_90:\n      mload(0x40)\n      0x20\n      dup2\n      dup4\n      sub\n      sub\n      dup2\n      mstore\n      swap1\n      0x40\n      mstore\n        /* \"DID.sol\":3253:3286  keccak256(abi.encodePacked(_app)) */\n      dup1\n      mload\n      swap1\n      0x20\n      add\n      keccak256\n        /* \"DID.sol\":3235:3286  bytes32 compare = keccak256(abi.encodePacked(_app)) */\n      swap1\n      pop\n        /* \"DID.sol\":3302:3308  uint i */\n      0x00\n        /* \"DID.sol\":3297:3515  for (uint i = 0; i < length; i++) {... */\n    tag_91:\n        /* \"DID.sol\":3318:3324  length */\n      dup3\n        /* \"DID.sol\":3314:3315  i */\n      dup2\n        /* \"DID.sol\":3314:3324  i < length */\n      lt\n        /* \"DID.sol\":3297:3515  for (uint i = 0; i < length; i++) {... */\n      iszero\n      tag_92\n      jumpi\n        /* \"DID.sol\":3409:3416  compare */\n      dup2\n        /* \"DID.sol\":3376:3383  userApp */\n      0x02\n        /* \"DID.sol\":3384:3395  _identifier */\n      dup8\n        /* \"DID.sol\":3376:3396  userApp[_identifier] */\n      mload(0x40)\n      tag_94\n      swap2\n      swap1\n      tag_89\n      jump\t// in\n    tag_94:\n      swap1\n      dup2\n      mstore\n      0x20\n      add\n      mload(0x40)\n      dup1\n      swap2\n      sub\n      swap1\n      keccak256\n        /* \"DID.sol\":3397:3398  i */\n      dup3\n        /* \"DID.sol\":3376:3399  userApp[_identifier][i] */\n      dup2\n      sload\n      dup2\n      lt\n      tag_95\n      jumpi\n      tag_96\n      tag_97\n      jump\t// in\n    tag_96:\n    tag_95:\n      swap1\n      0x00\n      mstore\n      keccak256(0x00, 0x20)\n      swap1\n      0x02\n      mul\n      add\n        /* \"DID.sol\":3376:3403  userApp[_identifier][i].app */\n      0x00\n      add\n        /* \"DID.sol\":3359:3404  abi.encodePacked(userApp[_identifier][i].app) */\n      add(0x20, mload(0x40))\n      tag_99\n      swap2\n      swap1\n      tag_100\n      jump\t// in\n    tag_99:\n      mload(0x40)\n      0x20\n      dup2\n      dup4\n      sub\n      sub\n      dup2\n      mstore\n      swap1\n      0x40\n      mstore\n        /* \"DID.sol\":3349:3405  keccak256(abi.encodePacked(userApp[_identifier][i].app)) */\n      dup1\n      mload\n      swap1\n      0x20\n      add\n      keccak256\n        /* \"DID.sol\":3349:3416  keccak256(abi.encodePacked(userApp[_identifier][i].app)) == compare */\n      sub\n        /* \"DID.sol\":3345:3505  if (keccak256(abi.encodePacked(userApp[_identifier][i].app)) == compare ) {... */\n      tag_101\n      jumpi\n        /* \"DID.sol\":3461:3468  userApp */\n      0x02\n        /* \"DID.sol\":3469:3480  _identifier */\n      dup7\n        /* \"DID.sol\":3461:3481  userApp[_identifier] */\n      mload(0x40)\n      tag_102\n      swap2\n      swap1\n      tag_89\n      jump\t// in\n    tag_102:\n      swap1\n      dup2\n      mstore\n      0x20\n      add\n      mload(0x40)\n      dup1\n      swap2\n      sub\n      swap1\n      keccak256\n        /* \"DID.sol\":3482:3483  i */\n      dup2\n        /* \"DID.sol\":3461:3484  userApp[_identifier][i] */\n      dup2\n      sload\n      dup2\n      lt\n      tag_103\n      jumpi\n      tag_104\n      tag_97\n      jump\t// in\n    tag_104:\n    tag_103:\n      swap1\n      0x00\n      mstore\n      keccak256(0x00, 0x20)\n      swap1\n      0x02\n      mul\n      add\n        /* \"DID.sol\":3461:3490  userApp[_identifier][i].point */\n      0x01\n      add\n      sload\n        /* \"DID.sol\":3454:3490  return userApp[_identifier][i].point */\n      swap4\n      pop\n      pop\n      pop\n      pop\n      jump(tag_84)\n        /* \"DID.sol\":3345:3505  if (keccak256(abi.encodePacked(userApp[_identifier][i].app)) == compare ) {... */\n    tag_101:\n        /* \"DID.sol\":3326:3329  i++ */\n      dup1\n      dup1\n      tag_106\n      swap1\n      tag_107\n      jump\t// in\n    tag_106:\n      swap2\n      pop\n      pop\n        /* \"DID.sol\":3297:3515  for (uint i = 0; i < length; i++) {... */\n      jump(tag_91)\n    tag_92:\n      pop\n        /* \"DID.sol\":3115:3521  {... */\n      pop\n      pop\n        /* \"openzeppelin-solidity/contracts/access/Ownable.sol\":1318:1319  _ */\n    tag_84:\n        /* \"DID.sol\":3004:3521  function getPoint(string memory _identifier, string memory _app) public override view onlyOwner returns (uint) {... */\n      swap3\n      swap2\n      pop\n      pop\n      jump\t// out\n        /* \"DID.sol\":1872:1911  function sendPoint() public override {} */\n    tag_27:\n      jump\t// out\n        /* \"DID.sol\":341:726  function register(string memory _identifier, UserInfo memory _userData) public override onlyOwner returns (bool) {... */\n    tag_31:\n        /* \"DID.sol\":448:452  bool */\n      0x00\n        /* \"openzeppelin-solidity/contracts/access/Ownable.sol\":1259:1271  _msgSender() */\n      tag_110\n        /* \"openzeppelin-solidity/contracts/access/Ownable.sol\":1259:1269  _msgSender */\n      tag_79\n        /* \"openzeppelin-solidity/contracts/access/Ownable.sol\":1259:1271  _msgSender() */\n      jump\t// in\n    tag_110:\n        /* \"openzeppelin-solidity/contracts/access/Ownable.sol\":1248:1271  owner() == _msgSender() */\n      0xffffffffffffffffffffffffffffffffffffffff\n      and\n        /* \"openzeppelin-solidity/contracts/access/Ownable.sol\":1248:1255  owner() */\n      tag_111\n        /* \"openzeppelin-solidity/contracts/access/Ownable.sol\":1248:1253  owner */\n      tag_43\n        /* \"openzeppelin-solidity/contracts/access/Ownable.sol\":1248:1255  owner() */\n      jump\t// in\n    tag_111:\n        /* \"openzeppelin-solidity/contracts/access/Ownable.sol\":1248:1271  owner() == _msgSender() */\n      0xffffffffffffffffffffffffffffffffffffffff\n      and\n      eq\n        /* \"openzeppelin-solidity/contracts/access/Ownable.sol\":1240:1308  require(owner() == _msgSender(), \"Ownable: caller is not the owner\") */\n      tag_112\n      jumpi\n      mload(0x40)\n      0x08c379a000000000000000000000000000000000000000000000000000000000\n      dup2\n      mstore\n      0x04\n      add\n      tag_113\n      swap1\n      tag_83\n      jump\t// in\n    tag_113:\n      mload(0x40)\n      dup1\n      swap2\n      sub\n      swap1\n      revert\n    tag_112:\n        /* \"DID.sol\":465:489  UserInfo memory userInfo */\n      tag_115\n      tag_116\n      jump\t// in\n    tag_115:\n        /* \"DID.sol\":516:525  _userData */\n      dup3\n        /* \"DID.sol\":516:530  _userData.name */\n      0x00\n      add\n      mload\n        /* \"DID.sol\":500:508  userInfo */\n      dup2\n        /* \"DID.sol\":500:513  userInfo.name */\n      0x00\n      add\n        /* \"DID.sol\":500:530  userInfo.name = _userData.name */\n      dup2\n      swap1\n      mstore\n      pop\n        /* \"DID.sol\":557:566  _userData */\n      dup3\n        /* \"DID.sol\":557:572  _userData.birth */\n      0x20\n      add\n      mload\n        /* \"DID.sol\":540:548  userInfo */\n      dup2\n        /* \"DID.sol\":540:554  userInfo.birth */\n      0x20\n      add\n        /* \"DID.sol\":540:572  userInfo.birth = _userData.birth */\n      dup2\n      swap1\n      mstore\n      pop\n        /* \"DID.sol\":600:609  _userData */\n      dup3\n        /* \"DID.sol\":600:616  _userData.gender */\n      0x40\n      add\n      mload\n        /* \"DID.sol\":582:590  userInfo */\n      dup2\n        /* \"DID.sol\":582:597  userInfo.gender */\n      0x40\n      add\n        /* \"DID.sol\":582:616  userInfo.gender = _userData.gender */\n      dup2\n      swap1\n      mstore\n      pop\n        /* \"DID.sol\":643:652  _userData */\n      dup3\n        /* \"DID.sol\":643:658  _userData.email */\n      0x60\n      add\n      mload\n        /* \"DID.sol\":626:634  userInfo */\n      dup2\n        /* \"DID.sol\":626:640  userInfo.email */\n      0x60\n      add\n        /* \"DID.sol\":626:658  userInfo.email = _userData.email */\n      dup2\n      swap1\n      mstore\n      pop\n        /* \"DID.sol\":689:697  userInfo */\n      dup1\n        /* \"DID.sol\":669:673  user */\n      0x01\n        /* \"DID.sol\":674:685  _identifier */\n      dup6\n        /* \"DID.sol\":669:686  user[_identifier] */\n      mload(0x40)\n      tag_117\n      swap2\n      swap1\n      tag_89\n      jump\t// in\n    tag_117:\n      swap1\n      dup2\n      mstore\n      0x20\n      add\n      mload(0x40)\n      dup1\n      swap2\n      sub\n      swap1\n      keccak256\n        /* \"DID.sol\":669:697  user[_identifier] = userInfo */\n      0x00\n      dup3\n      add\n      mload\n      dup2\n      0x00\n      add\n      swap1\n      dup2\n      tag_118\n      swap2\n      swap1\n      tag_119\n      jump\t// in\n    tag_118:\n      pop\n      0x20\n      dup3\n      add\n      mload\n      dup2\n      0x01\n      add\n      swap1\n      dup2\n      tag_120\n      swap2\n      swap1\n      tag_119\n      jump\t// in\n    tag_120:\n      pop\n      0x40\n      dup3\n      add\n      mload\n      dup2\n      0x02\n      add\n      swap1\n      dup2\n      tag_121\n      swap2\n      swap1\n      tag_119\n      jump\t// in\n    tag_121:\n      pop\n      0x60\n      dup3\n      add\n      mload\n      dup2\n      0x03\n      add\n      swap1\n      dup2\n      tag_122\n      swap2\n      swap1\n      tag_119\n      jump\t// in\n    tag_122:\n      pop\n      swap1\n      pop\n      pop\n        /* \"DID.sol\":715:719  true */\n      0x01\n        /* \"DID.sol\":708:719  return true */\n      swap2\n      pop\n      pop\n        /* \"DID.sol\":341:726  function register(string memory _identifier, UserInfo memory _userData) public override onlyOwner returns (bool) {... */\n      swap3\n      swap2\n      pop\n      pop\n      jump\t// out\n        /* \"DID.sol\":732:964  function connectApp(string memory _identifier, string memory _app) public override onlyOwner {... */\n    tag_36:\n        /* \"openzeppelin-solidity/contracts/access/Ownable.sol\":1259:1271  _msgSender() */\n      tag_124\n        /* \"openzeppelin-solidity/contracts/access/Ownable.sol\":1259:1269  _msgSender */\n      tag_79\n        /* \"openzeppelin-solidity/contracts/access/Ownable.sol\":1259:1271  _msgSender() */\n      jump\t// in\n    tag_124:\n        /* \"openzeppelin-solidity/contracts/access/Ownable.sol\":1248:1271  owner() == _msgSender() */\n      0xffffffffffffffffffffffffffffffffffffffff\n      and\n        /* \"openzeppelin-solidity/contracts/access/Ownable.sol\":1248:1255  owner() */\n      tag_125\n        /* \"openzeppelin-solidity/contracts/access/Ownable.sol\":1248:1253  owner */\n      tag_43\n        /* \"openzeppelin-solidity/contracts/access/Ownable.sol\":1248:1255  owner() */\n      jump\t// in\n    tag_125:\n        /* \"openzeppelin-solidity/contracts/access/Ownable.sol\":1248:1271  owner() == _msgSender() */\n      0xffffffffffffffffffffffffffffffffffffffff\n      and\n      eq\n        /* \"openzeppelin-solidity/contracts/access/Ownable.sol\":1240:1308  require(owner() == _msgSender(), \"Ownable: caller is not the owner\") */\n      tag_126\n      jumpi\n      mload(0x40)\n      0x08c379a000000000000000000000000000000000000000000000000000000000\n      dup2\n      mstore\n      0x04\n      add\n      tag_127\n      swap1\n      tag_83\n      jump\t// in\n    tag_127:\n      mload(0x40)\n      dup1\n      swap2\n      sub\n      swap1\n      revert\n    tag_126:\n        /* \"DID.sol\":844:865  Connected memory data */\n      tag_129\n      tag_130\n      jump\t// in\n    tag_129:\n        /* \"DID.sol\":887:891  _app */\n      dup2\n        /* \"DID.sol\":876:880  data */\n      dup2\n        /* \"DID.sol\":876:884  data.app */\n      0x00\n      add\n        /* \"DID.sol\":876:891  data.app = _app */\n      dup2\n      swap1\n      mstore\n      pop\n        /* \"DID.sol\":914:915  0 */\n      0x00\n        /* \"DID.sol\":901:905  data */\n      dup2\n        /* \"DID.sol\":901:911  data.point */\n      0x20\n      add\n        /* \"DID.sol\":901:915  data.point = 0 */\n      dup2\n      dup2\n      mstore\n      pop\n      pop\n        /* \"DID.sol\":926:933  userApp */\n      0x02\n        /* \"DID.sol\":934:945  _identifier */\n      dup4\n        /* \"DID.sol\":926:946  userApp[_identifier] */\n      mload(0x40)\n      tag_131\n      swap2\n      swap1\n      tag_89\n      jump\t// in\n    tag_131:\n      swap1\n      dup2\n      mstore\n      0x20\n      add\n      mload(0x40)\n      dup1\n      swap2\n      sub\n      swap1\n      keccak256\n        /* \"DID.sol\":952:956  data */\n      dup2\n        /* \"DID.sol\":926:957  userApp[_identifier].push(data) */\n      swap1\n      dup1\n      0x01\n      dup2\n      sload\n      add\n      dup1\n      dup3\n      sstore\n      dup1\n      swap2\n      pop\n      pop\n      0x01\n      swap1\n      sub\n      swap1\n      0x00\n      mstore\n      keccak256(0x00, 0x20)\n      swap1\n      0x02\n      mul\n      add\n      0x00\n      swap1\n      swap2\n      swap1\n      swap2\n      swap1\n      swap2\n      pop\n      0x00\n      dup3\n      add\n      mload\n      dup2\n      0x00\n      add\n      swap1\n      dup2\n      tag_133\n      swap2\n      swap1\n      tag_119\n      jump\t// in\n    tag_133:\n      pop\n      0x20\n      dup3\n      add\n      mload\n      dup2\n      0x01\n      add\n      sstore\n      pop\n      pop\n        /* \"DID.sol\":825:964  {... */\n      pop\n        /* \"DID.sol\":732:964  function connectApp(string memory _identifier, string memory _app) public override onlyOwner {... */\n      pop\n      pop\n      jump\t// out\n        /* \"openzeppelin-solidity/contracts/access/Ownable.sol\":1668:1769  function renounceOwnership() public virtual onlyOwner {... */\n    tag_38:\n        /* \"openzeppelin-solidity/contracts/access/Ownable.sol\":1259:1271  _msgSender() */\n      tag_135\n        /* \"openzeppelin-solidity/contracts/access/Ownable.sol\":1259:1269  _msgSender */\n      tag_79\n        /* \"openzeppelin-solidity/contracts/access/Ownable.sol\":1259:1271  _msgSender() */\n      jump\t// in\n    tag_135:\n        /* \"openzeppelin-solidity/contracts/access/Ownable.sol\":1248:1271  owner() == _msgSender() */\n      0xffffffffffffffffffffffffffffffffffffffff\n      and\n        /* \"openzeppelin-solidity/contracts/access/Ownable.sol\":1248:1255  owner() */\n      tag_136\n        /* \"openzeppelin-solidity/contracts/access/Ownable.sol\":1248:1253  owner */\n      tag_43\n        /* \"openzeppelin-solidity/contracts/access/Ownable.sol\":1248:1255  owner() */\n      jump\t// in\n    tag_136:\n        /* \"openzeppelin-solidity/contracts/access/Ownable.sol\":1248:1271  owner() == _msgSender() */\n      0xffffffffffffffffffffffffffffffffffffffff\n      and\n      eq\n        /* \"openzeppelin-solidity/contracts/access/Ownable.sol\":1240:1308  require(owner() == _msgSender(), \"Ownable: caller is not the owner\") */\n      tag_137\n      jumpi\n      mload(0x40)\n      0x08c379a000000000000000000000000000000000000000000000000000000000\n      dup2\n      mstore\n      0x04\n      add\n      tag_138\n      swap1\n      tag_83\n      jump\t// in\n    tag_138:\n      mload(0x40)\n      dup1\n      swap2\n      sub\n      swap1\n      revert\n    tag_137:\n        /* \"openzeppelin-solidity/contracts/access/Ownable.sol\":1732:1762  _transferOwnership(address(0)) */\n      tag_140\n        /* \"openzeppelin-solidity/contracts/access/Ownable.sol\":1759:1760  0 */\n      0x00\n        /* \"openzeppelin-solidity/contracts/access/Ownable.sol\":1732:1750  _transferOwnership */\n      tag_141\n        /* \"openzeppelin-solidity/contracts/access/Ownable.sol\":1732:1762  _transferOwnership(address(0)) */\n      jump\t// in\n    tag_140:\n        /* \"openzeppelin-solidity/contracts/access/Ownable.sol\":1668:1769  function renounceOwnership() public virtual onlyOwner {... */\n      jump\t// out\n        /* \"DID.sol\":1464:1866  function updateUserInfo(string memory _identifier, UserInfo memory _userData) public override onlyOwner {... */\n    tag_41:\n        /* \"openzeppelin-solidity/contracts/access/Ownable.sol\":1259:1271  _msgSender() */\n      tag_143\n        /* \"openzeppelin-solidity/contracts/access/Ownable.sol\":1259:1269  _msgSender */\n      tag_79\n        /* \"openzeppelin-solidity/contracts/access/Ownable.sol\":1259:1271  _msgSender() */\n      jump\t// in\n    tag_143:\n        /* \"openzeppelin-solidity/contracts/access/Ownable.sol\":1248:1271  owner() == _msgSender() */\n      0xffffffffffffffffffffffffffffffffffffffff\n      and\n        /* \"openzeppelin-solidity/contracts/access/Ownable.sol\":1248:1255  owner() */\n      tag_144\n        /* \"openzeppelin-solidity/contracts/access/Ownable.sol\":1248:1253  owner */\n      tag_43\n        /* \"openzeppelin-solidity/contracts/access/Ownable.sol\":1248:1255  owner() */\n      jump\t// in\n    tag_144:\n        /* \"openzeppelin-solidity/contracts/access/Ownable.sol\":1248:1271  owner() == _msgSender() */\n      0xffffffffffffffffffffffffffffffffffffffff\n      and\n      eq\n        /* \"openzeppelin-solidity/contracts/access/Ownable.sol\":1240:1308  require(owner() == _msgSender(), \"Ownable: caller is not the owner\") */\n      tag_145\n      jumpi\n      mload(0x40)\n      0x08c379a000000000000000000000000000000000000000000000000000000000\n      dup2\n      mstore\n      0x04\n      add\n      tag_146\n      swap1\n      tag_83\n      jump\t// in\n    tag_146:\n      mload(0x40)\n      dup1\n      swap2\n      sub\n      swap1\n      revert\n    tag_145:\n        /* \"DID.sol\":1627:1651  UserInfo memory userInfo */\n      tag_148\n      tag_116\n      jump\t// in\n    tag_148:\n        /* \"DID.sol\":1678:1687  _userData */\n      dup2\n        /* \"DID.sol\":1678:1692  _userData.name */\n      0x00\n      add\n      mload\n        /* \"DID.sol\":1662:1670  userInfo */\n      dup2\n        /* \"DID.sol\":1662:1675  userInfo.name */\n      0x00\n      add\n        /* \"DID.sol\":1662:1692  userInfo.name = _userData.name */\n      dup2\n      swap1\n      mstore\n      pop\n        /* \"DID.sol\":1719:1728  _userData */\n      dup2\n        /* \"DID.sol\":1719:1734  _userData.birth */\n      0x20\n      add\n      mload\n        /* \"DID.sol\":1702:1710  userInfo */\n      dup2\n        /* \"DID.sol\":1702:1716  userInfo.birth */\n      0x20\n      add\n        /* \"DID.sol\":1702:1734  userInfo.birth = _userData.birth */\n      dup2\n      swap1\n      mstore\n      pop\n        /* \"DID.sol\":1762:1771  _userData */\n      dup2\n        /* \"DID.sol\":1762:1778  _userData.gender */\n      0x40\n      add\n      mload\n        /* \"DID.sol\":1744:1752  userInfo */\n      dup2\n        /* \"DID.sol\":1744:1759  userInfo.gender */\n      0x40\n      add\n        /* \"DID.sol\":1744:1778  userInfo.gender = _userData.gender */\n      dup2\n      swap1\n      mstore\n      pop\n        /* \"DID.sol\":1805:1814  _userData */\n      dup2\n        /* \"DID.sol\":1805:1820  _userData.email */\n      0x60\n      add\n      mload\n        /* \"DID.sol\":1788:1796  userInfo */\n      dup2\n        /* \"DID.sol\":1788:1802  userInfo.email */\n      0x60\n      add\n        /* \"DID.sol\":1788:1820  userInfo.email = _userData.email */\n      dup2\n      swap1\n      mstore\n      pop\n        /* \"DID.sol\":1851:1859  userInfo */\n      dup1\n        /* \"DID.sol\":1831:1835  user */\n      0x01\n        /* \"DID.sol\":1836:1847  _identifier */\n      dup5\n        /* \"DID.sol\":1831:1848  user[_identifier] */\n      mload(0x40)\n      tag_149\n      swap2\n      swap1\n      tag_89\n      jump\t// in\n    tag_149:\n      swap1\n      dup2\n      mstore\n      0x20\n      add\n      mload(0x40)\n      dup1\n      swap2\n      sub\n      swap1\n      keccak256\n        /* \"DID.sol\":1831:1859  user[_identifier] = userInfo */\n      0x00\n      dup3\n      add\n      mload\n      dup2\n      0x00\n      add\n      swap1\n      dup2\n      tag_150\n      swap2\n      swap1\n      tag_119\n      jump\t// in\n    tag_150:\n      pop\n      0x20\n      dup3\n      add\n      mload\n      dup2\n      0x01\n      add\n      swap1\n      dup2\n      tag_151\n      swap2\n      swap1\n      tag_119\n      jump\t// in\n    tag_151:\n      pop\n      0x40\n      dup3\n      add\n      mload\n      dup2\n      0x02\n      add\n      swap1\n      dup2\n      tag_152\n      swap2\n      swap1\n      tag_119\n      jump\t// in\n    tag_152:\n      pop\n      0x60\n      dup3\n      add\n      mload\n      dup2\n      0x03\n      add\n      swap1\n      dup2\n      tag_153\n      swap2\n      swap1\n      tag_119\n      jump\t// in\n    tag_153:\n      pop\n      swap1\n      pop\n      pop\n        /* \"DID.sol\":1568:1866  {... */\n      pop\n        /* \"DID.sol\":1464:1866  function updateUserInfo(string memory _identifier, UserInfo memory _userData) public override onlyOwner {... */\n      pop\n      pop\n      jump\t// out\n        /* \"openzeppelin-solidity/contracts/access/Ownable.sol\":1036:1121  function owner() public view virtual returns (address) {... */\n    tag_43:\n        /* \"openzeppelin-solidity/contracts/access/Ownable.sol\":1082:1089  address */\n      0x00\n        /* \"openzeppelin-solidity/contracts/access/Ownable.sol\":1108:1114  _owner */\n      dup1\n      0x00\n      swap1\n      sload\n      swap1\n      0x0100\n      exp\n      swap1\n      div\n      0xffffffffffffffffffffffffffffffffffffffff\n      and\n        /* \"openzeppelin-solidity/contracts/access/Ownable.sol\":1101:1114  return _owner */\n      swap1\n      pop\n        /* \"openzeppelin-solidity/contracts/access/Ownable.sol\":1036:1121  function owner() public view virtual returns (address) {... */\n      swap1\n      jump\t// out\n        /* \"DID.sol\":970:1458  function disconnectApp(string memory _identifier, string memory _app) public override onlyOwner {... */\n    tag_48:\n        /* \"openzeppelin-solidity/contracts/access/Ownable.sol\":1259:1271  _msgSender() */\n      tag_156\n        /* \"openzeppelin-solidity/contracts/access/Ownable.sol\":1259:1269  _msgSender */\n      tag_79\n        /* \"openzeppelin-solidity/contracts/access/Ownable.sol\":1259:1271  _msgSender() */\n      jump\t// in\n    tag_156:\n        /* \"openzeppelin-solidity/contracts/access/Ownable.sol\":1248:1271  owner() == _msgSender() */\n      0xffffffffffffffffffffffffffffffffffffffff\n      and\n        /* \"openzeppelin-solidity/contracts/access/Ownable.sol\":1248:1255  owner() */\n      tag_157\n        /* \"openzeppelin-solidity/contracts/access/Ownable.sol\":1248:1253  owner */\n      tag_43\n        /* \"openzeppelin-solidity/contracts/access/Ownable.sol\":1248:1255  owner() */\n      jump\t// in\n    tag_157:\n        /* \"openzeppelin-solidity/contracts/access/Ownable.sol\":1248:1271  owner() == _msgSender() */\n      0xffffffffffffffffffffffffffffffffffffffff\n      and\n      eq\n        /* \"openzeppelin-solidity/contracts/access/Ownable.sol\":1240:1308  require(owner() == _msgSender(), \"Ownable: caller is not the owner\") */\n      tag_158\n      jumpi\n      mload(0x40)\n      0x08c379a000000000000000000000000000000000000000000000000000000000\n      dup2\n      mstore\n      0x04\n      add\n      tag_159\n      swap1\n      tag_83\n      jump\t// in\n    tag_159:\n      mload(0x40)\n      dup1\n      swap2\n      sub\n      swap1\n      revert\n    tag_158:\n        /* \"DID.sol\":1084:1114  findUserApp(_identifier, _app) */\n      tag_161\n        /* \"DID.sol\":1096:1107  _identifier */\n      dup3\n        /* \"DID.sol\":1109:1113  _app */\n      dup3\n        /* \"DID.sol\":1084:1095  findUserApp */\n      tag_86\n        /* \"DID.sol\":1084:1114  findUserApp(_identifier, _app) */\n      jump\t// in\n    tag_161:\n        /* \"DID.sol\":1076:1115  require(findUserApp(_identifier, _app)) */\n      tag_162\n      jumpi\n      0x00\n      dup1\n      revert\n    tag_162:\n        /* \"DID.sol\":1126:1137  uint length */\n      0x00\n        /* \"DID.sol\":1140:1147  userApp */\n      0x02\n        /* \"DID.sol\":1148:1159  _identifier */\n      dup4\n        /* \"DID.sol\":1140:1160  userApp[_identifier] */\n      mload(0x40)\n      tag_163\n      swap2\n      swap1\n      tag_89\n      jump\t// in\n    tag_163:\n      swap1\n      dup2\n      mstore\n      0x20\n      add\n      mload(0x40)\n      dup1\n      swap2\n      sub\n      swap1\n      keccak256\n        /* \"DID.sol\":1140:1167  userApp[_identifier].length */\n      dup1\n      sload\n      swap1\n      pop\n        /* \"DID.sol\":1126:1167  uint length = userApp[_identifier].length */\n      swap1\n      pop\n        /* \"DID.sol\":1177:1192  bytes32 compare */\n      0x00\n        /* \"DID.sol\":1222:1226  _app */\n      dup3\n        /* \"DID.sol\":1205:1227  abi.encodePacked(_app) */\n      add(0x20, mload(0x40))\n      tag_164\n      swap2\n      swap1\n      tag_89\n      jump\t// in\n    tag_164:\n      mload(0x40)\n      0x20\n      dup2\n      dup4\n      sub\n      sub\n      dup2\n      mstore\n      swap1\n      0x40\n      mstore\n        /* \"DID.sol\":1195:1228  keccak256(abi.encodePacked(_app)) */\n      dup1\n      mload\n      swap1\n      0x20\n      add\n      keccak256\n        /* \"DID.sol\":1177:1228  bytes32 compare = keccak256(abi.encodePacked(_app)) */\n      swap1\n      pop\n        /* \"DID.sol\":1244:1250  uint i */\n      0x00\n        /* \"DID.sol\":1239:1451  for (uint i = 0; i < length; i++) {... */\n    tag_165:\n        /* \"DID.sol\":1260:1266  length */\n      dup3\n        /* \"DID.sol\":1256:1257  i */\n      dup2\n        /* \"DID.sol\":1256:1266  i < length */\n      lt\n        /* \"DID.sol\":1239:1451  for (uint i = 0; i < length; i++) {... */\n      iszero\n      tag_166\n      jumpi\n        /* \"DID.sol\":1351:1358  compare */\n      dup2\n        /* \"DID.sol\":1318:1325  userApp */\n      0x02\n        /* \"DID.sol\":1326:1337  _identifier */\n      dup7\n        /* \"DID.sol\":1318:1338  userApp[_identifier] */\n      mload(0x40)\n      tag_168\n      swap2\n      swap1\n      tag_89\n      jump\t// in\n    tag_168:\n      swap1\n      dup2\n      mstore\n      0x20\n      add\n      mload(0x40)\n      dup1\n      swap2\n      sub\n      swap1\n      keccak256\n        /* \"DID.sol\":1339:1340  i */\n      dup3\n        /* \"DID.sol\":1318:1341  userApp[_identifier][i] */\n      dup2\n      sload\n      dup2\n      lt\n      tag_169\n      jumpi\n      tag_170\n      tag_97\n      jump\t// in\n    tag_170:\n    tag_169:\n      swap1\n      0x00\n      mstore\n      keccak256(0x00, 0x20)\n      swap1\n      0x02\n      mul\n      add\n        /* \"DID.sol\":1318:1345  userApp[_identifier][i].app */\n      0x00\n      add\n        /* \"DID.sol\":1301:1346  abi.encodePacked(userApp[_identifier][i].app) */\n      add(0x20, mload(0x40))\n      tag_172\n      swap2\n      swap1\n      tag_100\n      jump\t// in\n    tag_172:\n      mload(0x40)\n      0x20\n      dup2\n      dup4\n      sub\n      sub\n      dup2\n      mstore\n      swap1\n      0x40\n      mstore\n        /* \"DID.sol\":1291:1347  keccak256(abi.encodePacked(userApp[_identifier][i].app)) */\n      dup1\n      mload\n      swap1\n      0x20\n      add\n      keccak256\n        /* \"DID.sol\":1291:1358  keccak256(abi.encodePacked(userApp[_identifier][i].app)) == compare */\n      sub\n        /* \"DID.sol\":1287:1441  if (keccak256(abi.encodePacked(userApp[_identifier][i].app)) == compare ) {... */\n      tag_173\n      jumpi\n        /* \"DID.sol\":1403:1410  userApp */\n      0x02\n        /* \"DID.sol\":1411:1422  _identifier */\n      dup6\n        /* \"DID.sol\":1403:1423  userApp[_identifier] */\n      mload(0x40)\n      tag_174\n      swap2\n      swap1\n      tag_89\n      jump\t// in\n    tag_174:\n      swap1\n      dup2\n      mstore\n      0x20\n      add\n      mload(0x40)\n      dup1\n      swap2\n      sub\n      swap1\n      keccak256\n        /* \"DID.sol\":1424:1425  i */\n      dup2\n        /* \"DID.sol\":1403:1426  userApp[_identifier][i] */\n      dup2\n      sload\n      dup2\n      lt\n      tag_175\n      jumpi\n      tag_176\n      tag_97\n      jump\t// in\n    tag_176:\n    tag_175:\n      swap1\n      0x00\n      mstore\n      keccak256(0x00, 0x20)\n      swap1\n      0x02\n      mul\n      add\n      0x00\n        /* \"DID.sol\":1396:1426  delete userApp[_identifier][i] */\n      dup1\n      dup3\n      add\n      0x00\n      tag_178\n      swap2\n      swap1\n      tag_179\n      jump\t// in\n    tag_178:\n      0x01\n      dup3\n      add\n      0x00\n      swap1\n      sstore\n      pop\n      pop\n        /* \"DID.sol\":1287:1441  if (keccak256(abi.encodePacked(userApp[_identifier][i].app)) == compare ) {... */\n    tag_173:\n        /* \"DID.sol\":1268:1271  i++ */\n      dup1\n      dup1\n      tag_180\n      swap1\n      tag_107\n      jump\t// in\n    tag_180:\n      swap2\n      pop\n      pop\n        /* \"DID.sol\":1239:1451  for (uint i = 0; i < length; i++) {... */\n      jump(tag_165)\n    tag_166:\n      pop\n        /* \"DID.sol\":1066:1458  {... */\n      pop\n      pop\n        /* \"DID.sol\":970:1458  function disconnectApp(string memory _identifier, string memory _app) public override onlyOwner {... */\n      pop\n      pop\n      jump\t// out\n        /* \"DID.sol\":289:334  mapping(string => Connected[]) public userApp */\n    tag_52:\n      0x02\n      dup3\n      dup1\n      mload\n      0x20\n      dup2\n      add\n      dup3\n      add\n      dup1\n      mload\n      dup5\n      dup3\n      mstore\n      0x20\n      dup4\n      add\n      0x20\n      dup6\n      add\n      keccak256\n      dup2\n      dup4\n      mstore\n      dup1\n      swap6\n      pop\n      pop\n      pop\n      pop\n      pop\n      pop\n      dup2\n      dup2\n      sload\n      dup2\n      lt\n      tag_181\n      jumpi\n      0x00\n      dup1\n      revert\n    tag_181:\n      swap1\n      0x00\n      mstore\n      keccak256(0x00, 0x20)\n      swap1\n      0x02\n      mul\n      add\n      0x00\n      swap2\n      pop\n      swap2\n      pop\n      pop\n      dup1\n      0x00\n      add\n      dup1\n      sload\n      tag_183\n      swap1\n      tag_184\n      jump\t// in\n    tag_183:\n      dup1\n      0x1f\n      add\n      0x20\n      dup1\n      swap2\n      div\n      mul\n      0x20\n      add\n      mload(0x40)\n      swap1\n      dup2\n      add\n      0x40\n      mstore\n      dup1\n      swap3\n      swap2\n      swap1\n      dup2\n      dup2\n      mstore\n      0x20\n      add\n      dup3\n      dup1\n      sload\n      tag_185\n      swap1\n      tag_184\n      jump\t// in\n    tag_185:\n      dup1\n      iszero\n      tag_186\n      jumpi\n      dup1\n      0x1f\n      lt\n      tag_187\n      jumpi\n      0x0100\n      dup1\n      dup4\n      sload\n      div\n      mul\n      dup4\n      mstore\n      swap2\n      0x20\n      add\n      swap2\n      jump(tag_186)\n    tag_187:\n      dup3\n      add\n      swap2\n      swap1\n      0x00\n      mstore\n      keccak256(0x00, 0x20)\n      swap1\n    tag_188:\n      dup2\n      sload\n      dup2\n      mstore\n      swap1\n      0x01\n      add\n      swap1\n      0x20\n      add\n      dup1\n      dup4\n      gt\n      tag_188\n      jumpi\n      dup3\n      swap1\n      sub\n      0x1f\n      and\n      dup3\n      add\n      swap2\n    tag_186:\n      pop\n      pop\n      pop\n      pop\n      pop\n      swap1\n      dup1\n      0x01\n      add\n      sload\n      swap1\n      pop\n      dup3\n      jump\t// out\n        /* \"DID.sol\":1917:2452  function addPoint(string memory _identifier, string memory _app, uint _point) public override onlyOwner {... */\n    tag_58:\n        /* \"openzeppelin-solidity/contracts/access/Ownable.sol\":1259:1271  _msgSender() */\n      tag_190\n        /* \"openzeppelin-solidity/contracts/access/Ownable.sol\":1259:1269  _msgSender */\n      tag_79\n        /* \"openzeppelin-solidity/contracts/access/Ownable.sol\":1259:1271  _msgSender() */\n      jump\t// in\n    tag_190:\n        /* \"openzeppelin-solidity/contracts/access/Ownable.sol\":1248:1271  owner() == _msgSender() */\n      0xffffffffffffffffffffffffffffffffffffffff\n      and\n        /* \"openzeppelin-solidity/contracts/access/Ownable.sol\":1248:1255  owner() */\n      tag_191\n        /* \"openzeppelin-solidity/contracts/access/Ownable.sol\":1248:1253  owner */\n      tag_43\n        /* \"openzeppelin-solidity/contracts/access/Ownable.sol\":1248:1255  owner() */\n      jump\t// in\n    tag_191:\n        /* \"openzeppelin-solidity/contracts/access/Ownable.sol\":1248:1271  owner() == _msgSender() */\n      0xffffffffffffffffffffffffffffffffffffffff\n      and\n      eq\n        /* \"openzeppelin-solidity/contracts/access/Ownable.sol\":1240:1308  require(owner() == _msgSender(), \"Ownable: caller is not the owner\") */\n      tag_192\n      jumpi\n      mload(0x40)\n      0x08c379a000000000000000000000000000000000000000000000000000000000\n      dup2\n      mstore\n      0x04\n      add\n      tag_193\n      swap1\n      tag_83\n      jump\t// in\n    tag_193:\n      mload(0x40)\n      dup1\n      swap2\n      sub\n      swap1\n      revert\n    tag_192:\n        /* \"DID.sol\":2039:2069  findUserApp(_identifier, _app) */\n      tag_195\n        /* \"DID.sol\":2051:2062  _identifier */\n      dup4\n        /* \"DID.sol\":2064:2068  _app */\n      dup4\n        /* \"DID.sol\":2039:2050  findUserApp */\n      tag_86\n        /* \"DID.sol\":2039:2069  findUserApp(_identifier, _app) */\n      jump\t// in\n    tag_195:\n        /* \"DID.sol\":2031:2070  require(findUserApp(_identifier, _app)) */\n      tag_196\n      jumpi\n      0x00\n      dup1\n      revert\n    tag_196:\n        /* \"DID.sol\":2081:2092  uint length */\n      0x00\n        /* \"DID.sol\":2095:2102  userApp */\n      0x02\n        /* \"DID.sol\":2103:2114  _identifier */\n      dup5\n        /* \"DID.sol\":2095:2115  userApp[_identifier] */\n      mload(0x40)\n      tag_197\n      swap2\n      swap1\n      tag_89\n      jump\t// in\n    tag_197:\n      swap1\n      dup2\n      mstore\n      0x20\n      add\n      mload(0x40)\n      dup1\n      swap2\n      sub\n      swap1\n      keccak256\n        /* \"DID.sol\":2095:2122  userApp[_identifier].length */\n      dup1\n      sload\n      swap1\n      pop\n        /* \"DID.sol\":2081:2122  uint length = userApp[_identifier].length */\n      swap1\n      pop\n        /* \"DID.sol\":2132:2147  bytes32 compare */\n      0x00\n        /* \"DID.sol\":2177:2181  _app */\n      dup4\n        /* \"DID.sol\":2160:2182  abi.encodePacked(_app) */\n      add(0x20, mload(0x40))\n      tag_198\n      swap2\n      swap1\n      tag_89\n      jump\t// in\n    tag_198:\n      mload(0x40)\n      0x20\n      dup2\n      dup4\n      sub\n      sub\n      dup2\n      mstore\n      swap1\n      0x40\n      mstore\n        /* \"DID.sol\":2150:2183  keccak256(abi.encodePacked(_app)) */\n      dup1\n      mload\n      swap1\n      0x20\n      add\n      keccak256\n        /* \"DID.sol\":2132:2183  bytes32 compare = keccak256(abi.encodePacked(_app)) */\n      swap1\n      pop\n        /* \"DID.sol\":2199:2205  uint i */\n      0x00\n        /* \"DID.sol\":2194:2446  for (uint i = 0; i < length; i++) {... */\n    tag_199:\n        /* \"DID.sol\":2215:2221  length */\n      dup3\n        /* \"DID.sol\":2211:2212  i */\n      dup2\n        /* \"DID.sol\":2211:2221  i < length */\n      lt\n        /* \"DID.sol\":2194:2446  for (uint i = 0; i < length; i++) {... */\n      iszero\n      tag_200\n      jumpi\n        /* \"DID.sol\":2306:2313  compare */\n      dup2\n        /* \"DID.sol\":2273:2280  userApp */\n      0x02\n        /* \"DID.sol\":2281:2292  _identifier */\n      dup8\n        /* \"DID.sol\":2273:2293  userApp[_identifier] */\n      mload(0x40)\n      tag_202\n      swap2\n      swap1\n      tag_89\n      jump\t// in\n    tag_202:\n      swap1\n      dup2\n      mstore\n      0x20\n      add\n      mload(0x40)\n      dup1\n      swap2\n      sub\n      swap1\n      keccak256\n        /* \"DID.sol\":2294:2295  i */\n      dup3\n        /* \"DID.sol\":2273:2296  userApp[_identifier][i] */\n      dup2\n      sload\n      dup2\n      lt\n      tag_203\n      jumpi\n      tag_204\n      tag_97\n      jump\t// in\n    tag_204:\n    tag_203:\n      swap1\n      0x00\n      mstore\n      keccak256(0x00, 0x20)\n      swap1\n      0x02\n      mul\n      add\n        /* \"DID.sol\":2273:2300  userApp[_identifier][i].app */\n      0x00\n      add\n        /* \"DID.sol\":2256:2301  abi.encodePacked(userApp[_identifier][i].app) */\n      add(0x20, mload(0x40))\n      tag_206\n      swap2\n      swap1\n      tag_100\n      jump\t// in\n    tag_206:\n      mload(0x40)\n      0x20\n      dup2\n      dup4\n      sub\n      sub\n      dup2\n      mstore\n      swap1\n      0x40\n      mstore\n        /* \"DID.sol\":2246:2302  keccak256(abi.encodePacked(userApp[_identifier][i].app)) */\n      dup1\n      mload\n      swap1\n      0x20\n      add\n      keccak256\n        /* \"DID.sol\":2246:2313  keccak256(abi.encodePacked(userApp[_identifier][i].app)) == compare */\n      sub\n        /* \"DID.sol\":2242:2436  if (keccak256(abi.encodePacked(userApp[_identifier][i].app)) == compare ) {... */\n      tag_207\n      jumpi\n        /* \"DID.sol\":2415:2421  _point */\n      dup4\n        /* \"DID.sol\":2383:2390  userApp */\n      0x02\n        /* \"DID.sol\":2391:2402  _identifier */\n      dup8\n        /* \"DID.sol\":2383:2403  userApp[_identifier] */\n      mload(0x40)\n      tag_208\n      swap2\n      swap1\n      tag_89\n      jump\t// in\n    tag_208:\n      swap1\n      dup2\n      mstore\n      0x20\n      add\n      mload(0x40)\n      dup1\n      swap2\n      sub\n      swap1\n      keccak256\n        /* \"DID.sol\":2404:2405  i */\n      dup3\n        /* \"DID.sol\":2383:2406  userApp[_identifier][i] */\n      dup2\n      sload\n      dup2\n      lt\n      tag_209\n      jumpi\n      tag_210\n      tag_97\n      jump\t// in\n    tag_210:\n    tag_209:\n      swap1\n      0x00\n      mstore\n      keccak256(0x00, 0x20)\n      swap1\n      0x02\n      mul\n      add\n        /* \"DID.sol\":2383:2412  userApp[_identifier][i].point */\n      0x01\n      add\n      sload\n        /* \"DID.sol\":2383:2421  userApp[_identifier][i].point + _point */\n      tag_212\n      swap2\n      swap1\n      tag_213\n      jump\t// in\n    tag_212:\n        /* \"DID.sol\":2351:2358  userApp */\n      0x02\n        /* \"DID.sol\":2359:2370  _identifier */\n      dup8\n        /* \"DID.sol\":2351:2371  userApp[_identifier] */\n      mload(0x40)\n      tag_214\n      swap2\n      swap1\n      tag_89\n      jump\t// in\n    tag_214:\n      swap1\n      dup2\n      mstore\n      0x20\n      add\n      mload(0x40)\n      dup1\n      swap2\n      sub\n      swap1\n      keccak256\n        /* \"DID.sol\":2372:2373  i */\n      dup3\n        /* \"DID.sol\":2351:2374  userApp[_identifier][i] */\n      dup2\n      sload\n      dup2\n      lt\n      tag_215\n      jumpi\n      tag_216\n      tag_97\n      jump\t// in\n    tag_216:\n    tag_215:\n      swap1\n      0x00\n      mstore\n      keccak256(0x00, 0x20)\n      swap1\n      0x02\n      mul\n      add\n        /* \"DID.sol\":2351:2380  userApp[_identifier][i].point */\n      0x01\n      add\n        /* \"DID.sol\":2351:2421  userApp[_identifier][i].point = userApp[_identifier][i].point + _point */\n      dup2\n      swap1\n      sstore\n      pop\n        /* \"DID.sol\":2242:2436  if (keccak256(abi.encodePacked(userApp[_identifier][i].app)) == compare ) {... */\n    tag_207:\n        /* \"DID.sol\":2223:2226  i++ */\n      dup1\n      dup1\n      tag_218\n      swap1\n      tag_107\n      jump\t// in\n    tag_218:\n      swap2\n      pop\n      pop\n        /* \"DID.sol\":2194:2446  for (uint i = 0; i < length; i++) {... */\n      jump(tag_199)\n    tag_200:\n      pop\n        /* \"DID.sol\":2021:2452  {... */\n      pop\n      pop\n        /* \"DID.sol\":1917:2452  function addPoint(string memory _identifier, string memory _app, uint _point) public override onlyOwner {... */\n      pop\n      pop\n      pop\n      jump\t// out\n        /* \"DID.sol\":3527:3857  function getUserApps(string memory _identifier) public view override onlyOwner returns (string[] memory) {... */\n    tag_62:\n        /* \"DID.sol\":3615:3630  string[] memory */\n      0x60\n        /* \"openzeppelin-solidity/contracts/access/Ownable.sol\":1259:1271  _msgSender() */\n      tag_220\n        /* \"openzeppelin-solidity/contracts/access/Ownable.sol\":1259:1269  _msgSender */\n      tag_79\n        /* \"openzeppelin-solidity/contracts/access/Ownable.sol\":1259:1271  _msgSender() */\n      jump\t// in\n    tag_220:\n        /* \"openzeppelin-solidity/contracts/access/Ownable.sol\":1248:1271  owner() == _msgSender() */\n      0xffffffffffffffffffffffffffffffffffffffff\n      and\n        /* \"openzeppelin-solidity/contracts/access/Ownable.sol\":1248:1255  owner() */\n      tag_221\n        /* \"openzeppelin-solidity/contracts/access/Ownable.sol\":1248:1253  owner */\n      tag_43\n        /* \"openzeppelin-solidity/contracts/access/Ownable.sol\":1248:1255  owner() */\n      jump\t// in\n    tag_221:\n        /* \"openzeppelin-solidity/contracts/access/Ownable.sol\":1248:1271  owner() == _msgSender() */\n      0xffffffffffffffffffffffffffffffffffffffff\n      and\n      eq\n        /* \"openzeppelin-solidity/contracts/access/Ownable.sol\":1240:1308  require(owner() == _msgSender(), \"Ownable: caller is not the owner\") */\n      tag_222\n      jumpi\n      mload(0x40)\n      0x08c379a000000000000000000000000000000000000000000000000000000000\n      dup2\n      mstore\n      0x04\n      add\n      tag_223\n      swap1\n      tag_83\n      jump\t// in\n    tag_223:\n      mload(0x40)\n      dup1\n      swap2\n      sub\n      swap1\n      revert\n    tag_222:\n        /* \"DID.sol\":3642:3665  string[] memory appList */\n      0x60\n        /* \"DID.sol\":3676:3687  uint length */\n      0x00\n        /* \"DID.sol\":3690:3697  userApp */\n      0x02\n        /* \"DID.sol\":3698:3709  _identifier */\n      dup5\n        /* \"DID.sol\":3690:3710  userApp[_identifier] */\n      mload(0x40)\n      tag_225\n      swap2\n      swap1\n      tag_89\n      jump\t// in\n    tag_225:\n      swap1\n      dup2\n      mstore\n      0x20\n      add\n      mload(0x40)\n      dup1\n      swap2\n      sub\n      swap1\n      keccak256\n        /* \"DID.sol\":3690:3717  userApp[_identifier].length */\n      dup1\n      sload\n      swap1\n      pop\n        /* \"DID.sol\":3676:3717  uint length = userApp[_identifier].length */\n      swap1\n      pop\n        /* \"DID.sol\":3732:3738  uint i */\n      0x00\n        /* \"DID.sol\":3727:3826  for (uint i = 0; i < length; i++) {... */\n    tag_226:\n        /* \"DID.sol\":3748:3754  length */\n      dup2\n        /* \"DID.sol\":3744:3745  i */\n      dup2\n        /* \"DID.sol\":3744:3754  i < length */\n      lt\n        /* \"DID.sol\":3727:3826  for (uint i = 0; i < length; i++) {... */\n      iszero\n      tag_227\n      jumpi\n        /* \"DID.sol\":3788:3795  userApp */\n      0x02\n        /* \"DID.sol\":3796:3807  _identifier */\n      dup6\n        /* \"DID.sol\":3788:3808  userApp[_identifier] */\n      mload(0x40)\n      tag_229\n      swap2\n      swap1\n      tag_89\n      jump\t// in\n    tag_229:\n      swap1\n      dup2\n      mstore\n      0x20\n      add\n      mload(0x40)\n      dup1\n      swap2\n      sub\n      swap1\n      keccak256\n        /* \"DID.sol\":3809:3810  i */\n      dup2\n        /* \"DID.sol\":3788:3811  userApp[_identifier][i] */\n      dup2\n      sload\n      dup2\n      lt\n      tag_230\n      jumpi\n      tag_231\n      tag_97\n      jump\t// in\n    tag_231:\n    tag_230:\n      swap1\n      0x00\n      mstore\n      keccak256(0x00, 0x20)\n      swap1\n      0x02\n      mul\n      add\n        /* \"DID.sol\":3788:3815  userApp[_identifier][i].app */\n      0x00\n      add\n        /* \"DID.sol\":3775:3815  appList[i] = userApp[_identifier][i].app */\n      dup1\n      sload\n      tag_233\n      swap1\n      tag_184\n      jump\t// in\n    tag_233:\n      dup1\n      0x1f\n      add\n      0x20\n      dup1\n      swap2\n      div\n      mul\n      0x20\n      add\n      mload(0x40)\n      swap1\n      dup2\n      add\n      0x40\n      mstore\n      dup1\n      swap3\n      swap2\n      swap1\n      dup2\n      dup2\n      mstore\n      0x20\n      add\n      dup3\n      dup1\n      sload\n      tag_234\n      swap1\n      tag_184\n      jump\t// in\n    tag_234:\n      dup1\n      iszero\n      tag_235\n      jumpi\n      dup1\n      0x1f\n      lt\n      tag_236\n      jumpi\n      0x0100\n      dup1\n      dup4\n      sload\n      div\n      mul\n      dup4\n      mstore\n      swap2\n      0x20\n      add\n      swap2\n      jump(tag_235)\n    tag_236:\n      dup3\n      add\n      swap2\n      swap1\n      0x00\n      mstore\n      keccak256(0x00, 0x20)\n      swap1\n    tag_237:\n      dup2\n      sload\n      dup2\n      mstore\n      swap1\n      0x01\n      add\n      swap1\n      0x20\n      add\n      dup1\n      dup4\n      gt\n      tag_237\n      jumpi\n      dup3\n      swap1\n      sub\n      0x1f\n      and\n      dup3\n      add\n      swap2\n    tag_235:\n      pop\n      pop\n      pop\n      pop\n      pop\n        /* \"DID.sol\":3775:3782  appList */\n      dup4\n        /* \"DID.sol\":3783:3784  i */\n      dup3\n        /* \"DID.sol\":3775:3785  appList[i] */\n      dup2\n      mload\n      dup2\n      lt\n      tag_238\n      jumpi\n      tag_239\n      tag_97\n      jump\t// in\n    tag_239:\n    tag_238:\n      0x20\n      mul\n      0x20\n      add\n      add\n        /* \"DID.sol\":3775:3815  appList[i] = userApp[_identifier][i].app */\n      dup2\n      swap1\n      mstore\n      pop\n        /* \"DID.sol\":3756:3759  i++ */\n      dup1\n      dup1\n      tag_240\n      swap1\n      tag_107\n      jump\t// in\n    tag_240:\n      swap2\n      pop\n      pop\n        /* \"DID.sol\":3727:3826  for (uint i = 0; i < length; i++) {... */\n      jump(tag_226)\n    tag_227:\n      pop\n        /* \"DID.sol\":3843:3850  appList */\n      dup2\n        /* \"DID.sol\":3836:3850  return appList */\n      swap3\n      pop\n      pop\n      pop\n        /* \"DID.sol\":3527:3857  function getUserApps(string memory _identifier) public view override onlyOwner returns (string[] memory) {... */\n      swap2\n      swap1\n      pop\n      jump\t// out\n        /* \"DID.sol\":2458:2998  function subtractPoint(string memory _identifier, string memory _app, uint _point) public override onlyOwner {... */\n    tag_67:\n        /* \"openzeppelin-solidity/contracts/access/Ownable.sol\":1259:1271  _msgSender() */\n      tag_242\n        /* \"openzeppelin-solidity/contracts/access/Ownable.sol\":1259:1269  _msgSender */\n      tag_79\n        /* \"openzeppelin-solidity/contracts/access/Ownable.sol\":1259:1271  _msgSender() */\n      jump\t// in\n    tag_242:\n        /* \"openzeppelin-solidity/contracts/access/Ownable.sol\":1248:1271  owner() == _msgSender() */\n      0xffffffffffffffffffffffffffffffffffffffff\n      and\n        /* \"openzeppelin-solidity/contracts/access/Ownable.sol\":1248:1255  owner() */\n      tag_243\n        /* \"openzeppelin-solidity/contracts/access/Ownable.sol\":1248:1253  owner */\n      tag_43\n        /* \"openzeppelin-solidity/contracts/access/Ownable.sol\":1248:1255  owner() */\n      jump\t// in\n    tag_243:\n        /* \"openzeppelin-solidity/contracts/access/Ownable.sol\":1248:1271  owner() == _msgSender() */\n      0xffffffffffffffffffffffffffffffffffffffff\n      and\n      eq\n        /* \"openzeppelin-solidity/contracts/access/Ownable.sol\":1240:1308  require(owner() == _msgSender(), \"Ownable: caller is not the owner\") */\n      tag_244\n      jumpi\n      mload(0x40)\n      0x08c379a000000000000000000000000000000000000000000000000000000000\n      dup2\n      mstore\n      0x04\n      add\n      tag_245\n      swap1\n      tag_83\n      jump\t// in\n    tag_245:\n      mload(0x40)\n      dup1\n      swap2\n      sub\n      swap1\n      revert\n    tag_244:\n        /* \"DID.sol\":2585:2615  findUserApp(_identifier, _app) */\n      tag_247\n        /* \"DID.sol\":2597:2608  _identifier */\n      dup4\n        /* \"DID.sol\":2610:2614  _app */\n      dup4\n        /* \"DID.sol\":2585:2596  findUserApp */\n      tag_86\n        /* \"DID.sol\":2585:2615  findUserApp(_identifier, _app) */\n      jump\t// in\n    tag_247:\n        /* \"DID.sol\":2577:2616  require(findUserApp(_identifier, _app)) */\n      tag_248\n      jumpi\n      0x00\n      dup1\n      revert\n    tag_248:\n        /* \"DID.sol\":2627:2638  uint length */\n      0x00\n        /* \"DID.sol\":2641:2648  userApp */\n      0x02\n        /* \"DID.sol\":2649:2660  _identifier */\n      dup5\n        /* \"DID.sol\":2641:2661  userApp[_identifier] */\n      mload(0x40)\n      tag_249\n      swap2\n      swap1\n      tag_89\n      jump\t// in\n    tag_249:\n      swap1\n      dup2\n      mstore\n      0x20\n      add\n      mload(0x40)\n      dup1\n      swap2\n      sub\n      swap1\n      keccak256\n        /* \"DID.sol\":2641:2668  userApp[_identifier].length */\n      dup1\n      sload\n      swap1\n      pop\n        /* \"DID.sol\":2627:2668  uint length = userApp[_identifier].length */\n      swap1\n      pop\n        /* \"DID.sol\":2678:2693  bytes32 compare */\n      0x00\n        /* \"DID.sol\":2723:2727  _app */\n      dup4\n        /* \"DID.sol\":2706:2728  abi.encodePacked(_app) */\n      add(0x20, mload(0x40))\n      tag_250\n      swap2\n      swap1\n      tag_89\n      jump\t// in\n    tag_250:\n      mload(0x40)\n      0x20\n      dup2\n      dup4\n      sub\n      sub\n      dup2\n      mstore\n      swap1\n      0x40\n      mstore\n        /* \"DID.sol\":2696:2729  keccak256(abi.encodePacked(_app)) */\n      dup1\n      mload\n      swap1\n      0x20\n      add\n      keccak256\n        /* \"DID.sol\":2678:2729  bytes32 compare = keccak256(abi.encodePacked(_app)) */\n      swap1\n      pop\n        /* \"DID.sol\":2745:2751  uint i */\n      0x00\n        /* \"DID.sol\":2740:2992  for (uint i = 0; i < length; i++) {... */\n    tag_251:\n        /* \"DID.sol\":2761:2767  length */\n      dup3\n        /* \"DID.sol\":2757:2758  i */\n      dup2\n        /* \"DID.sol\":2757:2767  i < length */\n      lt\n        /* \"DID.sol\":2740:2992  for (uint i = 0; i < length; i++) {... */\n      iszero\n      tag_252\n      jumpi\n        /* \"DID.sol\":2852:2859  compare */\n      dup2\n        /* \"DID.sol\":2819:2826  userApp */\n      0x02\n        /* \"DID.sol\":2827:2838  _identifier */\n      dup8\n        /* \"DID.sol\":2819:2839  userApp[_identifier] */\n      mload(0x40)\n      tag_254\n      swap2\n      swap1\n      tag_89\n      jump\t// in\n    tag_254:\n      swap1\n      dup2\n      mstore\n      0x20\n      add\n      mload(0x40)\n      dup1\n      swap2\n      sub\n      swap1\n      keccak256\n        /* \"DID.sol\":2840:2841  i */\n      dup3\n        /* \"DID.sol\":2819:2842  userApp[_identifier][i] */\n      dup2\n      sload\n      dup2\n      lt\n      tag_255\n      jumpi\n      tag_256\n      tag_97\n      jump\t// in\n    tag_256:\n    tag_255:\n      swap1\n      0x00\n      mstore\n      keccak256(0x00, 0x20)\n      swap1\n      0x02\n      mul\n      add\n        /* \"DID.sol\":2819:2846  userApp[_identifier][i].app */\n      0x00\n      add\n        /* \"DID.sol\":2802:2847  abi.encodePacked(userApp[_identifier][i].app) */\n      add(0x20, mload(0x40))\n      tag_258\n      swap2\n      swap1\n      tag_100\n      jump\t// in\n    tag_258:\n      mload(0x40)\n      0x20\n      dup2\n      dup4\n      sub\n      sub\n      dup2\n      mstore\n      swap1\n      0x40\n      mstore\n        /* \"DID.sol\":2792:2848  keccak256(abi.encodePacked(userApp[_identifier][i].app)) */\n      dup1\n      mload\n      swap1\n      0x20\n      add\n      keccak256\n        /* \"DID.sol\":2792:2859  keccak256(abi.encodePacked(userApp[_identifier][i].app)) == compare */\n      sub\n        /* \"DID.sol\":2788:2982  if (keccak256(abi.encodePacked(userApp[_identifier][i].app)) == compare ) {... */\n      tag_259\n      jumpi\n        /* \"DID.sol\":2961:2967  _point */\n      dup4\n        /* \"DID.sol\":2929:2936  userApp */\n      0x02\n        /* \"DID.sol\":2937:2948  _identifier */\n      dup8\n        /* \"DID.sol\":2929:2949  userApp[_identifier] */\n      mload(0x40)\n      tag_260\n      swap2\n      swap1\n      tag_89\n      jump\t// in\n    tag_260:\n      swap1\n      dup2\n      mstore\n      0x20\n      add\n      mload(0x40)\n      dup1\n      swap2\n      sub\n      swap1\n      keccak256\n        /* \"DID.sol\":2950:2951  i */\n      dup3\n        /* \"DID.sol\":2929:2952  userApp[_identifier][i] */\n      dup2\n      sload\n      dup2\n      lt\n      tag_261\n      jumpi\n      tag_262\n      tag_97\n      jump\t// in\n    tag_262:\n    tag_261:\n      swap1\n      0x00\n      mstore\n      keccak256(0x00, 0x20)\n      swap1\n      0x02\n      mul\n      add\n        /* \"DID.sol\":2929:2958  userApp[_identifier][i].point */\n      0x01\n      add\n      sload\n        /* \"DID.sol\":2929:2967  userApp[_identifier][i].point - _point */\n      tag_264\n      swap2\n      swap1\n      tag_265\n      jump\t// in\n    tag_264:\n        /* \"DID.sol\":2897:2904  userApp */\n      0x02\n        /* \"DID.sol\":2905:2916  _identifier */\n      dup8\n        /* \"DID.sol\":2897:2917  userApp[_identifier] */\n      mload(0x40)\n      tag_266\n      swap2\n      swap1\n      tag_89\n      jump\t// in\n    tag_266:\n      swap1\n      dup2\n      mstore\n      0x20\n      add\n      mload(0x40)\n      dup1\n      swap2\n      sub\n      swap1\n      keccak256\n        /* \"DID.sol\":2918:2919  i */\n      dup3\n        /* \"DID.sol\":2897:2920  userApp[_identifier][i] */\n      dup2\n      sload\n      dup2\n      lt\n      tag_267\n      jumpi\n      tag_268\n      tag_97\n      jump\t// in\n    tag_268:\n    tag_267:\n      swap1\n      0x00\n      mstore\n      keccak256(0x00, 0x20)\n      swap1\n      0x02\n      mul\n      add\n        /* \"DID.sol\":2897:2926  userApp[_identifier][i].point */\n      0x01\n      add\n        /* \"DID.sol\":2897:2967  userApp[_identifier][i].point = userApp[_identifier][i].point - _point */\n      dup2\n      swap1\n      sstore\n      pop\n        /* \"DID.sol\":2788:2982  if (keccak256(abi.encodePacked(userApp[_identifier][i].app)) == compare ) {... */\n    tag_259:\n        /* \"DID.sol\":2769:2772  i++ */\n      dup1\n      dup1\n      tag_270\n      swap1\n      tag_107\n      jump\t// in\n    tag_270:\n      swap2\n      pop\n      pop\n        /* \"DID.sol\":2740:2992  for (uint i = 0; i < length; i++) {... */\n      jump(tag_251)\n    tag_252:\n      pop\n        /* \"DID.sol\":2567:2998  {... */\n      pop\n      pop\n        /* \"DID.sol\":2458:2998  function subtractPoint(string memory _identifier, string memory _app, uint _point) public override onlyOwner {... */\n      pop\n      pop\n      pop\n      jump\t// out\n        /* \"openzeppelin-solidity/contracts/access/Ownable.sol\":1918:2116  function transferOwnership(address newOwner) public virtual onlyOwner {... */\n    tag_71:\n        /* \"openzeppelin-solidity/contracts/access/Ownable.sol\":1259:1271  _msgSender() */\n      tag_272\n        /* \"openzeppelin-solidity/contracts/access/Ownable.sol\":1259:1269  _msgSender */\n      tag_79\n        /* \"openzeppelin-solidity/contracts/access/Ownable.sol\":1259:1271  _msgSender() */\n      jump\t// in\n    tag_272:\n        /* \"openzeppelin-solidity/contracts/access/Ownable.sol\":1248:1271  owner() == _msgSender() */\n      0xffffffffffffffffffffffffffffffffffffffff\n      and\n        /* \"openzeppelin-solidity/contracts/access/Ownable.sol\":1248:1255  owner() */\n      tag_273\n        /* \"openzeppelin-solidity/contracts/access/Ownable.sol\":1248:1253  owner */\n      tag_43\n        /* \"openzeppelin-solidity/contracts/access/Ownable.sol\":1248:1255  owner() */\n      jump\t// in\n    tag_273:\n        /* \"openzeppelin-solidity/contracts/access/Ownable.sol\":1248:1271  owner() == _msgSender() */\n      0xffffffffffffffffffffffffffffffffffffffff\n      and\n      eq\n        /* \"openzeppelin-solidity/contracts/access/Ownable.sol\":1240:1308  require(owner() == _msgSender(), \"Ownable: caller is not the owner\") */\n      tag_274\n      jumpi\n      mload(0x40)\n      0x08c379a000000000000000000000000000000000000000000000000000000000\n      dup2\n      mstore\n      0x04\n      add\n      tag_275\n      swap1\n      tag_83\n      jump\t// in\n    tag_275:\n      mload(0x40)\n      dup1\n      swap2\n      sub\n      swap1\n      revert\n    tag_274:\n        /* \"openzeppelin-solidity/contracts/access/Ownable.sol\":2026:2027  0 */\n      0x00\n        /* \"openzeppelin-solidity/contracts/access/Ownable.sol\":2006:2028  newOwner != address(0) */\n      0xffffffffffffffffffffffffffffffffffffffff\n      and\n        /* \"openzeppelin-solidity/contracts/access/Ownable.sol\":2006:2014  newOwner */\n      dup2\n        /* \"openzeppelin-solidity/contracts/access/Ownable.sol\":2006:2028  newOwner != address(0) */\n      0xffffffffffffffffffffffffffffffffffffffff\n      and\n      sub\n        /* \"openzeppelin-solidity/contracts/access/Ownable.sol\":1998:2071  require(newOwner != address(0), \"Ownable: new owner is the zero address\") */\n      tag_277\n      jumpi\n      mload(0x40)\n      0x08c379a000000000000000000000000000000000000000000000000000000000\n      dup2\n      mstore\n      0x04\n      add\n      tag_278\n      swap1\n      tag_279\n      jump\t// in\n    tag_278:\n      mload(0x40)\n      dup1\n      swap2\n      sub\n      swap1\n      revert\n    tag_277:\n        /* \"openzeppelin-solidity/contracts/access/Ownable.sol\":2081:2109  _transferOwnership(newOwner) */\n      tag_280\n        /* \"openzeppelin-solidity/contracts/access/Ownable.sol\":2100:2108  newOwner */\n      dup2\n        /* \"openzeppelin-solidity/contracts/access/Ownable.sol\":2081:2099  _transferOwnership */\n      tag_141\n        /* \"openzeppelin-solidity/contracts/access/Ownable.sol\":2081:2109  _transferOwnership(newOwner) */\n      jump\t// in\n    tag_280:\n        /* \"openzeppelin-solidity/contracts/access/Ownable.sol\":1918:2116  function transferOwnership(address newOwner) public virtual onlyOwner {... */\n      pop\n      jump\t// out\n        /* \"DID.sol\":208:247  mapping(string => UserInfo) public user */\n    tag_74:\n      0x01\n      dup2\n      dup1\n      mload\n      0x20\n      dup2\n      add\n      dup3\n      add\n      dup1\n      mload\n      dup5\n      dup3\n      mstore\n      0x20\n      dup4\n      add\n      0x20\n      dup6\n      add\n      keccak256\n      dup2\n      dup4\n      mstore\n      dup1\n      swap6\n      pop\n      pop\n      pop\n      pop\n      pop\n      pop\n      0x00\n      swap2\n      pop\n      swap1\n      pop\n      dup1\n      0x00\n      add\n      dup1\n      sload\n      tag_281\n      swap1\n      tag_184\n      jump\t// in\n    tag_281:\n      dup1\n      0x1f\n      add\n      0x20\n      dup1\n      swap2\n      div\n      mul\n      0x20\n      add\n      mload(0x40)\n      swap1\n      dup2\n      add\n      0x40\n      mstore\n      dup1\n      swap3\n      swap2\n      swap1\n      dup2\n      dup2\n      mstore\n      0x20\n      add\n      dup3\n      dup1\n      sload\n      tag_282\n      swap1\n      tag_184\n      jump\t// in\n    tag_282:\n      dup1\n      iszero\n      tag_283\n      jumpi\n      dup1\n      0x1f\n      lt\n      tag_284\n      jumpi\n      0x0100\n      dup1\n      dup4\n      sload\n      div\n      mul\n      dup4\n      mstore\n      swap2\n      0x20\n      add\n      swap2\n      jump(tag_283)\n    tag_284:\n      dup3\n      add\n      swap2\n      swap1\n      0x00\n      mstore\n      keccak256(0x00, 0x20)\n      swap1\n    tag_285:\n      dup2\n      sload\n      dup2\n      mstore\n      swap1\n      0x01\n      add\n      swap1\n      0x20\n      add\n      dup1\n      dup4\n      gt\n      tag_285\n      jumpi\n      dup3\n      swap1\n      sub\n      0x1f\n      and\n      dup3\n      add\n      swap2\n    tag_283:\n      pop\n      pop\n      pop\n      pop\n      pop\n      swap1\n      dup1\n      0x01\n      add\n      dup1\n      sload\n      tag_286\n      swap1\n      tag_184\n      jump\t// in\n    tag_286:\n      dup1\n      0x1f\n      add\n      0x20\n      dup1\n      swap2\n      div\n      mul\n      0x20\n      add\n      mload(0x40)\n      swap1\n      dup2\n      add\n      0x40\n      mstore\n      dup1\n      swap3\n      swap2\n      swap1\n      dup2\n      dup2\n      mstore\n      0x20\n      add\n      dup3\n      dup1\n      sload\n      tag_287\n      swap1\n      tag_184\n      jump\t// in\n    tag_287:\n      dup1\n      iszero\n      tag_288\n      jumpi\n      dup1\n      0x1f\n      lt\n      tag_289\n      jumpi\n      0x0100\n      dup1\n      dup4\n      sload\n      div\n      mul\n      dup4\n      mstore\n      swap2\n      0x20\n      add\n      swap2\n      jump(tag_288)\n    tag_289:\n      dup3\n      add\n      swap2\n      swap1\n      0x00\n      mstore\n      keccak256(0x00, 0x20)\n      swap1\n    tag_290:\n      dup2\n      sload\n      dup2\n      mstore\n      swap1\n      0x01\n      add\n      swap1\n      0x20\n      add\n      dup1\n      dup4\n      gt\n      tag_290\n      jumpi\n      dup3\n      swap1\n      sub\n      0x1f\n      and\n      dup3\n      add\n      swap2\n    tag_288:\n      pop\n      pop\n      pop\n      pop\n      pop\n      swap1\n      dup1\n      0x02\n      add\n      dup1\n      sload\n      tag_291\n      swap1\n      tag_184\n      jump\t// in\n    tag_291:\n      dup1\n      0x1f\n      add\n      0x20\n      dup1\n      swap2\n      div\n      mul\n      0x20\n      add\n      mload(0x40)\n      swap1\n      dup2\n      add\n      0x40\n      mstore\n      dup1\n      swap3\n      swap2\n      swap1\n      dup2\n      dup2\n      mstore\n      0x20\n      add\n      dup3\n      dup1\n      sload\n      tag_292\n      swap1\n      tag_184\n      jump\t// in\n    tag_292:\n      dup1\n      iszero\n      tag_293\n      jumpi\n      dup1\n      0x1f\n      lt\n      tag_294\n      jumpi\n      0x0100\n      dup1\n      dup4\n      sload\n      div\n      mul\n      dup4\n      mstore\n      swap2\n      0x20\n      add\n      swap2\n      jump(tag_293)\n    tag_294:\n      dup3\n      add\n      swap2\n      swap1\n      0x00\n      mstore\n      keccak256(0x00, 0x20)\n      swap1\n    tag_295:\n      dup2\n      sload\n      dup2\n      mstore\n      swap1\n      0x01\n      add\n      swap1\n      0x20\n      add\n      dup1\n      dup4\n      gt\n      tag_295\n      jumpi\n      dup3\n      swap1\n      sub\n      0x1f\n      and\n      dup3\n      add\n      swap2\n    tag_293:\n      pop\n      pop\n      pop\n      pop\n      pop\n      swap1\n      dup1\n      0x03\n      add\n      dup1\n      sload\n      tag_296\n      swap1\n      tag_184\n      jump\t// in\n    tag_296:\n      dup1\n      0x1f\n      add\n      0x20\n      dup1\n      swap2\n      div\n      mul\n      0x20\n      add\n      mload(0x40)\n      swap1\n      dup2\n      add\n      0x40\n      mstore\n      dup1\n      swap3\n      swap2\n      swap1\n      dup2\n      dup2\n      mstore\n      0x20\n      add\n      dup3\n      dup1\n      sload\n      tag_297\n      swap1\n      tag_184\n      jump\t// in\n    tag_297:\n      dup1\n      iszero\n      tag_298\n      jumpi\n      dup1\n      0x1f\n      lt\n      tag_299\n      jumpi\n      0x0100\n      dup1\n      dup4\n      sload\n      div\n      mul\n      dup4\n      mstore\n      swap2\n      0x20\n      add\n      swap2\n      jump(tag_298)\n    tag_299:\n      dup3\n      add\n      swap2\n      swap1\n      0x00\n      mstore\n      keccak256(0x00, 0x20)\n      swap1\n    tag_300:\n      dup2\n      sload\n      dup2\n      mstore\n      swap1\n      0x01\n      add\n      swap1\n      0x20\n      add\n      dup1\n      dup4\n      gt\n      tag_300\n      jumpi\n      dup3\n      swap1\n      sub\n      0x1f\n      and\n      dup3\n      add\n      swap2\n    tag_298:\n      pop\n      pop\n      pop\n      pop\n      pop\n      swap1\n      pop\n      dup5\n      jump\t// out\n        /* \"openzeppelin-solidity/contracts/utils/Context.sol\":640:736  function _msgSender() internal view virtual returns (address) {... */\n    tag_79:\n        /* \"openzeppelin-solidity/contracts/utils/Context.sol\":693:700  address */\n      0x00\n        /* \"openzeppelin-solidity/contracts/utils/Context.sol\":719:729  msg.sender */\n      caller\n        /* \"openzeppelin-solidity/contracts/utils/Context.sol\":712:729  return msg.sender */\n      swap1\n      pop\n        /* \"openzeppelin-solidity/contracts/utils/Context.sol\":640:736  function _msgSender() internal view virtual returns (address) {... */\n      swap1\n      jump\t// out\n        /* \"DID.sol\":3863:4306  function findUserApp (string memory _identifier, string memory _app) private view returns (bool) {... */\n    tag_86:\n        /* \"DID.sol\":3954:3958  bool */\n      0x00\n        /* \"DID.sol\":3971:3982  uint length */\n      dup1\n        /* \"DID.sol\":3985:3992  userApp */\n      0x02\n        /* \"DID.sol\":3993:4004  _identifier */\n      dup5\n        /* \"DID.sol\":3985:4005  userApp[_identifier] */\n      mload(0x40)\n      tag_303\n      swap2\n      swap1\n      tag_89\n      jump\t// in\n    tag_303:\n      swap1\n      dup2\n      mstore\n      0x20\n      add\n      mload(0x40)\n      dup1\n      swap2\n      sub\n      swap1\n      keccak256\n        /* \"DID.sol\":3985:4012  userApp[_identifier].length */\n      dup1\n      sload\n      swap1\n      pop\n        /* \"DID.sol\":3971:4012  uint length = userApp[_identifier].length */\n      swap1\n      pop\n        /* \"DID.sol\":4022:4037  bytes32 compare */\n      0x00\n        /* \"DID.sol\":4067:4071  _app */\n      dup4\n        /* \"DID.sol\":4050:4072  abi.encodePacked(_app) */\n      add(0x20, mload(0x40))\n      tag_304\n      swap2\n      swap1\n      tag_89\n      jump\t// in\n    tag_304:\n      mload(0x40)\n      0x20\n      dup2\n      dup4\n      sub\n      sub\n      dup2\n      mstore\n      swap1\n      0x40\n      mstore\n        /* \"DID.sol\":4040:4073  keccak256(abi.encodePacked(_app)) */\n      dup1\n      mload\n      swap1\n      0x20\n      add\n      keccak256\n        /* \"DID.sol\":4022:4073  bytes32 compare = keccak256(abi.encodePacked(_app)) */\n      swap1\n      pop\n        /* \"DID.sol\":4089:4095  uint i */\n      0x00\n        /* \"DID.sol\":4084:4277  for (uint i = 0; i < length; i++) {... */\n    tag_305:\n        /* \"DID.sol\":4105:4111  length */\n      dup3\n        /* \"DID.sol\":4101:4102  i */\n      dup2\n        /* \"DID.sol\":4101:4111  i < length */\n      lt\n        /* \"DID.sol\":4084:4277  for (uint i = 0; i < length; i++) {... */\n      iszero\n      tag_306\n      jumpi\n        /* \"DID.sol\":4196:4203  compare */\n      dup2\n        /* \"DID.sol\":4163:4170  userApp */\n      0x02\n        /* \"DID.sol\":4171:4182  _identifier */\n      dup8\n        /* \"DID.sol\":4163:4183  userApp[_identifier] */\n      mload(0x40)\n      tag_308\n      swap2\n      swap1\n      tag_89\n      jump\t// in\n    tag_308:\n      swap1\n      dup2\n      mstore\n      0x20\n      add\n      mload(0x40)\n      dup1\n      swap2\n      sub\n      swap1\n      keccak256\n        /* \"DID.sol\":4184:4185  i */\n      dup3\n        /* \"DID.sol\":4163:4186  userApp[_identifier][i] */\n      dup2\n      sload\n      dup2\n      lt\n      tag_309\n      jumpi\n      tag_310\n      tag_97\n      jump\t// in\n    tag_310:\n    tag_309:\n      swap1\n      0x00\n      mstore\n      keccak256(0x00, 0x20)\n      swap1\n      0x02\n      mul\n      add\n        /* \"DID.sol\":4163:4190  userApp[_identifier][i].app */\n      0x00\n      add\n        /* \"DID.sol\":4146:4191  abi.encodePacked(userApp[_identifier][i].app) */\n      add(0x20, mload(0x40))\n      tag_312\n      swap2\n      swap1\n      tag_100\n      jump\t// in\n    tag_312:\n      mload(0x40)\n      0x20\n      dup2\n      dup4\n      sub\n      sub\n      dup2\n      mstore\n      swap1\n      0x40\n      mstore\n        /* \"DID.sol\":4136:4192  keccak256(abi.encodePacked(userApp[_identifier][i].app)) */\n      dup1\n      mload\n      swap1\n      0x20\n      add\n      keccak256\n        /* \"DID.sol\":4136:4203  keccak256(abi.encodePacked(userApp[_identifier][i].app)) == compare */\n      sub\n        /* \"DID.sol\":4132:4267  if (keccak256(abi.encodePacked(userApp[_identifier][i].app)) == compare ) {... */\n      tag_313\n      jumpi\n        /* \"DID.sol\":4248:4252  true */\n      0x01\n        /* \"DID.sol\":4241:4252  return true */\n      swap4\n      pop\n      pop\n      pop\n      pop\n      jump(tag_302)\n        /* \"DID.sol\":4132:4267  if (keccak256(abi.encodePacked(userApp[_identifier][i].app)) == compare ) {... */\n    tag_313:\n        /* \"DID.sol\":4113:4116  i++ */\n      dup1\n      dup1\n      tag_314\n      swap1\n      tag_107\n      jump\t// in\n    tag_314:\n      swap2\n      pop\n      pop\n        /* \"DID.sol\":4084:4277  for (uint i = 0; i < length; i++) {... */\n      jump(tag_305)\n    tag_306:\n      pop\n        /* \"DID.sol\":4294:4299  false */\n      0x00\n        /* \"DID.sol\":4287:4299  return false */\n      swap3\n      pop\n      pop\n      pop\n        /* \"DID.sol\":3863:4306  function findUserApp (string memory _identifier, string memory _app) private view returns (bool) {... */\n    tag_302:\n      swap3\n      swap2\n      pop\n      pop\n      jump\t// out\n        /* \"openzeppelin-solidity/contracts/access/Ownable.sol\":2270:2457  function _transferOwnership(address newOwner) internal virtual {... */\n    tag_141:\n        /* \"openzeppelin-solidity/contracts/access/Ownable.sol\":2343:2359  address oldOwner */\n      0x00\n        /* \"openzeppelin-solidity/contracts/access/Ownable.sol\":2362:2368  _owner */\n      dup1\n      0x00\n      swap1\n      sload\n      swap1\n      0x0100\n      exp\n      swap1\n      div\n      0xffffffffffffffffffffffffffffffffffffffff\n      and\n        /* \"openzeppelin-solidity/contracts/access/Ownable.sol\":2343:2368  address oldOwner = _owner */\n      swap1\n      pop\n        /* \"openzeppelin-solidity/contracts/access/Ownable.sol\":2387:2395  newOwner */\n      dup2\n        /* \"openzeppelin-solidity/contracts/access/Ownable.sol\":2378:2384  _owner */\n      0x00\n      dup1\n        /* \"openzeppelin-solidity/contracts/access/Ownable.sol\":2378:2395  _owner = newOwner */\n      0x0100\n      exp\n      dup2\n      sload\n      dup2\n      0xffffffffffffffffffffffffffffffffffffffff\n      mul\n      not\n      and\n      swap1\n      dup4\n      0xffffffffffffffffffffffffffffffffffffffff\n      and\n      mul\n      or\n      swap1\n      sstore\n      pop\n        /* \"openzeppelin-solidity/contracts/access/Ownable.sol\":2441:2449  newOwner */\n      dup2\n        /* \"openzeppelin-solidity/contracts/access/Ownable.sol\":2410:2450  OwnershipTransferred(oldOwner, newOwner) */\n      0xffffffffffffffffffffffffffffffffffffffff\n      and\n        /* \"openzeppelin-solidity/contracts/access/Ownable.sol\":2431:2439  oldOwner */\n      dup2\n        /* \"openzeppelin-solidity/contracts/access/Ownable.sol\":2410:2450  OwnershipTransferred(oldOwner, newOwner) */\n      0xffffffffffffffffffffffffffffffffffffffff\n      and\n      0x8be0079c531659141344cd1fd0a4f28419497f9722a3daafe3b4186f6b6457e0\n      mload(0x40)\n      mload(0x40)\n      dup1\n      swap2\n      sub\n      swap1\n      log3\n        /* \"openzeppelin-solidity/contracts/access/Ownable.sol\":2333:2457  {... */\n      pop\n        /* \"openzeppelin-solidity/contracts/access/Ownable.sol\":2270:2457  function _transferOwnership(address newOwner) internal virtual {... */\n      pop\n      jump\t// out\n    tag_116:\n      mload(0x40)\n      dup1\n      0x80\n      add\n      0x40\n      mstore\n      dup1\n      0x60\n      dup2\n      mstore\n      0x20\n      add\n      0x60\n      dup2\n      mstore\n      0x20\n      add\n      0x60\n      dup2\n      mstore\n      0x20\n      add\n      0x60\n      dup2\n      mstore\n      pop\n      swap1\n      jump\t// out\n    tag_130:\n      mload(0x40)\n      dup1\n      0x40\n      add\n      0x40\n      mstore\n      dup1\n      0x60\n      dup2\n      mstore\n      0x20\n      add\n      0x00\n      dup2\n      mstore\n      pop\n      swap1\n      jump\t// out\n    tag_179:\n      pop\n      dup1\n      sload\n      tag_316\n      swap1\n      tag_184\n      jump\t// in\n    tag_316:\n      0x00\n      dup3\n      sstore\n      dup1\n      0x1f\n      lt\n      tag_318\n      jumpi\n      pop\n      jump(tag_317)\n    tag_318:\n      0x1f\n      add\n      0x20\n      swap1\n      div\n      swap1\n      0x00\n      mstore\n      keccak256(0x00, 0x20)\n      swap1\n      dup2\n      add\n      swap1\n      tag_319\n      swap2\n      swap1\n      tag_320\n      jump\t// in\n    tag_319:\n    tag_317:\n      pop\n      jump\t// out\n    tag_320:\n    tag_321:\n      dup1\n      dup3\n      gt\n      iszero\n      tag_322\n      jumpi\n      0x00\n      dup2\n      0x00\n      swap1\n      sstore\n      pop\n      0x01\n      add\n      jump(tag_321)\n    tag_322:\n      pop\n      swap1\n      jump\t// out\n        /* \"#utility.yul\":7:82   */\n    tag_323:\n        /* \"#utility.yul\":40:46   */\n      0x00\n        /* \"#utility.yul\":73:75   */\n      0x40\n        /* \"#utility.yul\":67:76   */\n      mload\n        /* \"#utility.yul\":57:76   */\n      swap1\n      pop\n        /* \"#utility.yul\":7:82   */\n      swap1\n      jump\t// out\n        /* \"#utility.yul\":88:205   */\n    tag_324:\n        /* \"#utility.yul\":197:198   */\n      0x00\n        /* \"#utility.yul\":194:195   */\n      dup1\n        /* \"#utility.yul\":187:199   */\n      revert\n        /* \"#utility.yul\":211:328   */\n    tag_325:\n        /* \"#utility.yul\":320:321   */\n      0x00\n        /* \"#utility.yul\":317:318   */\n      dup1\n        /* \"#utility.yul\":310:322   */\n      revert\n        /* \"#utility.yul\":334:451   */\n    tag_326:\n        /* \"#utility.yul\":443:444   */\n      0x00\n        /* \"#utility.yul\":440:441   */\n      dup1\n        /* \"#utility.yul\":433:445   */\n      revert\n        /* \"#utility.yul\":457:574   */\n    tag_327:\n        /* \"#utility.yul\":566:567   */\n      0x00\n        /* \"#utility.yul\":563:564   */\n      dup1\n        /* \"#utility.yul\":556:568   */\n      revert\n        /* \"#utility.yul\":580:682   */\n    tag_328:\n        /* \"#utility.yul\":621:627   */\n      0x00\n        /* \"#utility.yul\":672:674   */\n      0x1f\n        /* \"#utility.yul\":668:675   */\n      not\n        /* \"#utility.yul\":663:665   */\n      0x1f\n        /* \"#utility.yul\":656:661   */\n      dup4\n        /* \"#utility.yul\":652:666   */\n      add\n        /* \"#utility.yul\":648:676   */\n      and\n        /* \"#utility.yul\":638:676   */\n      swap1\n      pop\n        /* \"#utility.yul\":580:682   */\n      swap2\n      swap1\n      pop\n      jump\t// out\n        /* \"#utility.yul\":688:868   */\n    tag_329:\n        /* \"#utility.yul\":736:813   */\n      0x4e487b7100000000000000000000000000000000000000000000000000000000\n        /* \"#utility.yul\":733:734   */\n      0x00\n        /* \"#utility.yul\":726:814   */\n      mstore\n        /* \"#utility.yul\":833:837   */\n      0x41\n        /* \"#utility.yul\":830:831   */\n      0x04\n        /* \"#utility.yul\":823:838   */\n      mstore\n        /* \"#utility.yul\":857:861   */\n      0x24\n        /* \"#utility.yul\":854:855   */\n      0x00\n        /* \"#utility.yul\":847:862   */\n      revert\n        /* \"#utility.yul\":874:1155   */\n    tag_330:\n        /* \"#utility.yul\":957:984   */\n      tag_395\n        /* \"#utility.yul\":979:983   */\n      dup3\n        /* \"#utility.yul\":957:984   */\n      tag_328\n      jump\t// in\n    tag_395:\n        /* \"#utility.yul\":949:955   */\n      dup2\n        /* \"#utility.yul\":945:985   */\n      add\n        /* \"#utility.yul\":1087:1093   */\n      dup2\n        /* \"#utility.yul\":1075:1085   */\n      dup2\n        /* \"#utility.yul\":1072:1094   */\n      lt\n        /* \"#utility.yul\":1051:1069   */\n      0xffffffffffffffff\n        /* \"#utility.yul\":1039:1049   */\n      dup3\n        /* \"#utility.yul\":1036:1070   */\n      gt\n        /* \"#utility.yul\":1033:1095   */\n      or\n        /* \"#utility.yul\":1030:1118   */\n      iszero\n      tag_396\n      jumpi\n        /* \"#utility.yul\":1098:1116   */\n      tag_397\n      tag_329\n      jump\t// in\n    tag_397:\n        /* \"#utility.yul\":1030:1118   */\n    tag_396:\n        /* \"#utility.yul\":1138:1148   */\n      dup1\n        /* \"#utility.yul\":1134:1136   */\n      0x40\n        /* \"#utility.yul\":1127:1149   */\n      mstore\n        /* \"#utility.yul\":917:1155   */\n      pop\n        /* \"#utility.yul\":874:1155   */\n      pop\n      pop\n      jump\t// out\n        /* \"#utility.yul\":1161:1290   */\n    tag_331:\n        /* \"#utility.yul\":1195:1201   */\n      0x00\n        /* \"#utility.yul\":1222:1242   */\n      tag_399\n      tag_323\n      jump\t// in\n    tag_399:\n        /* \"#utility.yul\":1212:1242   */\n      swap1\n      pop\n        /* \"#utility.yul\":1251:1284   */\n      tag_400\n        /* \"#utility.yul\":1279:1283   */\n      dup3\n        /* \"#utility.yul\":1271:1277   */\n      dup3\n        /* \"#utility.yul\":1251:1284   */\n      tag_330\n      jump\t// in\n    tag_400:\n        /* \"#utility.yul\":1161:1290   */\n      swap2\n      swap1\n      pop\n      jump\t// out\n        /* \"#utility.yul\":1296:1604   */\n    tag_332:\n        /* \"#utility.yul\":1358:1362   */\n      0x00\n        /* \"#utility.yul\":1448:1466   */\n      0xffffffffffffffff\n        /* \"#utility.yul\":1440:1446   */\n      dup3\n        /* \"#utility.yul\":1437:1467   */\n      gt\n        /* \"#utility.yul\":1434:1490   */\n      iszero\n      tag_402\n      jumpi\n        /* \"#utility.yul\":1470:1488   */\n      tag_403\n      tag_329\n      jump\t// in\n    tag_403:\n        /* \"#utility.yul\":1434:1490   */\n    tag_402:\n        /* \"#utility.yul\":1508:1537   */\n      tag_404\n        /* \"#utility.yul\":1530:1536   */\n      dup3\n        /* \"#utility.yul\":1508:1537   */\n      tag_328\n      jump\t// in\n    tag_404:\n        /* \"#utility.yul\":1500:1537   */\n      swap1\n      pop\n        /* \"#utility.yul\":1592:1596   */\n      0x20\n        /* \"#utility.yul\":1586:1590   */\n      dup2\n        /* \"#utility.yul\":1582:1597   */\n      add\n        /* \"#utility.yul\":1574:1597   */\n      swap1\n      pop\n        /* \"#utility.yul\":1296:1604   */\n      swap2\n      swap1\n      pop\n      jump\t// out\n        /* \"#utility.yul\":1610:1764   */\n    tag_333:\n        /* \"#utility.yul\":1694:1700   */\n      dup3\n        /* \"#utility.yul\":1689:1692   */\n      dup2\n        /* \"#utility.yul\":1684:1687   */\n      dup4\n        /* \"#utility.yul\":1671:1701   */\n      calldatacopy\n        /* \"#utility.yul\":1756:1757   */\n      0x00\n        /* \"#utility.yul\":1747:1753   */\n      dup4\n        /* \"#utility.yul\":1742:1745   */\n      dup4\n        /* \"#utility.yul\":1738:1754   */\n      add\n        /* \"#utility.yul\":1731:1758   */\n      mstore\n        /* \"#utility.yul\":1610:1764   */\n      pop\n      pop\n      pop\n      jump\t// out\n        /* \"#utility.yul\":1770:2182   */\n    tag_334:\n        /* \"#utility.yul\":1848:1853   */\n      0x00\n        /* \"#utility.yul\":1873:1939   */\n      tag_407\n        /* \"#utility.yul\":1889:1938   */\n      tag_408\n        /* \"#utility.yul\":1931:1937   */\n      dup5\n        /* \"#utility.yul\":1889:1938   */\n      tag_332\n      jump\t// in\n    tag_408:\n        /* \"#utility.yul\":1873:1939   */\n      tag_331\n      jump\t// in\n    tag_407:\n        /* \"#utility.yul\":1864:1939   */\n      swap1\n      pop\n        /* \"#utility.yul\":1962:1968   */\n      dup3\n        /* \"#utility.yul\":1955:1960   */\n      dup2\n        /* \"#utility.yul\":1948:1969   */\n      mstore\n        /* \"#utility.yul\":2000:2004   */\n      0x20\n        /* \"#utility.yul\":1993:1998   */\n      dup2\n        /* \"#utility.yul\":1989:2005   */\n      add\n        /* \"#utility.yul\":2038:2041   */\n      dup5\n        /* \"#utility.yul\":2029:2035   */\n      dup5\n        /* \"#utility.yul\":2024:2027   */\n      dup5\n        /* \"#utility.yul\":2020:2036   */\n      add\n        /* \"#utility.yul\":2017:2042   */\n      gt\n        /* \"#utility.yul\":2014:2126   */\n      iszero\n      tag_409\n      jumpi\n        /* \"#utility.yul\":2045:2124   */\n      tag_410\n      tag_327\n      jump\t// in\n    tag_410:\n        /* \"#utility.yul\":2014:2126   */\n    tag_409:\n        /* \"#utility.yul\":2135:2176   */\n      tag_411\n        /* \"#utility.yul\":2169:2175   */\n      dup5\n        /* \"#utility.yul\":2164:2167   */\n      dup3\n        /* \"#utility.yul\":2159:2162   */\n      dup6\n        /* \"#utility.yul\":2135:2176   */\n      tag_333\n      jump\t// in\n    tag_411:\n        /* \"#utility.yul\":1854:2182   */\n      pop\n        /* \"#utility.yul\":1770:2182   */\n      swap4\n      swap3\n      pop\n      pop\n      pop\n      jump\t// out\n        /* \"#utility.yul\":2202:2542   */\n    tag_335:\n        /* \"#utility.yul\":2258:2263   */\n      0x00\n        /* \"#utility.yul\":2307:2310   */\n      dup3\n        /* \"#utility.yul\":2300:2304   */\n      0x1f\n        /* \"#utility.yul\":2292:2298   */\n      dup4\n        /* \"#utility.yul\":2288:2305   */\n      add\n        /* \"#utility.yul\":2284:2311   */\n      slt\n        /* \"#utility.yul\":2274:2396   */\n      tag_413\n      jumpi\n        /* \"#utility.yul\":2315:2394   */\n      tag_414\n      tag_326\n      jump\t// in\n    tag_414:\n        /* \"#utility.yul\":2274:2396   */\n    tag_413:\n        /* \"#utility.yul\":2432:2438   */\n      dup2\n        /* \"#utility.yul\":2419:2439   */\n      calldataload\n        /* \"#utility.yul\":2457:2536   */\n      tag_415\n        /* \"#utility.yul\":2532:2535   */\n      dup5\n        /* \"#utility.yul\":2524:2530   */\n      dup3\n        /* \"#utility.yul\":2517:2521   */\n      0x20\n        /* \"#utility.yul\":2509:2515   */\n      dup7\n        /* \"#utility.yul\":2505:2522   */\n      add\n        /* \"#utility.yul\":2457:2536   */\n      tag_334\n      jump\t// in\n    tag_415:\n        /* \"#utility.yul\":2448:2536   */\n      swap2\n      pop\n        /* \"#utility.yul\":2264:2542   */\n      pop\n        /* \"#utility.yul\":2202:2542   */\n      swap3\n      swap2\n      pop\n      pop\n      jump\t// out\n        /* \"#utility.yul\":2548:3382   */\n    tag_22:\n        /* \"#utility.yul\":2636:2642   */\n      0x00\n        /* \"#utility.yul\":2644:2650   */\n      dup1\n        /* \"#utility.yul\":2693:2695   */\n      0x40\n        /* \"#utility.yul\":2681:2690   */\n      dup4\n        /* \"#utility.yul\":2672:2679   */\n      dup6\n        /* \"#utility.yul\":2668:2691   */\n      sub\n        /* \"#utility.yul\":2664:2696   */\n      slt\n        /* \"#utility.yul\":2661:2780   */\n      iszero\n      tag_417\n      jumpi\n        /* \"#utility.yul\":2699:2778   */\n      tag_418\n      tag_324\n      jump\t// in\n    tag_418:\n        /* \"#utility.yul\":2661:2780   */\n    tag_417:\n        /* \"#utility.yul\":2847:2848   */\n      0x00\n        /* \"#utility.yul\":2836:2845   */\n      dup4\n        /* \"#utility.yul\":2832:2849   */\n      add\n        /* \"#utility.yul\":2819:2850   */\n      calldataload\n        /* \"#utility.yul\":2877:2895   */\n      0xffffffffffffffff\n        /* \"#utility.yul\":2869:2875   */\n      dup2\n        /* \"#utility.yul\":2866:2896   */\n      gt\n        /* \"#utility.yul\":2863:2980   */\n      iszero\n      tag_419\n      jumpi\n        /* \"#utility.yul\":2899:2978   */\n      tag_420\n      tag_325\n      jump\t// in\n    tag_420:\n        /* \"#utility.yul\":2863:2980   */\n    tag_419:\n        /* \"#utility.yul\":3004:3067   */\n      tag_421\n        /* \"#utility.yul\":3059:3066   */\n      dup6\n        /* \"#utility.yul\":3050:3056   */\n      dup3\n        /* \"#utility.yul\":3039:3048   */\n      dup7\n        /* \"#utility.yul\":3035:3057   */\n      add\n        /* \"#utility.yul\":3004:3067   */\n      tag_335\n      jump\t// in\n    tag_421:\n        /* \"#utility.yul\":2994:3067   */\n      swap3\n      pop\n        /* \"#utility.yul\":2790:3077   */\n      pop\n        /* \"#utility.yul\":3144:3146   */\n      0x20\n        /* \"#utility.yul\":3133:3142   */\n      dup4\n        /* \"#utility.yul\":3129:3147   */\n      add\n        /* \"#utility.yul\":3116:3148   */\n      calldataload\n        /* \"#utility.yul\":3175:3193   */\n      0xffffffffffffffff\n        /* \"#utility.yul\":3167:3173   */\n      dup2\n        /* \"#utility.yul\":3164:3194   */\n      gt\n        /* \"#utility.yul\":3161:3278   */\n      iszero\n      tag_422\n      jumpi\n        /* \"#utility.yul\":3197:3276   */\n      tag_423\n      tag_325\n      jump\t// in\n    tag_423:\n        /* \"#utility.yul\":3161:3278   */\n    tag_422:\n        /* \"#utility.yul\":3302:3365   */\n      tag_424\n        /* \"#utility.yul\":3357:3364   */\n      dup6\n        /* \"#utility.yul\":3348:3354   */\n      dup3\n        /* \"#utility.yul\":3337:3346   */\n      dup7\n        /* \"#utility.yul\":3333:3355   */\n      add\n        /* \"#utility.yul\":3302:3365   */\n      tag_335\n      jump\t// in\n    tag_424:\n        /* \"#utility.yul\":3292:3365   */\n      swap2\n      pop\n        /* \"#utility.yul\":3087:3375   */\n      pop\n        /* \"#utility.yul\":2548:3382   */\n      swap3\n      pop\n      swap3\n      swap1\n      pop\n      jump\t// out\n        /* \"#utility.yul\":3388:3465   */\n    tag_336:\n        /* \"#utility.yul\":3425:3432   */\n      0x00\n        /* \"#utility.yul\":3454:3459   */\n      dup2\n        /* \"#utility.yul\":3443:3459   */\n      swap1\n      pop\n        /* \"#utility.yul\":3388:3465   */\n      swap2\n      swap1\n      pop\n      jump\t// out\n        /* \"#utility.yul\":3471:3589   */\n    tag_337:\n        /* \"#utility.yul\":3558:3582   */\n      tag_427\n        /* \"#utility.yul\":3576:3581   */\n      dup2\n        /* \"#utility.yul\":3558:3582   */\n      tag_336\n      jump\t// in\n    tag_427:\n        /* \"#utility.yul\":3553:3556   */\n      dup3\n        /* \"#utility.yul\":3546:3583   */\n      mstore\n        /* \"#utility.yul\":3471:3589   */\n      pop\n      pop\n      jump\t// out\n        /* \"#utility.yul\":3595:3817   */\n    tag_25:\n        /* \"#utility.yul\":3688:3692   */\n      0x00\n        /* \"#utility.yul\":3726:3728   */\n      0x20\n        /* \"#utility.yul\":3715:3724   */\n      dup3\n        /* \"#utility.yul\":3711:3729   */\n      add\n        /* \"#utility.yul\":3703:3729   */\n      swap1\n      pop\n        /* \"#utility.yul\":3739:3810   */\n      tag_429\n        /* \"#utility.yul\":3807:3808   */\n      0x00\n        /* \"#utility.yul\":3796:3805   */\n      dup4\n        /* \"#utility.yul\":3792:3809   */\n      add\n        /* \"#utility.yul\":3783:3789   */\n      dup5\n        /* \"#utility.yul\":3739:3810   */\n      tag_337\n      jump\t// in\n    tag_429:\n        /* \"#utility.yul\":3595:3817   */\n      swap3\n      swap2\n      pop\n      pop\n      jump\t// out\n        /* \"#utility.yul\":3823:3940   */\n    tag_338:\n        /* \"#utility.yul\":3932:3933   */\n      0x00\n        /* \"#utility.yul\":3929:3930   */\n      dup1\n        /* \"#utility.yul\":3922:3934   */\n      revert\n        /* \"#utility.yul\":3946:4063   */\n    tag_339:\n        /* \"#utility.yul\":4055:4056   */\n      0x00\n        /* \"#utility.yul\":4052:4053   */\n      dup1\n        /* \"#utility.yul\":4045:4057   */\n      revert\n        /* \"#utility.yul\":4097:5677   */\n    tag_340:\n        /* \"#utility.yul\":4171:4176   */\n      0x00\n        /* \"#utility.yul\":4215:4219   */\n      0x80\n        /* \"#utility.yul\":4203:4212   */\n      dup3\n        /* \"#utility.yul\":4198:4201   */\n      dup5\n        /* \"#utility.yul\":4194:4213   */\n      sub\n        /* \"#utility.yul\":4190:4220   */\n      slt\n        /* \"#utility.yul\":4187:4304   */\n      iszero\n      tag_433\n      jumpi\n        /* \"#utility.yul\":4223:4302   */\n      tag_434\n      tag_338\n      jump\t// in\n    tag_434:\n        /* \"#utility.yul\":4187:4304   */\n    tag_433:\n        /* \"#utility.yul\":4322:4343   */\n      tag_435\n        /* \"#utility.yul\":4338:4342   */\n      0x80\n        /* \"#utility.yul\":4322:4343   */\n      tag_331\n      jump\t// in\n    tag_435:\n        /* \"#utility.yul\":4313:4343   */\n      swap1\n      pop\n        /* \"#utility.yul\":4430:4431   */\n      0x00\n        /* \"#utility.yul\":4419:4428   */\n      dup3\n        /* \"#utility.yul\":4415:4432   */\n      add\n        /* \"#utility.yul\":4402:4433   */\n      calldataload\n        /* \"#utility.yul\":4460:4478   */\n      0xffffffffffffffff\n        /* \"#utility.yul\":4452:4458   */\n      dup2\n        /* \"#utility.yul\":4449:4479   */\n      gt\n        /* \"#utility.yul\":4446:4563   */\n      iszero\n      tag_436\n      jumpi\n        /* \"#utility.yul\":4482:4561   */\n      tag_437\n      tag_339\n      jump\t// in\n    tag_437:\n        /* \"#utility.yul\":4446:4563   */\n    tag_436:\n        /* \"#utility.yul\":4602:4661   */\n      tag_438\n        /* \"#utility.yul\":4657:4660   */\n      dup5\n        /* \"#utility.yul\":4648:4654   */\n      dup3\n        /* \"#utility.yul\":4637:4646   */\n      dup6\n        /* \"#utility.yul\":4633:4655   */\n      add\n        /* \"#utility.yul\":4602:4661   */\n      tag_335\n      jump\t// in\n    tag_438:\n        /* \"#utility.yul\":4595:4599   */\n      0x00\n        /* \"#utility.yul\":4588:4593   */\n      dup4\n        /* \"#utility.yul\":4584:4600   */\n      add\n        /* \"#utility.yul\":4577:4662   */\n      mstore\n        /* \"#utility.yul\":4353:4673   */\n      pop\n        /* \"#utility.yul\":4761:4763   */\n      0x20\n        /* \"#utility.yul\":4750:4759   */\n      dup3\n        /* \"#utility.yul\":4746:4764   */\n      add\n        /* \"#utility.yul\":4733:4765   */\n      calldataload\n        /* \"#utility.yul\":4792:4810   */\n      0xffffffffffffffff\n        /* \"#utility.yul\":4784:4790   */\n      dup2\n        /* \"#utility.yul\":4781:4811   */\n      gt\n        /* \"#utility.yul\":4778:4895   */\n      iszero\n      tag_439\n      jumpi\n        /* \"#utility.yul\":4814:4893   */\n      tag_440\n      tag_339\n      jump\t// in\n    tag_440:\n        /* \"#utility.yul\":4778:4895   */\n    tag_439:\n        /* \"#utility.yul\":4934:4993   */\n      tag_441\n        /* \"#utility.yul\":4989:4992   */\n      dup5\n        /* \"#utility.yul\":4980:4986   */\n      dup3\n        /* \"#utility.yul\":4969:4978   */\n      dup6\n        /* \"#utility.yul\":4965:4987   */\n      add\n        /* \"#utility.yul\":4934:4993   */\n      tag_335\n      jump\t// in\n    tag_441:\n        /* \"#utility.yul\":4927:4931   */\n      0x20\n        /* \"#utility.yul\":4920:4925   */\n      dup4\n        /* \"#utility.yul\":4916:4932   */\n      add\n        /* \"#utility.yul\":4909:4994   */\n      mstore\n        /* \"#utility.yul\":4683:5005   */\n      pop\n        /* \"#utility.yul\":5094:5096   */\n      0x40\n        /* \"#utility.yul\":5083:5092   */\n      dup3\n        /* \"#utility.yul\":5079:5097   */\n      add\n        /* \"#utility.yul\":5066:5098   */\n      calldataload\n        /* \"#utility.yul\":5125:5143   */\n      0xffffffffffffffff\n        /* \"#utility.yul\":5117:5123   */\n      dup2\n        /* \"#utility.yul\":5114:5144   */\n      gt\n        /* \"#utility.yul\":5111:5228   */\n      iszero\n      tag_442\n      jumpi\n        /* \"#utility.yul\":5147:5226   */\n      tag_443\n      tag_339\n      jump\t// in\n    tag_443:\n        /* \"#utility.yul\":5111:5228   */\n    tag_442:\n        /* \"#utility.yul\":5267:5326   */\n      tag_444\n        /* \"#utility.yul\":5322:5325   */\n      dup5\n        /* \"#utility.yul\":5313:5319   */\n      dup3\n        /* \"#utility.yul\":5302:5311   */\n      dup6\n        /* \"#utility.yul\":5298:5320   */\n      add\n        /* \"#utility.yul\":5267:5326   */\n      tag_335\n      jump\t// in\n    tag_444:\n        /* \"#utility.yul\":5260:5264   */\n      0x40\n        /* \"#utility.yul\":5253:5258   */\n      dup4\n        /* \"#utility.yul\":5249:5265   */\n      add\n        /* \"#utility.yul\":5242:5327   */\n      mstore\n        /* \"#utility.yul\":5015:5338   */\n      pop\n        /* \"#utility.yul\":5426:5428   */\n      0x60\n        /* \"#utility.yul\":5415:5424   */\n      dup3\n        /* \"#utility.yul\":5411:5429   */\n      add\n        /* \"#utility.yul\":5398:5430   */\n      calldataload\n        /* \"#utility.yul\":5457:5475   */\n      0xffffffffffffffff\n        /* \"#utility.yul\":5449:5455   */\n      dup2\n        /* \"#utility.yul\":5446:5476   */\n      gt\n        /* \"#utility.yul\":5443:5560   */\n      iszero\n      tag_445\n      jumpi\n        /* \"#utility.yul\":5479:5558   */\n      tag_446\n      tag_339\n      jump\t// in\n    tag_446:\n        /* \"#utility.yul\":5443:5560   */\n    tag_445:\n        /* \"#utility.yul\":5599:5658   */\n      tag_447\n        /* \"#utility.yul\":5654:5657   */\n      dup5\n        /* \"#utility.yul\":5645:5651   */\n      dup3\n        /* \"#utility.yul\":5634:5643   */\n      dup6\n        /* \"#utility.yul\":5630:5652   */\n      add\n        /* \"#utility.yul\":5599:5658   */\n      tag_335\n      jump\t// in\n    tag_447:\n        /* \"#utility.yul\":5592:5596   */\n      0x60\n        /* \"#utility.yul\":5585:5590   */\n      dup4\n        /* \"#utility.yul\":5581:5597   */\n      add\n        /* \"#utility.yul\":5574:5659   */\n      mstore\n        /* \"#utility.yul\":5348:5670   */\n      pop\n        /* \"#utility.yul\":4097:5677   */\n      swap3\n      swap2\n      pop\n      pop\n      jump\t// out\n        /* \"#utility.yul\":5683:6547   */\n    tag_30:\n        /* \"#utility.yul\":5786:5792   */\n      0x00\n        /* \"#utility.yul\":5794:5800   */\n      dup1\n        /* \"#utility.yul\":5843:5845   */\n      0x40\n        /* \"#utility.yul\":5831:5840   */\n      dup4\n        /* \"#utility.yul\":5822:5829   */\n      dup6\n        /* \"#utility.yul\":5818:5841   */\n      sub\n        /* \"#utility.yul\":5814:5846   */\n      slt\n        /* \"#utility.yul\":5811:5930   */\n      iszero\n      tag_449\n      jumpi\n        /* \"#utility.yul\":5849:5928   */\n      tag_450\n      tag_324\n      jump\t// in\n    tag_450:\n        /* \"#utility.yul\":5811:5930   */\n    tag_449:\n        /* \"#utility.yul\":5997:5998   */\n      0x00\n        /* \"#utility.yul\":5986:5995   */\n      dup4\n        /* \"#utility.yul\":5982:5999   */\n      add\n        /* \"#utility.yul\":5969:6000   */\n      calldataload\n        /* \"#utility.yul\":6027:6045   */\n      0xffffffffffffffff\n        /* \"#utility.yul\":6019:6025   */\n      dup2\n        /* \"#utility.yul\":6016:6046   */\n      gt\n        /* \"#utility.yul\":6013:6130   */\n      iszero\n      tag_451\n      jumpi\n        /* \"#utility.yul\":6049:6128   */\n      tag_452\n      tag_325\n      jump\t// in\n    tag_452:\n        /* \"#utility.yul\":6013:6130   */\n    tag_451:\n        /* \"#utility.yul\":6154:6217   */\n      tag_453\n        /* \"#utility.yul\":6209:6216   */\n      dup6\n        /* \"#utility.yul\":6200:6206   */\n      dup3\n        /* \"#utility.yul\":6189:6198   */\n      dup7\n        /* \"#utility.yul\":6185:6207   */\n      add\n        /* \"#utility.yul\":6154:6217   */\n      tag_335\n      jump\t// in\n    tag_453:\n        /* \"#utility.yul\":6144:6217   */\n      swap3\n      pop\n        /* \"#utility.yul\":5940:6227   */\n      pop\n        /* \"#utility.yul\":6294:6296   */\n      0x20\n        /* \"#utility.yul\":6283:6292   */\n      dup4\n        /* \"#utility.yul\":6279:6297   */\n      add\n        /* \"#utility.yul\":6266:6298   */\n      calldataload\n        /* \"#utility.yul\":6325:6343   */\n      0xffffffffffffffff\n        /* \"#utility.yul\":6317:6323   */\n      dup2\n        /* \"#utility.yul\":6314:6344   */\n      gt\n        /* \"#utility.yul\":6311:6428   */\n      iszero\n      tag_454\n      jumpi\n        /* \"#utility.yul\":6347:6426   */\n      tag_455\n      tag_325\n      jump\t// in\n    tag_455:\n        /* \"#utility.yul\":6311:6428   */\n    tag_454:\n        /* \"#utility.yul\":6452:6530   */\n      tag_456\n        /* \"#utility.yul\":6522:6529   */\n      dup6\n        /* \"#utility.yul\":6513:6519   */\n      dup3\n        /* \"#utility.yul\":6502:6511   */\n      dup7\n        /* \"#utility.yul\":6498:6520   */\n      add\n        /* \"#utility.yul\":6452:6530   */\n      tag_340\n      jump\t// in\n    tag_456:\n        /* \"#utility.yul\":6442:6530   */\n      swap2\n      pop\n        /* \"#utility.yul\":6237:6540   */\n      pop\n        /* \"#utility.yul\":5683:6547   */\n      swap3\n      pop\n      swap3\n      swap1\n      pop\n      jump\t// out\n        /* \"#utility.yul\":6553:6643   */\n    tag_341:\n        /* \"#utility.yul\":6587:6594   */\n      0x00\n        /* \"#utility.yul\":6630:6635   */\n      dup2\n        /* \"#utility.yul\":6623:6636   */\n      iszero\n        /* \"#utility.yul\":6616:6637   */\n      iszero\n        /* \"#utility.yul\":6605:6637   */\n      swap1\n      pop\n        /* \"#utility.yul\":6553:6643   */\n      swap2\n      swap1\n      pop\n      jump\t// out\n        /* \"#utility.yul\":6649:6758   */\n    tag_342:\n        /* \"#utility.yul\":6730:6751   */\n      tag_459\n        /* \"#utility.yul\":6745:6750   */\n      dup2\n        /* \"#utility.yul\":6730:6751   */\n      tag_341\n      jump\t// in\n    tag_459:\n        /* \"#utility.yul\":6725:6728   */\n      dup3\n        /* \"#utility.yul\":6718:6752   */\n      mstore\n        /* \"#utility.yul\":6649:6758   */\n      pop\n      pop\n      jump\t// out\n        /* \"#utility.yul\":6764:6974   */\n    tag_33:\n        /* \"#utility.yul\":6851:6855   */\n      0x00\n        /* \"#utility.yul\":6889:6891   */\n      0x20\n        /* \"#utility.yul\":6878:6887   */\n      dup3\n        /* \"#utility.yul\":6874:6892   */\n      add\n        /* \"#utility.yul\":6866:6892   */\n      swap1\n      pop\n        /* \"#utility.yul\":6902:6967   */\n      tag_461\n        /* \"#utility.yul\":6964:6965   */\n      0x00\n        /* \"#utility.yul\":6953:6962   */\n      dup4\n        /* \"#utility.yul\":6949:6966   */\n      add\n        /* \"#utility.yul\":6940:6946   */\n      dup5\n        /* \"#utility.yul\":6902:6967   */\n      tag_342\n      jump\t// in\n    tag_461:\n        /* \"#utility.yul\":6764:6974   */\n      swap3\n      swap2\n      pop\n      pop\n      jump\t// out\n        /* \"#utility.yul\":6980:7106   */\n    tag_343:\n        /* \"#utility.yul\":7017:7024   */\n      0x00\n        /* \"#utility.yul\":7057:7099   */\n      0xffffffffffffffffffffffffffffffffffffffff\n        /* \"#utility.yul\":7050:7055   */\n      dup3\n        /* \"#utility.yul\":7046:7100   */\n      and\n        /* \"#utility.yul\":7035:7100   */\n      swap1\n      pop\n        /* \"#utility.yul\":6980:7106   */\n      swap2\n      swap1\n      pop\n      jump\t// out\n        /* \"#utility.yul\":7112:7208   */\n    tag_344:\n        /* \"#utility.yul\":7149:7156   */\n      0x00\n        /* \"#utility.yul\":7178:7202   */\n      tag_464\n        /* \"#utility.yul\":7196:7201   */\n      dup3\n        /* \"#utility.yul\":7178:7202   */\n      tag_343\n      jump\t// in\n    tag_464:\n        /* \"#utility.yul\":7167:7202   */\n      swap1\n      pop\n        /* \"#utility.yul\":7112:7208   */\n      swap2\n      swap1\n      pop\n      jump\t// out\n        /* \"#utility.yul\":7214:7332   */\n    tag_345:\n        /* \"#utility.yul\":7301:7325   */\n      tag_466\n        /* \"#utility.yul\":7319:7324   */\n      dup2\n        /* \"#utility.yul\":7301:7325   */\n      tag_344\n      jump\t// in\n    tag_466:\n        /* \"#utility.yul\":7296:7299   */\n      dup3\n        /* \"#utility.yul\":7289:7326   */\n      mstore\n        /* \"#utility.yul\":7214:7332   */\n      pop\n      pop\n      jump\t// out\n        /* \"#utility.yul\":7338:7560   */\n    tag_45:\n        /* \"#utility.yul\":7431:7435   */\n      0x00\n        /* \"#utility.yul\":7469:7471   */\n      0x20\n        /* \"#utility.yul\":7458:7467   */\n      dup3\n        /* \"#utility.yul\":7454:7472   */\n      add\n        /* \"#utility.yul\":7446:7472   */\n      swap1\n      pop\n        /* \"#utility.yul\":7482:7553   */\n      tag_468\n        /* \"#utility.yul\":7550:7551   */\n      0x00\n        /* \"#utility.yul\":7539:7548   */\n      dup4\n        /* \"#utility.yul\":7535:7552   */\n      add\n        /* \"#utility.yul\":7526:7532   */\n      dup5\n        /* \"#utility.yul\":7482:7553   */\n      tag_345\n      jump\t// in\n    tag_468:\n        /* \"#utility.yul\":7338:7560   */\n      swap3\n      swap2\n      pop\n      pop\n      jump\t// out\n        /* \"#utility.yul\":7566:7688   */\n    tag_346:\n        /* \"#utility.yul\":7639:7663   */\n      tag_470\n        /* \"#utility.yul\":7657:7662   */\n      dup2\n        /* \"#utility.yul\":7639:7663   */\n      tag_336\n      jump\t// in\n    tag_470:\n        /* \"#utility.yul\":7632:7637   */\n      dup2\n        /* \"#utility.yul\":7629:7664   */\n      eq\n        /* \"#utility.yul\":7619:7682   */\n      tag_471\n      jumpi\n        /* \"#utility.yul\":7678:7679   */\n      0x00\n        /* \"#utility.yul\":7675:7676   */\n      dup1\n        /* \"#utility.yul\":7668:7680   */\n      revert\n        /* \"#utility.yul\":7619:7682   */\n    tag_471:\n        /* \"#utility.yul\":7566:7688   */\n      pop\n      jump\t// out\n        /* \"#utility.yul\":7694:7833   */\n    tag_347:\n        /* \"#utility.yul\":7740:7745   */\n      0x00\n        /* \"#utility.yul\":7778:7784   */\n      dup2\n        /* \"#utility.yul\":7765:7785   */\n      calldataload\n        /* \"#utility.yul\":7756:7785   */\n      swap1\n      pop\n        /* \"#utility.yul\":7794:7827   */\n      tag_473\n        /* \"#utility.yul\":7821:7826   */\n      dup2\n        /* \"#utility.yul\":7794:7827   */\n      tag_346\n      jump\t// in\n    tag_473:\n        /* \"#utility.yul\":7694:7833   */\n      swap3\n      swap2\n      pop\n      pop\n      jump\t// out\n        /* \"#utility.yul\":7839:8493   */\n    tag_51:\n        /* \"#utility.yul\":7917:7923   */\n      0x00\n        /* \"#utility.yul\":7925:7931   */\n      dup1\n        /* \"#utility.yul\":7974:7976   */\n      0x40\n        /* \"#utility.yul\":7962:7971   */\n      dup4\n        /* \"#utility.yul\":7953:7960   */\n      dup6\n        /* \"#utility.yul\":7949:7972   */\n      sub\n        /* \"#utility.yul\":7945:7977   */\n      slt\n        /* \"#utility.yul\":7942:8061   */\n      iszero\n      tag_475\n      jumpi\n        /* \"#utility.yul\":7980:8059   */\n      tag_476\n      tag_324\n      jump\t// in\n    tag_476:\n        /* \"#utility.yul\":7942:8061   */\n    tag_475:\n        /* \"#utility.yul\":8128:8129   */\n      0x00\n        /* \"#utility.yul\":8117:8126   */\n      dup4\n        /* \"#utility.yul\":8113:8130   */\n      add\n        /* \"#utility.yul\":8100:8131   */\n      calldataload\n        /* \"#utility.yul\":8158:8176   */\n      0xffffffffffffffff\n        /* \"#utility.yul\":8150:8156   */\n      dup2\n        /* \"#utility.yul\":8147:8177   */\n      gt\n        /* \"#utility.yul\":8144:8261   */\n      iszero\n      tag_477\n      jumpi\n        /* \"#utility.yul\":8180:8259   */\n      tag_478\n      tag_325\n      jump\t// in\n    tag_478:\n        /* \"#utility.yul\":8144:8261   */\n    tag_477:\n        /* \"#utility.yul\":8285:8348   */\n      tag_479\n        /* \"#utility.yul\":8340:8347   */\n      dup6\n        /* \"#utility.yul\":8331:8337   */\n      dup3\n        /* \"#utility.yul\":8320:8329   */\n      dup7\n        /* \"#utility.yul\":8316:8338   */\n      add\n        /* \"#utility.yul\":8285:8348   */\n      tag_335\n      jump\t// in\n    tag_479:\n        /* \"#utility.yul\":8275:8348   */\n      swap3\n      pop\n        /* \"#utility.yul\":8071:8358   */\n      pop\n        /* \"#utility.yul\":8397:8399   */\n      0x20\n        /* \"#utility.yul\":8423:8476   */\n      tag_480\n        /* \"#utility.yul\":8468:8475   */\n      dup6\n        /* \"#utility.yul\":8459:8465   */\n      dup3\n        /* \"#utility.yul\":8448:8457   */\n      dup7\n        /* \"#utility.yul\":8444:8466   */\n      add\n        /* \"#utility.yul\":8423:8476   */\n      tag_347\n      jump\t// in\n    tag_480:\n        /* \"#utility.yul\":8413:8476   */\n      swap2\n      pop\n        /* \"#utility.yul\":8368:8486   */\n      pop\n        /* \"#utility.yul\":7839:8493   */\n      swap3\n      pop\n      swap3\n      swap1\n      pop\n      jump\t// out\n        /* \"#utility.yul\":8499:8598   */\n    tag_348:\n        /* \"#utility.yul\":8551:8557   */\n      0x00\n        /* \"#utility.yul\":8585:8590   */\n      dup2\n        /* \"#utility.yul\":8579:8591   */\n      mload\n        /* \"#utility.yul\":8569:8591   */\n      swap1\n      pop\n        /* \"#utility.yul\":8499:8598   */\n      swap2\n      swap1\n      pop\n      jump\t// out\n        /* \"#utility.yul\":8604:8773   */\n    tag_349:\n        /* \"#utility.yul\":8688:8699   */\n      0x00\n        /* \"#utility.yul\":8722:8728   */\n      dup3\n        /* \"#utility.yul\":8717:8720   */\n      dup3\n        /* \"#utility.yul\":8710:8729   */\n      mstore\n        /* \"#utility.yul\":8762:8766   */\n      0x20\n        /* \"#utility.yul\":8757:8760   */\n      dup3\n        /* \"#utility.yul\":8753:8767   */\n      add\n        /* \"#utility.yul\":8738:8767   */\n      swap1\n      pop\n        /* \"#utility.yul\":8604:8773   */\n      swap3\n      swap2\n      pop\n      pop\n      jump\t// out\n        /* \"#utility.yul\":8779:9086   */\n    tag_350:\n        /* \"#utility.yul\":8847:8848   */\n      0x00\n        /* \"#utility.yul\":8857:8970   */\n    tag_484:\n        /* \"#utility.yul\":8871:8877   */\n      dup4\n        /* \"#utility.yul\":8868:8869   */\n      dup2\n        /* \"#utility.yul\":8865:8878   */\n      lt\n        /* \"#utility.yul\":8857:8970   */\n      iszero\n      tag_486\n      jumpi\n        /* \"#utility.yul\":8956:8957   */\n      dup1\n        /* \"#utility.yul\":8951:8954   */\n      dup3\n        /* \"#utility.yul\":8947:8958   */\n      add\n        /* \"#utility.yul\":8941:8959   */\n      mload\n        /* \"#utility.yul\":8937:8938   */\n      dup2\n        /* \"#utility.yul\":8932:8935   */\n      dup5\n        /* \"#utility.yul\":8928:8939   */\n      add\n        /* \"#utility.yul\":8921:8960   */\n      mstore\n        /* \"#utility.yul\":8893:8895   */\n      0x20\n        /* \"#utility.yul\":8890:8891   */\n      dup2\n        /* \"#utility.yul\":8886:8896   */\n      add\n        /* \"#utility.yul\":8881:8896   */\n      swap1\n      pop\n        /* \"#utility.yul\":8857:8970   */\n      jump(tag_484)\n    tag_486:\n        /* \"#utility.yul\":8988:8994   */\n      dup4\n        /* \"#utility.yul\":8985:8986   */\n      dup2\n        /* \"#utility.yul\":8982:8995   */\n      gt\n        /* \"#utility.yul\":8979:9080   */\n      iszero\n      tag_487\n      jumpi\n        /* \"#utility.yul\":9068:9069   */\n      0x00\n        /* \"#utility.yul\":9059:9065   */\n      dup5\n        /* \"#utility.yul\":9054:9057   */\n      dup5\n        /* \"#utility.yul\":9050:9066   */\n      add\n        /* \"#utility.yul\":9043:9070   */\n      mstore\n        /* \"#utility.yul\":8979:9080   */\n    tag_487:\n        /* \"#utility.yul\":8828:9086   */\n      pop\n        /* \"#utility.yul\":8779:9086   */\n      pop\n      pop\n      pop\n      jump\t// out\n        /* \"#utility.yul\":9092:9456   */\n    tag_351:\n        /* \"#utility.yul\":9180:9183   */\n      0x00\n        /* \"#utility.yul\":9208:9247   */\n      tag_489\n        /* \"#utility.yul\":9241:9246   */\n      dup3\n        /* \"#utility.yul\":9208:9247   */\n      tag_348\n      jump\t// in\n    tag_489:\n        /* \"#utility.yul\":9263:9334   */\n      tag_490\n        /* \"#utility.yul\":9327:9333   */\n      dup2\n        /* \"#utility.yul\":9322:9325   */\n      dup6\n        /* \"#utility.yul\":9263:9334   */\n      tag_349\n      jump\t// in\n    tag_490:\n        /* \"#utility.yul\":9256:9334   */\n      swap4\n      pop\n        /* \"#utility.yul\":9343:9395   */\n      tag_491\n        /* \"#utility.yul\":9388:9394   */\n      dup2\n        /* \"#utility.yul\":9383:9386   */\n      dup6\n        /* \"#utility.yul\":9376:9380   */\n      0x20\n        /* \"#utility.yul\":9369:9374   */\n      dup7\n        /* \"#utility.yul\":9365:9381   */\n      add\n        /* \"#utility.yul\":9343:9395   */\n      tag_350\n      jump\t// in\n    tag_491:\n        /* \"#utility.yul\":9420:9449   */\n      tag_492\n        /* \"#utility.yul\":9442:9448   */\n      dup2\n        /* \"#utility.yul\":9420:9449   */\n      tag_328\n      jump\t// in\n    tag_492:\n        /* \"#utility.yul\":9415:9418   */\n      dup5\n        /* \"#utility.yul\":9411:9450   */\n      add\n        /* \"#utility.yul\":9404:9450   */\n      swap2\n      pop\n        /* \"#utility.yul\":9184:9456   */\n      pop\n        /* \"#utility.yul\":9092:9456   */\n      swap3\n      swap2\n      pop\n      pop\n      jump\t// out\n        /* \"#utility.yul\":9462:9885   */\n    tag_54:\n        /* \"#utility.yul\":9603:9607   */\n      0x00\n        /* \"#utility.yul\":9641:9643   */\n      0x40\n        /* \"#utility.yul\":9630:9639   */\n      dup3\n        /* \"#utility.yul\":9626:9644   */\n      add\n        /* \"#utility.yul\":9618:9644   */\n      swap1\n      pop\n        /* \"#utility.yul\":9690:9699   */\n      dup2\n        /* \"#utility.yul\":9684:9688   */\n      dup2\n        /* \"#utility.yul\":9680:9700   */\n      sub\n        /* \"#utility.yul\":9676:9677   */\n      0x00\n        /* \"#utility.yul\":9665:9674   */\n      dup4\n        /* \"#utility.yul\":9661:9678   */\n      add\n        /* \"#utility.yul\":9654:9701   */\n      mstore\n        /* \"#utility.yul\":9718:9796   */\n      tag_494\n        /* \"#utility.yul\":9791:9795   */\n      dup2\n        /* \"#utility.yul\":9782:9788   */\n      dup6\n        /* \"#utility.yul\":9718:9796   */\n      tag_351\n      jump\t// in\n    tag_494:\n        /* \"#utility.yul\":9710:9796   */\n      swap1\n      pop\n        /* \"#utility.yul\":9806:9878   */\n      tag_495\n        /* \"#utility.yul\":9874:9876   */\n      0x20\n        /* \"#utility.yul\":9863:9872   */\n      dup4\n        /* \"#utility.yul\":9859:9877   */\n      add\n        /* \"#utility.yul\":9850:9856   */\n      dup5\n        /* \"#utility.yul\":9806:9878   */\n      tag_337\n      jump\t// in\n    tag_495:\n        /* \"#utility.yul\":9462:9885   */\n      swap4\n      swap3\n      pop\n      pop\n      pop\n      jump\t// out\n        /* \"#utility.yul\":9891:10870   */\n    tag_57:\n        /* \"#utility.yul\":9988:9994   */\n      0x00\n        /* \"#utility.yul\":9996:10002   */\n      dup1\n        /* \"#utility.yul\":10004:10010   */\n      0x00\n        /* \"#utility.yul\":10053:10055   */\n      0x60\n        /* \"#utility.yul\":10041:10050   */\n      dup5\n        /* \"#utility.yul\":10032:10039   */\n      dup7\n        /* \"#utility.yul\":10028:10051   */\n      sub\n        /* \"#utility.yul\":10024:10056   */\n      slt\n        /* \"#utility.yul\":10021:10140   */\n      iszero\n      tag_497\n      jumpi\n        /* \"#utility.yul\":10059:10138   */\n      tag_498\n      tag_324\n      jump\t// in\n    tag_498:\n        /* \"#utility.yul\":10021:10140   */\n    tag_497:\n        /* \"#utility.yul\":10207:10208   */\n      0x00\n        /* \"#utility.yul\":10196:10205   */\n      dup5\n        /* \"#utility.yul\":10192:10209   */\n      add\n        /* \"#utility.yul\":10179:10210   */\n      calldataload\n        /* \"#utility.yul\":10237:10255   */\n      0xffffffffffffffff\n        /* \"#utility.yul\":10229:10235   */\n      dup2\n        /* \"#utility.yul\":10226:10256   */\n      gt\n        /* \"#utility.yul\":10223:10340   */\n      iszero\n      tag_499\n      jumpi\n        /* \"#utility.yul\":10259:10338   */\n      tag_500\n      tag_325\n      jump\t// in\n    tag_500:\n        /* \"#utility.yul\":10223:10340   */\n    tag_499:\n        /* \"#utility.yul\":10364:10427   */\n      tag_501\n        /* \"#utility.yul\":10419:10426   */\n      dup7\n        /* \"#utility.yul\":10410:10416   */\n      dup3\n        /* \"#utility.yul\":10399:10408   */\n      dup8\n        /* \"#utility.yul\":10395:10417   */\n      add\n        /* \"#utility.yul\":10364:10427   */\n      tag_335\n      jump\t// in\n    tag_501:\n        /* \"#utility.yul\":10354:10427   */\n      swap4\n      pop\n        /* \"#utility.yul\":10150:10437   */\n      pop\n        /* \"#utility.yul\":10504:10506   */\n      0x20\n        /* \"#utility.yul\":10493:10502   */\n      dup5\n        /* \"#utility.yul\":10489:10507   */\n      add\n        /* \"#utility.yul\":10476:10508   */\n      calldataload\n        /* \"#utility.yul\":10535:10553   */\n      0xffffffffffffffff\n        /* \"#utility.yul\":10527:10533   */\n      dup2\n        /* \"#utility.yul\":10524:10554   */\n      gt\n        /* \"#utility.yul\":10521:10638   */\n      iszero\n      tag_502\n      jumpi\n        /* \"#utility.yul\":10557:10636   */\n      tag_503\n      tag_325\n      jump\t// in\n    tag_503:\n        /* \"#utility.yul\":10521:10638   */\n    tag_502:\n        /* \"#utility.yul\":10662:10725   */\n      tag_504\n        /* \"#utility.yul\":10717:10724   */\n      dup7\n        /* \"#utility.yul\":10708:10714   */\n      dup3\n        /* \"#utility.yul\":10697:10706   */\n      dup8\n        /* \"#utility.yul\":10693:10715   */\n      add\n        /* \"#utility.yul\":10662:10725   */\n      tag_335\n      jump\t// in\n    tag_504:\n        /* \"#utility.yul\":10652:10725   */\n      swap3\n      pop\n        /* \"#utility.yul\":10447:10735   */\n      pop\n        /* \"#utility.yul\":10774:10776   */\n      0x40\n        /* \"#utility.yul\":10800:10853   */\n      tag_505\n        /* \"#utility.yul\":10845:10852   */\n      dup7\n        /* \"#utility.yul\":10836:10842   */\n      dup3\n        /* \"#utility.yul\":10825:10834   */\n      dup8\n        /* \"#utility.yul\":10821:10843   */\n      add\n        /* \"#utility.yul\":10800:10853   */\n      tag_347\n      jump\t// in\n    tag_505:\n        /* \"#utility.yul\":10790:10853   */\n      swap2\n      pop\n        /* \"#utility.yul\":10745:10863   */\n      pop\n        /* \"#utility.yul\":9891:10870   */\n      swap3\n      pop\n      swap3\n      pop\n      swap3\n      jump\t// out\n        /* \"#utility.yul\":10876:11385   */\n    tag_61:\n        /* \"#utility.yul\":10945:10951   */\n      0x00\n        /* \"#utility.yul\":10994:10996   */\n      0x20\n        /* \"#utility.yul\":10982:10991   */\n      dup3\n        /* \"#utility.yul\":10973:10980   */\n      dup5\n        /* \"#utility.yul\":10969:10992   */\n      sub\n        /* \"#utility.yul\":10965:10997   */\n      slt\n        /* \"#utility.yul\":10962:11081   */\n      iszero\n      tag_507\n      jumpi\n        /* \"#utility.yul\":11000:11079   */\n      tag_508\n      tag_324\n      jump\t// in\n    tag_508:\n        /* \"#utility.yul\":10962:11081   */\n    tag_507:\n        /* \"#utility.yul\":11148:11149   */\n      0x00\n        /* \"#utility.yul\":11137:11146   */\n      dup3\n        /* \"#utility.yul\":11133:11150   */\n      add\n        /* \"#utility.yul\":11120:11151   */\n      calldataload\n        /* \"#utility.yul\":11178:11196   */\n      0xffffffffffffffff\n        /* \"#utility.yul\":11170:11176   */\n      dup2\n        /* \"#utility.yul\":11167:11197   */\n      gt\n        /* \"#utility.yul\":11164:11281   */\n      iszero\n      tag_509\n      jumpi\n        /* \"#utility.yul\":11200:11279   */\n      tag_510\n      tag_325\n      jump\t// in\n    tag_510:\n        /* \"#utility.yul\":11164:11281   */\n    tag_509:\n        /* \"#utility.yul\":11305:11368   */\n      tag_511\n        /* \"#utility.yul\":11360:11367   */\n      dup5\n        /* \"#utility.yul\":11351:11357   */\n      dup3\n        /* \"#utility.yul\":11340:11349   */\n      dup6\n        /* \"#utility.yul\":11336:11358   */\n      add\n        /* \"#utility.yul\":11305:11368   */\n      tag_335\n      jump\t// in\n    tag_511:\n        /* \"#utility.yul\":11295:11368   */\n      swap2\n      pop\n        /* \"#utility.yul\":11091:11378   */\n      pop\n        /* \"#utility.yul\":10876:11385   */\n      swap3\n      swap2\n      pop\n      pop\n      jump\t// out\n        /* \"#utility.yul\":11391:11515   */\n    tag_352:\n        /* \"#utility.yul\":11468:11474   */\n      0x00\n        /* \"#utility.yul\":11502:11507   */\n      dup2\n        /* \"#utility.yul\":11496:11508   */\n      mload\n        /* \"#utility.yul\":11486:11508   */\n      swap1\n      pop\n        /* \"#utility.yul\":11391:11515   */\n      swap2\n      swap1\n      pop\n      jump\t// out\n        /* \"#utility.yul\":11521:11715   */\n    tag_353:\n        /* \"#utility.yul\":11630:11641   */\n      0x00\n        /* \"#utility.yul\":11664:11670   */\n      dup3\n        /* \"#utility.yul\":11659:11662   */\n      dup3\n        /* \"#utility.yul\":11652:11671   */\n      mstore\n        /* \"#utility.yul\":11704:11708   */\n      0x20\n        /* \"#utility.yul\":11699:11702   */\n      dup3\n        /* \"#utility.yul\":11695:11709   */\n      add\n        /* \"#utility.yul\":11680:11709   */\n      swap1\n      pop\n        /* \"#utility.yul\":11521:11715   */\n      swap3\n      swap2\n      pop\n      pop\n      jump\t// out\n        /* \"#utility.yul\":11721:11863   */\n    tag_354:\n        /* \"#utility.yul\":11798:11802   */\n      0x00\n        /* \"#utility.yul\":11821:11824   */\n      dup2\n        /* \"#utility.yul\":11813:11824   */\n      swap1\n      pop\n        /* \"#utility.yul\":11851:11855   */\n      0x20\n        /* \"#utility.yul\":11846:11849   */\n      dup3\n        /* \"#utility.yul\":11842:11856   */\n      add\n        /* \"#utility.yul\":11834:11856   */\n      swap1\n      pop\n        /* \"#utility.yul\":11721:11863   */\n      swap2\n      swap1\n      pop\n      jump\t// out\n        /* \"#utility.yul\":11869:12028   */\n    tag_355:\n        /* \"#utility.yul\":11943:11954   */\n      0x00\n        /* \"#utility.yul\":11977:11983   */\n      dup3\n        /* \"#utility.yul\":11972:11975   */\n      dup3\n        /* \"#utility.yul\":11965:11984   */\n      mstore\n        /* \"#utility.yul\":12017:12021   */\n      0x20\n        /* \"#utility.yul\":12012:12015   */\n      dup3\n        /* \"#utility.yul\":12008:12022   */\n      add\n        /* \"#utility.yul\":11993:12022   */\n      swap1\n      pop\n        /* \"#utility.yul\":11869:12028   */\n      swap3\n      swap2\n      pop\n      pop\n      jump\t// out\n        /* \"#utility.yul\":12034:12378   */\n    tag_356:\n        /* \"#utility.yul\":12112:12115   */\n      0x00\n        /* \"#utility.yul\":12140:12179   */\n      tag_517\n        /* \"#utility.yul\":12173:12178   */\n      dup3\n        /* \"#utility.yul\":12140:12179   */\n      tag_348\n      jump\t// in\n    tag_517:\n        /* \"#utility.yul\":12195:12256   */\n      tag_518\n        /* \"#utility.yul\":12249:12255   */\n      dup2\n        /* \"#utility.yul\":12244:12247   */\n      dup6\n        /* \"#utility.yul\":12195:12256   */\n      tag_355\n      jump\t// in\n    tag_518:\n        /* \"#utility.yul\":12188:12256   */\n      swap4\n      pop\n        /* \"#utility.yul\":12265:12317   */\n      tag_519\n        /* \"#utility.yul\":12310:12316   */\n      dup2\n        /* \"#utility.yul\":12305:12308   */\n      dup6\n        /* \"#utility.yul\":12298:12302   */\n      0x20\n        /* \"#utility.yul\":12291:12296   */\n      dup7\n        /* \"#utility.yul\":12287:12303   */\n      add\n        /* \"#utility.yul\":12265:12317   */\n      tag_350\n      jump\t// in\n    tag_519:\n        /* \"#utility.yul\":12342:12371   */\n      tag_520\n        /* \"#utility.yul\":12364:12370   */\n      dup2\n        /* \"#utility.yul\":12342:12371   */\n      tag_328\n      jump\t// in\n    tag_520:\n        /* \"#utility.yul\":12337:12340   */\n      dup5\n        /* \"#utility.yul\":12333:12372   */\n      add\n        /* \"#utility.yul\":12326:12372   */\n      swap2\n      pop\n        /* \"#utility.yul\":12116:12378   */\n      pop\n        /* \"#utility.yul\":12034:12378   */\n      swap3\n      swap2\n      pop\n      pop\n      jump\t// out\n        /* \"#utility.yul\":12384:12580   */\n    tag_357:\n        /* \"#utility.yul\":12473:12483   */\n      0x00\n        /* \"#utility.yul\":12508:12574   */\n      tag_522\n        /* \"#utility.yul\":12570:12573   */\n      dup4\n        /* \"#utility.yul\":12562:12568   */\n      dup4\n        /* \"#utility.yul\":12508:12574   */\n      tag_356\n      jump\t// in\n    tag_522:\n        /* \"#utility.yul\":12494:12574   */\n      swap1\n      pop\n        /* \"#utility.yul\":12384:12580   */\n      swap3\n      swap2\n      pop\n      pop\n      jump\t// out\n        /* \"#utility.yul\":12586:12709   */\n    tag_358:\n        /* \"#utility.yul\":12666:12670   */\n      0x00\n        /* \"#utility.yul\":12698:12702   */\n      0x20\n        /* \"#utility.yul\":12693:12696   */\n      dup3\n        /* \"#utility.yul\":12689:12703   */\n      add\n        /* \"#utility.yul\":12681:12703   */\n      swap1\n      pop\n        /* \"#utility.yul\":12586:12709   */\n      swap2\n      swap1\n      pop\n      jump\t// out\n        /* \"#utility.yul\":12743:13734   */\n    tag_359:\n        /* \"#utility.yul\":12882:12885   */\n      0x00\n        /* \"#utility.yul\":12911:12975   */\n      tag_525\n        /* \"#utility.yul\":12969:12974   */\n      dup3\n        /* \"#utility.yul\":12911:12975   */\n      tag_352\n      jump\t// in\n    tag_525:\n        /* \"#utility.yul\":12991:13087   */\n      tag_526\n        /* \"#utility.yul\":13080:13086   */\n      dup2\n        /* \"#utility.yul\":13075:13078   */\n      dup6\n        /* \"#utility.yul\":12991:13087   */\n      tag_353\n      jump\t// in\n    tag_526:\n        /* \"#utility.yul\":12984:13087   */\n      swap4\n      pop\n        /* \"#utility.yul\":13113:13116   */\n      dup4\n        /* \"#utility.yul\":13158:13162   */\n      0x20\n        /* \"#utility.yul\":13150:13156   */\n      dup3\n        /* \"#utility.yul\":13146:13163   */\n      mul\n        /* \"#utility.yul\":13141:13144   */\n      dup6\n        /* \"#utility.yul\":13137:13164   */\n      add\n        /* \"#utility.yul\":13188:13254   */\n      tag_527\n        /* \"#utility.yul\":13248:13253   */\n      dup6\n        /* \"#utility.yul\":13188:13254   */\n      tag_354\n      jump\t// in\n    tag_527:\n        /* \"#utility.yul\":13277:13284   */\n      dup1\n        /* \"#utility.yul\":13308:13309   */\n      0x00\n        /* \"#utility.yul\":13293:13689   */\n    tag_528:\n        /* \"#utility.yul\":13318:13324   */\n      dup6\n        /* \"#utility.yul\":13315:13316   */\n      dup2\n        /* \"#utility.yul\":13312:13325   */\n      lt\n        /* \"#utility.yul\":13293:13689   */\n      iszero\n      tag_530\n      jumpi\n        /* \"#utility.yul\":13389:13398   */\n      dup5\n        /* \"#utility.yul\":13383:13387   */\n      dup5\n        /* \"#utility.yul\":13379:13399   */\n      sub\n        /* \"#utility.yul\":13374:13377   */\n      dup10\n        /* \"#utility.yul\":13367:13400   */\n      mstore\n        /* \"#utility.yul\":13440:13446   */\n      dup2\n        /* \"#utility.yul\":13434:13447   */\n      mload\n        /* \"#utility.yul\":13468:13552   */\n      tag_531\n        /* \"#utility.yul\":13547:13551   */\n      dup6\n        /* \"#utility.yul\":13532:13545   */\n      dup3\n        /* \"#utility.yul\":13468:13552   */\n      tag_357\n      jump\t// in\n    tag_531:\n        /* \"#utility.yul\":13460:13552   */\n      swap5\n      pop\n        /* \"#utility.yul\":13575:13645   */\n      tag_532\n        /* \"#utility.yul\":13638:13644   */\n      dup4\n        /* \"#utility.yul\":13575:13645   */\n      tag_358\n      jump\t// in\n    tag_532:\n        /* \"#utility.yul\":13565:13645   */\n      swap3\n      pop\n        /* \"#utility.yul\":13674:13678   */\n      0x20\n        /* \"#utility.yul\":13669:13672   */\n      dup11\n        /* \"#utility.yul\":13665:13679   */\n      add\n        /* \"#utility.yul\":13658:13679   */\n      swap10\n      pop\n        /* \"#utility.yul\":13353:13689   */\n      pop\n        /* \"#utility.yul\":13340:13341   */\n      0x01\n        /* \"#utility.yul\":13337:13338   */\n      dup2\n        /* \"#utility.yul\":13333:13342   */\n      add\n        /* \"#utility.yul\":13328:13342   */\n      swap1\n      pop\n        /* \"#utility.yul\":13293:13689   */\n      jump(tag_528)\n    tag_530:\n        /* \"#utility.yul\":13297:13311   */\n      pop\n        /* \"#utility.yul\":13705:13709   */\n      dup3\n        /* \"#utility.yul\":13698:13709   */\n      swap8\n      pop\n        /* \"#utility.yul\":13725:13728   */\n      dup8\n        /* \"#utility.yul\":13718:13728   */\n      swap6\n      pop\n        /* \"#utility.yul\":12887:13734   */\n      pop\n      pop\n      pop\n      pop\n      pop\n        /* \"#utility.yul\":12743:13734   */\n      swap3\n      swap2\n      pop\n      pop\n      jump\t// out\n        /* \"#utility.yul\":13740:14153   */\n    tag_64:\n        /* \"#utility.yul\":13903:13907   */\n      0x00\n        /* \"#utility.yul\":13941:13943   */\n      0x20\n        /* \"#utility.yul\":13930:13939   */\n      dup3\n        /* \"#utility.yul\":13926:13944   */\n      add\n        /* \"#utility.yul\":13918:13944   */\n      swap1\n      pop\n        /* \"#utility.yul\":13990:13999   */\n      dup2\n        /* \"#utility.yul\":13984:13988   */\n      dup2\n        /* \"#utility.yul\":13980:14000   */\n      sub\n        /* \"#utility.yul\":13976:13977   */\n      0x00\n        /* \"#utility.yul\":13965:13974   */\n      dup4\n        /* \"#utility.yul\":13961:13978   */\n      add\n        /* \"#utility.yul\":13954:14001   */\n      mstore\n        /* \"#utility.yul\":14018:14146   */\n      tag_534\n        /* \"#utility.yul\":14141:14145   */\n      dup2\n        /* \"#utility.yul\":14132:14138   */\n      dup5\n        /* \"#utility.yul\":14018:14146   */\n      tag_359\n      jump\t// in\n    tag_534:\n        /* \"#utility.yul\":14010:14146   */\n      swap1\n      pop\n        /* \"#utility.yul\":13740:14153   */\n      swap3\n      swap2\n      pop\n      pop\n      jump\t// out\n        /* \"#utility.yul\":14159:14281   */\n    tag_360:\n        /* \"#utility.yul\":14232:14256   */\n      tag_536\n        /* \"#utility.yul\":14250:14255   */\n      dup2\n        /* \"#utility.yul\":14232:14256   */\n      tag_344\n      jump\t// in\n    tag_536:\n        /* \"#utility.yul\":14225:14230   */\n      dup2\n        /* \"#utility.yul\":14222:14257   */\n      eq\n        /* \"#utility.yul\":14212:14275   */\n      tag_537\n      jumpi\n        /* \"#utility.yul\":14271:14272   */\n      0x00\n        /* \"#utility.yul\":14268:14269   */\n      dup1\n        /* \"#utility.yul\":14261:14273   */\n      revert\n        /* \"#utility.yul\":14212:14275   */\n    tag_537:\n        /* \"#utility.yul\":14159:14281   */\n      pop\n      jump\t// out\n        /* \"#utility.yul\":14287:14426   */\n    tag_361:\n        /* \"#utility.yul\":14333:14338   */\n      0x00\n        /* \"#utility.yul\":14371:14377   */\n      dup2\n        /* \"#utility.yul\":14358:14378   */\n      calldataload\n        /* \"#utility.yul\":14349:14378   */\n      swap1\n      pop\n        /* \"#utility.yul\":14387:14420   */\n      tag_539\n        /* \"#utility.yul\":14414:14419   */\n      dup2\n        /* \"#utility.yul\":14387:14420   */\n      tag_360\n      jump\t// in\n    tag_539:\n        /* \"#utility.yul\":14287:14426   */\n      swap3\n      swap2\n      pop\n      pop\n      jump\t// out\n        /* \"#utility.yul\":14432:14761   */\n    tag_70:\n        /* \"#utility.yul\":14491:14497   */\n      0x00\n        /* \"#utility.yul\":14540:14542   */\n      0x20\n        /* \"#utility.yul\":14528:14537   */\n      dup3\n        /* \"#utility.yul\":14519:14526   */\n      dup5\n        /* \"#utility.yul\":14515:14538   */\n      sub\n        /* \"#utility.yul\":14511:14543   */\n      slt\n        /* \"#utility.yul\":14508:14627   */\n      iszero\n      tag_541\n      jumpi\n        /* \"#utility.yul\":14546:14625   */\n      tag_542\n      tag_324\n      jump\t// in\n    tag_542:\n        /* \"#utility.yul\":14508:14627   */\n    tag_541:\n        /* \"#utility.yul\":14666:14667   */\n      0x00\n        /* \"#utility.yul\":14691:14744   */\n      tag_543\n        /* \"#utility.yul\":14736:14743   */\n      dup5\n        /* \"#utility.yul\":14727:14733   */\n      dup3\n        /* \"#utility.yul\":14716:14725   */\n      dup6\n        /* \"#utility.yul\":14712:14734   */\n      add\n        /* \"#utility.yul\":14691:14744   */\n      tag_361\n      jump\t// in\n    tag_543:\n        /* \"#utility.yul\":14681:14744   */\n      swap2\n      pop\n        /* \"#utility.yul\":14637:14754   */\n      pop\n        /* \"#utility.yul\":14432:14761   */\n      swap3\n      swap2\n      pop\n      pop\n      jump\t// out\n        /* \"#utility.yul\":14767:15684   */\n    tag_76:\n        /* \"#utility.yul\":15024:15028   */\n      0x00\n        /* \"#utility.yul\":15062:15065   */\n      0x80\n        /* \"#utility.yul\":15051:15060   */\n      dup3\n        /* \"#utility.yul\":15047:15066   */\n      add\n        /* \"#utility.yul\":15039:15066   */\n      swap1\n      pop\n        /* \"#utility.yul\":15112:15121   */\n      dup2\n        /* \"#utility.yul\":15106:15110   */\n      dup2\n        /* \"#utility.yul\":15102:15122   */\n      sub\n        /* \"#utility.yul\":15098:15099   */\n      0x00\n        /* \"#utility.yul\":15087:15096   */\n      dup4\n        /* \"#utility.yul\":15083:15100   */\n      add\n        /* \"#utility.yul\":15076:15123   */\n      mstore\n        /* \"#utility.yul\":15140:15218   */\n      tag_545\n        /* \"#utility.yul\":15213:15217   */\n      dup2\n        /* \"#utility.yul\":15204:15210   */\n      dup8\n        /* \"#utility.yul\":15140:15218   */\n      tag_351\n      jump\t// in\n    tag_545:\n        /* \"#utility.yul\":15132:15218   */\n      swap1\n      pop\n        /* \"#utility.yul\":15265:15274   */\n      dup2\n        /* \"#utility.yul\":15259:15263   */\n      dup2\n        /* \"#utility.yul\":15255:15275   */\n      sub\n        /* \"#utility.yul\":15250:15252   */\n      0x20\n        /* \"#utility.yul\":15239:15248   */\n      dup4\n        /* \"#utility.yul\":15235:15253   */\n      add\n        /* \"#utility.yul\":15228:15276   */\n      mstore\n        /* \"#utility.yul\":15293:15371   */\n      tag_546\n        /* \"#utility.yul\":15366:15370   */\n      dup2\n        /* \"#utility.yul\":15357:15363   */\n      dup7\n        /* \"#utility.yul\":15293:15371   */\n      tag_351\n      jump\t// in\n    tag_546:\n        /* \"#utility.yul\":15285:15371   */\n      swap1\n      pop\n        /* \"#utility.yul\":15418:15427   */\n      dup2\n        /* \"#utility.yul\":15412:15416   */\n      dup2\n        /* \"#utility.yul\":15408:15428   */\n      sub\n        /* \"#utility.yul\":15403:15405   */\n      0x40\n        /* \"#utility.yul\":15392:15401   */\n      dup4\n        /* \"#utility.yul\":15388:15406   */\n      add\n        /* \"#utility.yul\":15381:15429   */\n      mstore\n        /* \"#utility.yul\":15446:15524   */\n      tag_547\n        /* \"#utility.yul\":15519:15523   */\n      dup2\n        /* \"#utility.yul\":15510:15516   */\n      dup6\n        /* \"#utility.yul\":15446:15524   */\n      tag_351\n      jump\t// in\n    tag_547:\n        /* \"#utility.yul\":15438:15524   */\n      swap1\n      pop\n        /* \"#utility.yul\":15571:15580   */\n      dup2\n        /* \"#utility.yul\":15565:15569   */\n      dup2\n        /* \"#utility.yul\":15561:15581   */\n      sub\n        /* \"#utility.yul\":15556:15558   */\n      0x60\n        /* \"#utility.yul\":15545:15554   */\n      dup4\n        /* \"#utility.yul\":15541:15559   */\n      add\n        /* \"#utility.yul\":15534:15582   */\n      mstore\n        /* \"#utility.yul\":15599:15677   */\n      tag_548\n        /* \"#utility.yul\":15672:15676   */\n      dup2\n        /* \"#utility.yul\":15663:15669   */\n      dup5\n        /* \"#utility.yul\":15599:15677   */\n      tag_351\n      jump\t// in\n    tag_548:\n        /* \"#utility.yul\":15591:15677   */\n      swap1\n      pop\n        /* \"#utility.yul\":14767:15684   */\n      swap6\n      swap5\n      pop\n      pop\n      pop\n      pop\n      pop\n      jump\t// out\n        /* \"#utility.yul\":15690:15872   */\n    tag_362:\n        /* \"#utility.yul\":15830:15864   */\n      0x4f776e61626c653a2063616c6c6572206973206e6f7420746865206f776e6572\n        /* \"#utility.yul\":15826:15827   */\n      0x00\n        /* \"#utility.yul\":15818:15824   */\n      dup3\n        /* \"#utility.yul\":15814:15828   */\n      add\n        /* \"#utility.yul\":15807:15865   */\n      mstore\n        /* \"#utility.yul\":15690:15872   */\n      pop\n      jump\t// out\n        /* \"#utility.yul\":15878:16244   */\n    tag_363:\n        /* \"#utility.yul\":16020:16023   */\n      0x00\n        /* \"#utility.yul\":16041:16108   */\n      tag_551\n        /* \"#utility.yul\":16105:16107   */\n      0x20\n        /* \"#utility.yul\":16100:16103   */\n      dup4\n        /* \"#utility.yul\":16041:16108   */\n      tag_349\n      jump\t// in\n    tag_551:\n        /* \"#utility.yul\":16034:16108   */\n      swap2\n      pop\n        /* \"#utility.yul\":16117:16210   */\n      tag_552\n        /* \"#utility.yul\":16206:16209   */\n      dup3\n        /* \"#utility.yul\":16117:16210   */\n      tag_362\n      jump\t// in\n    tag_552:\n        /* \"#utility.yul\":16235:16237   */\n      0x20\n        /* \"#utility.yul\":16230:16233   */\n      dup3\n        /* \"#utility.yul\":16226:16238   */\n      add\n        /* \"#utility.yul\":16219:16238   */\n      swap1\n      pop\n        /* \"#utility.yul\":15878:16244   */\n      swap2\n      swap1\n      pop\n      jump\t// out\n        /* \"#utility.yul\":16250:16669   */\n    tag_83:\n        /* \"#utility.yul\":16416:16420   */\n      0x00\n        /* \"#utility.yul\":16454:16456   */\n      0x20\n        /* \"#utility.yul\":16443:16452   */\n      dup3\n        /* \"#utility.yul\":16439:16457   */\n      add\n        /* \"#utility.yul\":16431:16457   */\n      swap1\n      pop\n        /* \"#utility.yul\":16503:16512   */\n      dup2\n        /* \"#utility.yul\":16497:16501   */\n      dup2\n        /* \"#utility.yul\":16493:16513   */\n      sub\n        /* \"#utility.yul\":16489:16490   */\n      0x00\n        /* \"#utility.yul\":16478:16487   */\n      dup4\n        /* \"#utility.yul\":16474:16491   */\n      add\n        /* \"#utility.yul\":16467:16514   */\n      mstore\n        /* \"#utility.yul\":16531:16662   */\n      tag_554\n        /* \"#utility.yul\":16657:16661   */\n      dup2\n        /* \"#utility.yul\":16531:16662   */\n      tag_363\n      jump\t// in\n    tag_554:\n        /* \"#utility.yul\":16523:16662   */\n      swap1\n      pop\n        /* \"#utility.yul\":16250:16669   */\n      swap2\n      swap1\n      pop\n      jump\t// out\n        /* \"#utility.yul\":16675:16823   */\n    tag_364:\n        /* \"#utility.yul\":16777:16788   */\n      0x00\n        /* \"#utility.yul\":16814:16817   */\n      dup2\n        /* \"#utility.yul\":16799:16817   */\n      swap1\n      pop\n        /* \"#utility.yul\":16675:16823   */\n      swap3\n      swap2\n      pop\n      pop\n      jump\t// out\n        /* \"#utility.yul\":16829:17206   */\n    tag_365:\n        /* \"#utility.yul\":16935:16938   */\n      0x00\n        /* \"#utility.yul\":16963:17002   */\n      tag_557\n        /* \"#utility.yul\":16996:17001   */\n      dup3\n        /* \"#utility.yul\":16963:17002   */\n      tag_348\n      jump\t// in\n    tag_557:\n        /* \"#utility.yul\":17018:17107   */\n      tag_558\n        /* \"#utility.yul\":17100:17106   */\n      dup2\n        /* \"#utility.yul\":17095:17098   */\n      dup6\n        /* \"#utility.yul\":17018:17107   */\n      tag_364\n      jump\t// in\n    tag_558:\n        /* \"#utility.yul\":17011:17107   */\n      swap4\n      pop\n        /* \"#utility.yul\":17116:17168   */\n      tag_559\n        /* \"#utility.yul\":17161:17167   */\n      dup2\n        /* \"#utility.yul\":17156:17159   */\n      dup6\n        /* \"#utility.yul\":17149:17153   */\n      0x20\n        /* \"#utility.yul\":17142:17147   */\n      dup7\n        /* \"#utility.yul\":17138:17154   */\n      add\n        /* \"#utility.yul\":17116:17168   */\n      tag_350\n      jump\t// in\n    tag_559:\n        /* \"#utility.yul\":17193:17199   */\n      dup1\n        /* \"#utility.yul\":17188:17191   */\n      dup5\n        /* \"#utility.yul\":17184:17200   */\n      add\n        /* \"#utility.yul\":17177:17200   */\n      swap2\n      pop\n        /* \"#utility.yul\":16939:17206   */\n      pop\n        /* \"#utility.yul\":16829:17206   */\n      swap3\n      swap2\n      pop\n      pop\n      jump\t// out\n        /* \"#utility.yul\":17212:17487   */\n    tag_89:\n        /* \"#utility.yul\":17344:17347   */\n      0x00\n        /* \"#utility.yul\":17366:17461   */\n      tag_561\n        /* \"#utility.yul\":17457:17460   */\n      dup3\n        /* \"#utility.yul\":17448:17454   */\n      dup5\n        /* \"#utility.yul\":17366:17461   */\n      tag_365\n      jump\t// in\n    tag_561:\n        /* \"#utility.yul\":17359:17461   */\n      swap2\n      pop\n        /* \"#utility.yul\":17478:17481   */\n      dup2\n        /* \"#utility.yul\":17471:17481   */\n      swap1\n      pop\n        /* \"#utility.yul\":17212:17487   */\n      swap3\n      swap2\n      pop\n      pop\n      jump\t// out\n        /* \"#utility.yul\":17493:17673   */\n    tag_97:\n        /* \"#utility.yul\":17541:17618   */\n      0x4e487b7100000000000000000000000000000000000000000000000000000000\n        /* \"#utility.yul\":17538:17539   */\n      0x00\n        /* \"#utility.yul\":17531:17619   */\n      mstore\n        /* \"#utility.yul\":17638:17642   */\n      0x32\n        /* \"#utility.yul\":17635:17636   */\n      0x04\n        /* \"#utility.yul\":17628:17643   */\n      mstore\n        /* \"#utility.yul\":17662:17666   */\n      0x24\n        /* \"#utility.yul\":17659:17660   */\n      0x00\n        /* \"#utility.yul\":17652:17667   */\n      revert\n        /* \"#utility.yul\":17679:17859   */\n    tag_366:\n        /* \"#utility.yul\":17727:17804   */\n      0x4e487b7100000000000000000000000000000000000000000000000000000000\n        /* \"#utility.yul\":17724:17725   */\n      0x00\n        /* \"#utility.yul\":17717:17805   */\n      mstore\n        /* \"#utility.yul\":17824:17828   */\n      0x22\n        /* \"#utility.yul\":17821:17822   */\n      0x04\n        /* \"#utility.yul\":17814:17829   */\n      mstore\n        /* \"#utility.yul\":17848:17852   */\n      0x24\n        /* \"#utility.yul\":17845:17846   */\n      0x00\n        /* \"#utility.yul\":17838:17853   */\n      revert\n        /* \"#utility.yul\":17865:18185   */\n    tag_184:\n        /* \"#utility.yul\":17909:17915   */\n      0x00\n        /* \"#utility.yul\":17946:17947   */\n      0x02\n        /* \"#utility.yul\":17940:17944   */\n      dup3\n        /* \"#utility.yul\":17936:17948   */\n      div\n        /* \"#utility.yul\":17926:17948   */\n      swap1\n      pop\n        /* \"#utility.yul\":17993:17994   */\n      0x01\n        /* \"#utility.yul\":17987:17991   */\n      dup3\n        /* \"#utility.yul\":17983:17995   */\n      and\n        /* \"#utility.yul\":18014:18032   */\n      dup1\n        /* \"#utility.yul\":18004:18085   */\n      tag_565\n      jumpi\n        /* \"#utility.yul\":18070:18074   */\n      0x7f\n        /* \"#utility.yul\":18062:18068   */\n      dup3\n        /* \"#utility.yul\":18058:18075   */\n      and\n        /* \"#utility.yul\":18048:18075   */\n      swap2\n      pop\n        /* \"#utility.yul\":18004:18085   */\n    tag_565:\n        /* \"#utility.yul\":18132:18134   */\n      0x20\n        /* \"#utility.yul\":18124:18130   */\n      dup3\n        /* \"#utility.yul\":18121:18135   */\n      lt\n        /* \"#utility.yul\":18101:18119   */\n      dup2\n        /* \"#utility.yul\":18098:18136   */\n      sub\n        /* \"#utility.yul\":18095:18179   */\n      tag_566\n      jumpi\n        /* \"#utility.yul\":18151:18169   */\n      tag_567\n      tag_366\n      jump\t// in\n    tag_567:\n        /* \"#utility.yul\":18095:18179   */\n    tag_566:\n        /* \"#utility.yul\":17916:18185   */\n      pop\n        /* \"#utility.yul\":17865:18185   */\n      swap2\n      swap1\n      pop\n      jump\t// out\n        /* \"#utility.yul\":18191:18332   */\n    tag_367:\n        /* \"#utility.yul\":18240:18244   */\n      0x00\n        /* \"#utility.yul\":18263:18266   */\n      dup2\n        /* \"#utility.yul\":18255:18266   */\n      swap1\n      pop\n        /* \"#utility.yul\":18286:18289   */\n      dup2\n        /* \"#utility.yul\":18283:18284   */\n      0x00\n        /* \"#utility.yul\":18276:18290   */\n      mstore\n        /* \"#utility.yul\":18320:18324   */\n      0x20\n        /* \"#utility.yul\":18317:18318   */\n      0x00\n        /* \"#utility.yul\":18307:18325   */\n      keccak256\n        /* \"#utility.yul\":18299:18325   */\n      swap1\n      pop\n        /* \"#utility.yul\":18191:18332   */\n      swap2\n      swap1\n      pop\n      jump\t// out\n        /* \"#utility.yul\":18362:19236   */\n    tag_368:\n        /* \"#utility.yul\":18465:18468   */\n      0x00\n        /* \"#utility.yul\":18502:18507   */\n      dup2\n        /* \"#utility.yul\":18496:18508   */\n      sload\n        /* \"#utility.yul\":18531:18567   */\n      tag_570\n        /* \"#utility.yul\":18557:18566   */\n      dup2\n        /* \"#utility.yul\":18531:18567   */\n      tag_184\n      jump\t// in\n    tag_570:\n        /* \"#utility.yul\":18583:18672   */\n      tag_571\n        /* \"#utility.yul\":18665:18671   */\n      dup2\n        /* \"#utility.yul\":18660:18663   */\n      dup7\n        /* \"#utility.yul\":18583:18672   */\n      tag_364\n      jump\t// in\n    tag_571:\n        /* \"#utility.yul\":18576:18672   */\n      swap5\n      pop\n        /* \"#utility.yul\":18703:18704   */\n      0x01\n        /* \"#utility.yul\":18692:18701   */\n      dup3\n        /* \"#utility.yul\":18688:18705   */\n      and\n        /* \"#utility.yul\":18719:18720   */\n      0x00\n        /* \"#utility.yul\":18714:18880   */\n      dup2\n      eq\n      tag_573\n      jumpi\n        /* \"#utility.yul\":18894:18895   */\n      0x01\n        /* \"#utility.yul\":18889:19230   */\n      dup2\n      eq\n      tag_574\n      jumpi\n        /* \"#utility.yul\":18681:19230   */\n      jump(tag_572)\n        /* \"#utility.yul\":18714:18880   */\n    tag_573:\n        /* \"#utility.yul\":18798:18802   */\n      0xff\n        /* \"#utility.yul\":18794:18803   */\n      not\n        /* \"#utility.yul\":18783:18792   */\n      dup4\n        /* \"#utility.yul\":18779:18804   */\n      and\n        /* \"#utility.yul\":18774:18777   */\n      dup7\n        /* \"#utility.yul\":18767:18805   */\n      mstore\n        /* \"#utility.yul\":18860:18866   */\n      dup2\n        /* \"#utility.yul\":18853:18867   */\n      iszero\n        /* \"#utility.yul\":18846:18868   */\n      iszero\n        /* \"#utility.yul\":18838:18844   */\n      dup3\n        /* \"#utility.yul\":18834:18869   */\n      mul\n        /* \"#utility.yul\":18829:18832   */\n      dup7\n        /* \"#utility.yul\":18825:18870   */\n      add\n        /* \"#utility.yul\":18818:18870   */\n      swap4\n      pop\n        /* \"#utility.yul\":18714:18880   */\n      jump(tag_572)\n        /* \"#utility.yul\":18889:19230   */\n    tag_574:\n        /* \"#utility.yul\":18956:18994   */\n      tag_575\n        /* \"#utility.yul\":18988:18993   */\n      dup6\n        /* \"#utility.yul\":18956:18994   */\n      tag_367\n      jump\t// in\n    tag_575:\n        /* \"#utility.yul\":19016:19017   */\n      0x00\n        /* \"#utility.yul\":19030:19184   */\n    tag_576:\n        /* \"#utility.yul\":19044:19050   */\n      dup4\n        /* \"#utility.yul\":19041:19042   */\n      dup2\n        /* \"#utility.yul\":19038:19051   */\n      lt\n        /* \"#utility.yul\":19030:19184   */\n      iszero\n      tag_578\n      jumpi\n        /* \"#utility.yul\":19118:19125   */\n      dup2\n        /* \"#utility.yul\":19112:19126   */\n      sload\n        /* \"#utility.yul\":19108:19109   */\n      dup2\n        /* \"#utility.yul\":19103:19106   */\n      dup10\n        /* \"#utility.yul\":19099:19110   */\n      add\n        /* \"#utility.yul\":19092:19127   */\n      mstore\n        /* \"#utility.yul\":19168:19169   */\n      0x01\n        /* \"#utility.yul\":19159:19166   */\n      dup3\n        /* \"#utility.yul\":19155:19170   */\n      add\n        /* \"#utility.yul\":19144:19170   */\n      swap2\n      pop\n        /* \"#utility.yul\":19066:19070   */\n      0x20\n        /* \"#utility.yul\":19063:19064   */\n      dup2\n        /* \"#utility.yul\":19059:19071   */\n      add\n        /* \"#utility.yul\":19054:19071   */\n      swap1\n      pop\n        /* \"#utility.yul\":19030:19184   */\n      jump(tag_576)\n    tag_578:\n        /* \"#utility.yul\":19213:19219   */\n      dup4\n        /* \"#utility.yul\":19208:19211   */\n      dup9\n        /* \"#utility.yul\":19204:19220   */\n      add\n        /* \"#utility.yul\":19197:19220   */\n      swap6\n      pop\n        /* \"#utility.yul\":18896:19230   */\n      pop\n      pop\n        /* \"#utility.yul\":18681:19230   */\n    tag_572:\n      pop\n        /* \"#utility.yul\":18469:19236   */\n      pop\n      pop\n        /* \"#utility.yul\":18362:19236   */\n      swap3\n      swap2\n      pop\n      pop\n      jump\t// out\n        /* \"#utility.yul\":19242:19511   */\n    tag_100:\n        /* \"#utility.yul\":19371:19374   */\n      0x00\n        /* \"#utility.yul\":19393:19485   */\n      tag_580\n        /* \"#utility.yul\":19481:19484   */\n      dup3\n        /* \"#utility.yul\":19472:19478   */\n      dup5\n        /* \"#utility.yul\":19393:19485   */\n      tag_368\n      jump\t// in\n    tag_580:\n        /* \"#utility.yul\":19386:19485   */\n      swap2\n      pop\n        /* \"#utility.yul\":19502:19505   */\n      dup2\n        /* \"#utility.yul\":19495:19505   */\n      swap1\n      pop\n        /* \"#utility.yul\":19242:19511   */\n      swap3\n      swap2\n      pop\n      pop\n      jump\t// out\n        /* \"#utility.yul\":19517:19697   */\n    tag_369:\n        /* \"#utility.yul\":19565:19642   */\n      0x4e487b7100000000000000000000000000000000000000000000000000000000\n        /* \"#utility.yul\":19562:19563   */\n      0x00\n        /* \"#utility.yul\":19555:19643   */\n      mstore\n        /* \"#utility.yul\":19662:19666   */\n      0x11\n        /* \"#utility.yul\":19659:19660   */\n      0x04\n        /* \"#utility.yul\":19652:19667   */\n      mstore\n        /* \"#utility.yul\":19686:19690   */\n      0x24\n        /* \"#utility.yul\":19683:19684   */\n      0x00\n        /* \"#utility.yul\":19676:19691   */\n      revert\n        /* \"#utility.yul\":19703:19936   */\n    tag_107:\n        /* \"#utility.yul\":19742:19745   */\n      0x00\n        /* \"#utility.yul\":19765:19789   */\n      tag_583\n        /* \"#utility.yul\":19783:19788   */\n      dup3\n        /* \"#utility.yul\":19765:19789   */\n      tag_336\n      jump\t// in\n    tag_583:\n        /* \"#utility.yul\":19756:19789   */\n      swap2\n      pop\n        /* \"#utility.yul\":19811:19877   */\n      0xffffffffffffffffffffffffffffffffffffffffffffffffffffffffffffffff\n        /* \"#utility.yul\":19804:19809   */\n      dup3\n        /* \"#utility.yul\":19801:19878   */\n      sub\n        /* \"#utility.yul\":19798:19901   */\n      tag_584\n      jumpi\n        /* \"#utility.yul\":19881:19899   */\n      tag_585\n      tag_369\n      jump\t// in\n    tag_585:\n        /* \"#utility.yul\":19798:19901   */\n    tag_584:\n        /* \"#utility.yul\":19928:19929   */\n      0x01\n        /* \"#utility.yul\":19921:19926   */\n      dup3\n        /* \"#utility.yul\":19917:19930   */\n      add\n        /* \"#utility.yul\":19910:19930   */\n      swap1\n      pop\n        /* \"#utility.yul\":19703:19936   */\n      swap2\n      swap1\n      pop\n      jump\t// out\n        /* \"#utility.yul\":19942:20035   */\n    tag_370:\n        /* \"#utility.yul\":19979:19985   */\n      0x00\n        /* \"#utility.yul\":20026:20028   */\n      0x20\n        /* \"#utility.yul\":20021:20023   */\n      0x1f\n        /* \"#utility.yul\":20014:20019   */\n      dup4\n        /* \"#utility.yul\":20010:20024   */\n      add\n        /* \"#utility.yul\":20006:20029   */\n      div\n        /* \"#utility.yul\":19996:20029   */\n      swap1\n      pop\n        /* \"#utility.yul\":19942:20035   */\n      swap2\n      swap1\n      pop\n      jump\t// out\n        /* \"#utility.yul\":20041:20148   */\n    tag_371:\n        /* \"#utility.yul\":20085:20093   */\n      0x00\n        /* \"#utility.yul\":20135:20140   */\n      dup3\n        /* \"#utility.yul\":20129:20133   */\n      dup3\n        /* \"#utility.yul\":20125:20141   */\n      shl\n        /* \"#utility.yul\":20104:20141   */\n      swap1\n      pop\n        /* \"#utility.yul\":20041:20148   */\n      swap3\n      swap2\n      pop\n      pop\n      jump\t// out\n        /* \"#utility.yul\":20154:20547   */\n    tag_372:\n        /* \"#utility.yul\":20223:20229   */\n      0x00\n        /* \"#utility.yul\":20273:20274   */\n      0x08\n        /* \"#utility.yul\":20261:20271   */\n      dup4\n        /* \"#utility.yul\":20257:20275   */\n      mul\n        /* \"#utility.yul\":20296:20393   */\n      tag_589\n        /* \"#utility.yul\":20326:20392   */\n      0xffffffffffffffffffffffffffffffffffffffffffffffffffffffffffffffff\n        /* \"#utility.yul\":20315:20324   */\n      dup3\n        /* \"#utility.yul\":20296:20393   */\n      tag_371\n      jump\t// in\n    tag_589:\n        /* \"#utility.yul\":20414:20453   */\n      tag_590\n        /* \"#utility.yul\":20444:20452   */\n      dup7\n        /* \"#utility.yul\":20433:20442   */\n      dup4\n        /* \"#utility.yul\":20414:20453   */\n      tag_371\n      jump\t// in\n    tag_590:\n        /* \"#utility.yul\":20402:20453   */\n      swap6\n      pop\n        /* \"#utility.yul\":20486:20490   */\n      dup1\n        /* \"#utility.yul\":20482:20491   */\n      not\n        /* \"#utility.yul\":20475:20480   */\n      dup5\n        /* \"#utility.yul\":20471:20492   */\n      and\n        /* \"#utility.yul\":20462:20492   */\n      swap4\n      pop\n        /* \"#utility.yul\":20535:20539   */\n      dup1\n        /* \"#utility.yul\":20525:20533   */\n      dup7\n        /* \"#utility.yul\":20521:20540   */\n      and\n        /* \"#utility.yul\":20514:20519   */\n      dup5\n        /* \"#utility.yul\":20511:20541   */\n      or\n        /* \"#utility.yul\":20501:20541   */\n      swap3\n      pop\n        /* \"#utility.yul\":20230:20547   */\n      pop\n      pop\n        /* \"#utility.yul\":20154:20547   */\n      swap4\n      swap3\n      pop\n      pop\n      pop\n      jump\t// out\n        /* \"#utility.yul\":20553:20613   */\n    tag_373:\n        /* \"#utility.yul\":20581:20584   */\n      0x00\n        /* \"#utility.yul\":20602:20607   */\n      dup2\n        /* \"#utility.yul\":20595:20607   */\n      swap1\n      pop\n        /* \"#utility.yul\":20553:20613   */\n      swap2\n      swap1\n      pop\n      jump\t// out\n        /* \"#utility.yul\":20619:20761   */\n    tag_374:\n        /* \"#utility.yul\":20669:20678   */\n      0x00\n        /* \"#utility.yul\":20702:20755   */\n      tag_593\n        /* \"#utility.yul\":20720:20754   */\n      tag_594\n        /* \"#utility.yul\":20729:20753   */\n      tag_595\n        /* \"#utility.yul\":20747:20752   */\n      dup5\n        /* \"#utility.yul\":20729:20753   */\n      tag_336\n      jump\t// in\n    tag_595:\n        /* \"#utility.yul\":20720:20754   */\n      tag_373\n      jump\t// in\n    tag_594:\n        /* \"#utility.yul\":20702:20755   */\n      tag_336\n      jump\t// in\n    tag_593:\n        /* \"#utility.yul\":20689:20755   */\n      swap1\n      pop\n        /* \"#utility.yul\":20619:20761   */\n      swap2\n      swap1\n      pop\n      jump\t// out\n        /* \"#utility.yul\":20767:20842   */\n    tag_375:\n        /* \"#utility.yul\":20810:20813   */\n      0x00\n        /* \"#utility.yul\":20831:20836   */\n      dup2\n        /* \"#utility.yul\":20824:20836   */\n      swap1\n      pop\n        /* \"#utility.yul\":20767:20842   */\n      swap2\n      swap1\n      pop\n      jump\t// out\n        /* \"#utility.yul\":20848:21117   */\n    tag_376:\n        /* \"#utility.yul\":20958:20997   */\n      tag_598\n        /* \"#utility.yul\":20989:20996   */\n      dup4\n        /* \"#utility.yul\":20958:20997   */\n      tag_374\n      jump\t// in\n    tag_598:\n        /* \"#utility.yul\":21019:21110   */\n      tag_599\n        /* \"#utility.yul\":21068:21109   */\n      tag_600\n        /* \"#utility.yul\":21092:21108   */\n      dup3\n        /* \"#utility.yul\":21068:21109   */\n      tag_375\n      jump\t// in\n    tag_600:\n        /* \"#utility.yul\":21060:21066   */\n      dup5\n        /* \"#utility.yul\":21053:21057   */\n      dup5\n        /* \"#utility.yul\":21047:21058   */\n      sload\n        /* \"#utility.yul\":21019:21110   */\n      tag_372\n      jump\t// in\n    tag_599:\n        /* \"#utility.yul\":21013:21017   */\n      dup3\n        /* \"#utility.yul\":21006:21111   */\n      sstore\n        /* \"#utility.yul\":20924:21117   */\n      pop\n        /* \"#utility.yul\":20848:21117   */\n      pop\n      pop\n      pop\n      jump\t// out\n        /* \"#utility.yul\":21123:21196   */\n    tag_377:\n        /* \"#utility.yul\":21168:21171   */\n      0x00\n        /* \"#utility.yul\":21123:21196   */\n      swap1\n      jump\t// out\n        /* \"#utility.yul\":21202:21391   */\n    tag_378:\n        /* \"#utility.yul\":21279:21311   */\n      tag_603\n      tag_377\n      jump\t// in\n    tag_603:\n        /* \"#utility.yul\":21320:21385   */\n      tag_604\n        /* \"#utility.yul\":21378:21384   */\n      dup2\n        /* \"#utility.yul\":21370:21376   */\n      dup5\n        /* \"#utility.yul\":21364:21368   */\n      dup5\n        /* \"#utility.yul\":21320:21385   */\n      tag_376\n      jump\t// in\n    tag_604:\n        /* \"#utility.yul\":21255:21391   */\n      pop\n        /* \"#utility.yul\":21202:21391   */\n      pop\n      pop\n      jump\t// out\n        /* \"#utility.yul\":21397:21583   */\n    tag_379:\n        /* \"#utility.yul\":21457:21577   */\n    tag_606:\n        /* \"#utility.yul\":21474:21477   */\n      dup2\n        /* \"#utility.yul\":21467:21472   */\n      dup2\n        /* \"#utility.yul\":21464:21478   */\n      lt\n        /* \"#utility.yul\":21457:21577   */\n      iszero\n      tag_608\n      jumpi\n        /* \"#utility.yul\":21528:21567   */\n      tag_609\n        /* \"#utility.yul\":21565:21566   */\n      0x00\n        /* \"#utility.yul\":21558:21563   */\n      dup3\n        /* \"#utility.yul\":21528:21567   */\n      tag_378\n      jump\t// in\n    tag_609:\n        /* \"#utility.yul\":21501:21502   */\n      0x01\n        /* \"#utility.yul\":21494:21499   */\n      dup2\n        /* \"#utility.yul\":21490:21503   */\n      add\n        /* \"#utility.yul\":21481:21503   */\n      swap1\n      pop\n        /* \"#utility.yul\":21457:21577   */\n      jump(tag_606)\n    tag_608:\n        /* \"#utility.yul\":21397:21583   */\n      pop\n      pop\n      jump\t// out\n        /* \"#utility.yul\":21589:22132   */\n    tag_380:\n        /* \"#utility.yul\":21690:21692   */\n      0x1f\n        /* \"#utility.yul\":21685:21688   */\n      dup3\n        /* \"#utility.yul\":21682:21693   */\n      gt\n        /* \"#utility.yul\":21679:22125   */\n      iszero\n      tag_611\n      jumpi\n        /* \"#utility.yul\":21724:21762   */\n      tag_612\n        /* \"#utility.yul\":21756:21761   */\n      dup2\n        /* \"#utility.yul\":21724:21762   */\n      tag_367\n      jump\t// in\n    tag_612:\n        /* \"#utility.yul\":21808:21837   */\n      tag_613\n        /* \"#utility.yul\":21826:21836   */\n      dup5\n        /* \"#utility.yul\":21808:21837   */\n      tag_370\n      jump\t// in\n    tag_613:\n        /* \"#utility.yul\":21798:21806   */\n      dup2\n        /* \"#utility.yul\":21794:21838   */\n      add\n        /* \"#utility.yul\":21991:21993   */\n      0x20\n        /* \"#utility.yul\":21979:21989   */\n      dup6\n        /* \"#utility.yul\":21976:21994   */\n      lt\n        /* \"#utility.yul\":21973:22022   */\n      iszero\n      tag_614\n      jumpi\n        /* \"#utility.yul\":22012:22020   */\n      dup2\n        /* \"#utility.yul\":21997:22020   */\n      swap1\n      pop\n        /* \"#utility.yul\":21973:22022   */\n    tag_614:\n        /* \"#utility.yul\":22035:22115   */\n      tag_615\n        /* \"#utility.yul\":22091:22113   */\n      tag_616\n        /* \"#utility.yul\":22109:22112   */\n      dup6\n        /* \"#utility.yul\":22091:22113   */\n      tag_370\n      jump\t// in\n    tag_616:\n        /* \"#utility.yul\":22081:22089   */\n      dup4\n        /* \"#utility.yul\":22077:22114   */\n      add\n        /* \"#utility.yul\":22064:22075   */\n      dup3\n        /* \"#utility.yul\":22035:22115   */\n      tag_379\n      jump\t// in\n    tag_615:\n        /* \"#utility.yul\":21694:22125   */\n      pop\n      pop\n        /* \"#utility.yul\":21679:22125   */\n    tag_611:\n        /* \"#utility.yul\":21589:22132   */\n      pop\n      pop\n      pop\n      jump\t// out\n        /* \"#utility.yul\":22138:22255   */\n    tag_381:\n        /* \"#utility.yul\":22192:22200   */\n      0x00\n        /* \"#utility.yul\":22242:22247   */\n      dup3\n        /* \"#utility.yul\":22236:22240   */\n      dup3\n        /* \"#utility.yul\":22232:22248   */\n      shr\n        /* \"#utility.yul\":22211:22248   */\n      swap1\n      pop\n        /* \"#utility.yul\":22138:22255   */\n      swap3\n      swap2\n      pop\n      pop\n      jump\t// out\n        /* \"#utility.yul\":22261:22430   */\n    tag_382:\n        /* \"#utility.yul\":22305:22311   */\n      0x00\n        /* \"#utility.yul\":22338:22389   */\n      tag_619\n        /* \"#utility.yul\":22386:22387   */\n      0x00\n        /* \"#utility.yul\":22382:22388   */\n      not\n        /* \"#utility.yul\":22374:22379   */\n      dup5\n        /* \"#utility.yul\":22371:22372   */\n      0x08\n        /* \"#utility.yul\":22367:22380   */\n      mul\n        /* \"#utility.yul\":22338:22389   */\n      tag_381\n      jump\t// in\n    tag_619:\n        /* \"#utility.yul\":22334:22390   */\n      not\n        /* \"#utility.yul\":22419:22423   */\n      dup1\n        /* \"#utility.yul\":22413:22417   */\n      dup4\n        /* \"#utility.yul\":22409:22424   */\n      and\n        /* \"#utility.yul\":22399:22424   */\n      swap2\n      pop\n        /* \"#utility.yul\":22312:22430   */\n      pop\n        /* \"#utility.yul\":22261:22430   */\n      swap3\n      swap2\n      pop\n      pop\n      jump\t// out\n        /* \"#utility.yul\":22435:22730   */\n    tag_383:\n        /* \"#utility.yul\":22511:22515   */\n      0x00\n        /* \"#utility.yul\":22657:22686   */\n      tag_621\n        /* \"#utility.yul\":22682:22685   */\n      dup4\n        /* \"#utility.yul\":22676:22680   */\n      dup4\n        /* \"#utility.yul\":22657:22686   */\n      tag_382\n      jump\t// in\n    tag_621:\n        /* \"#utility.yul\":22649:22686   */\n      swap2\n      pop\n        /* \"#utility.yul\":22719:22722   */\n      dup3\n        /* \"#utility.yul\":22716:22717   */\n      0x02\n        /* \"#utility.yul\":22712:22723   */\n      mul\n        /* \"#utility.yul\":22706:22710   */\n      dup3\n        /* \"#utility.yul\":22703:22724   */\n      or\n        /* \"#utility.yul\":22695:22724   */\n      swap1\n      pop\n        /* \"#utility.yul\":22435:22730   */\n      swap3\n      swap2\n      pop\n      pop\n      jump\t// out\n        /* \"#utility.yul\":22735:24130   */\n    tag_119:\n        /* \"#utility.yul\":22852:22889   */\n      tag_623\n        /* \"#utility.yul\":22885:22888   */\n      dup3\n        /* \"#utility.yul\":22852:22889   */\n      tag_348\n      jump\t// in\n    tag_623:\n        /* \"#utility.yul\":22954:22972   */\n      0xffffffffffffffff\n        /* \"#utility.yul\":22946:22952   */\n      dup2\n        /* \"#utility.yul\":22943:22973   */\n      gt\n        /* \"#utility.yul\":22940:22996   */\n      iszero\n      tag_624\n      jumpi\n        /* \"#utility.yul\":22976:22994   */\n      tag_625\n      tag_329\n      jump\t// in\n    tag_625:\n        /* \"#utility.yul\":22940:22996   */\n    tag_624:\n        /* \"#utility.yul\":23020:23058   */\n      tag_626\n        /* \"#utility.yul\":23052:23056   */\n      dup3\n        /* \"#utility.yul\":23046:23057   */\n      sload\n        /* \"#utility.yul\":23020:23058   */\n      tag_184\n      jump\t// in\n    tag_626:\n        /* \"#utility.yul\":23105:23172   */\n      tag_627\n        /* \"#utility.yul\":23165:23171   */\n      dup3\n        /* \"#utility.yul\":23157:23163   */\n      dup3\n        /* \"#utility.yul\":23151:23155   */\n      dup6\n        /* \"#utility.yul\":23105:23172   */\n      tag_380\n      jump\t// in\n    tag_627:\n        /* \"#utility.yul\":23199:23200   */\n      0x00\n        /* \"#utility.yul\":23223:23227   */\n      0x20\n        /* \"#utility.yul\":23210:23227   */\n      swap1\n      pop\n        /* \"#utility.yul\":23255:23257   */\n      0x1f\n        /* \"#utility.yul\":23247:23253   */\n      dup4\n        /* \"#utility.yul\":23244:23258   */\n      gt\n        /* \"#utility.yul\":23272:23273   */\n      0x01\n        /* \"#utility.yul\":23267:23885   */\n      dup2\n      eq\n      tag_629\n      jumpi\n        /* \"#utility.yul\":23929:23930   */\n      0x00\n        /* \"#utility.yul\":23946:23952   */\n      dup5\n        /* \"#utility.yul\":23943:24020   */\n      iszero\n      tag_630\n      jumpi\n        /* \"#utility.yul\":23995:24004   */\n      dup3\n        /* \"#utility.yul\":23990:23993   */\n      dup8\n        /* \"#utility.yul\":23986:24005   */\n      add\n        /* \"#utility.yul\":23980:24006   */\n      mload\n        /* \"#utility.yul\":23971:24006   */\n      swap1\n      pop\n        /* \"#utility.yul\":23943:24020   */\n    tag_630:\n        /* \"#utility.yul\":24046:24113   */\n      tag_631\n        /* \"#utility.yul\":24106:24112   */\n      dup6\n        /* \"#utility.yul\":24099:24104   */\n      dup3\n        /* \"#utility.yul\":24046:24113   */\n      tag_383\n      jump\t// in\n    tag_631:\n        /* \"#utility.yul\":24040:24044   */\n      dup7\n        /* \"#utility.yul\":24033:24114   */\n      sstore\n        /* \"#utility.yul\":23902:24124   */\n      pop\n        /* \"#utility.yul\":23237:24124   */\n      jump(tag_628)\n        /* \"#utility.yul\":23267:23885   */\n    tag_629:\n        /* \"#utility.yul\":23319:23323   */\n      0x1f\n        /* \"#utility.yul\":23315:23324   */\n      not\n        /* \"#utility.yul\":23307:23313   */\n      dup5\n        /* \"#utility.yul\":23303:23325   */\n      and\n        /* \"#utility.yul\":23353:23390   */\n      tag_632\n        /* \"#utility.yul\":23385:23389   */\n      dup7\n        /* \"#utility.yul\":23353:23390   */\n      tag_367\n      jump\t// in\n    tag_632:\n        /* \"#utility.yul\":23412:23413   */\n      0x00\n        /* \"#utility.yul\":23426:23634   */\n    tag_633:\n        /* \"#utility.yul\":23440:23447   */\n      dup3\n        /* \"#utility.yul\":23437:23438   */\n      dup2\n        /* \"#utility.yul\":23434:23448   */\n      lt\n        /* \"#utility.yul\":23426:23634   */\n      iszero\n      tag_635\n      jumpi\n        /* \"#utility.yul\":23519:23528   */\n      dup5\n        /* \"#utility.yul\":23514:23517   */\n      dup10\n        /* \"#utility.yul\":23510:23529   */\n      add\n        /* \"#utility.yul\":23504:23530   */\n      mload\n        /* \"#utility.yul\":23496:23502   */\n      dup3\n        /* \"#utility.yul\":23489:23531   */\n      sstore\n        /* \"#utility.yul\":23570:23571   */\n      0x01\n        /* \"#utility.yul\":23562:23568   */\n      dup3\n        /* \"#utility.yul\":23558:23572   */\n      add\n        /* \"#utility.yul\":23548:23572   */\n      swap2\n      pop\n        /* \"#utility.yul\":23617:23619   */\n      0x20\n        /* \"#utility.yul\":23606:23615   */\n      dup6\n        /* \"#utility.yul\":23602:23620   */\n      add\n        /* \"#utility.yul\":23589:23620   */\n      swap5\n      pop\n        /* \"#utility.yul\":23463:23467   */\n      0x20\n        /* \"#utility.yul\":23460:23461   */\n      dup2\n        /* \"#utility.yul\":23456:23468   */\n      add\n        /* \"#utility.yul\":23451:23468   */\n      swap1\n      pop\n        /* \"#utility.yul\":23426:23634   */\n      jump(tag_633)\n    tag_635:\n        /* \"#utility.yul\":23662:23668   */\n      dup7\n        /* \"#utility.yul\":23653:23660   */\n      dup4\n        /* \"#utility.yul\":23650:23669   */\n      lt\n        /* \"#utility.yul\":23647:23826   */\n      iszero\n      tag_636\n      jumpi\n        /* \"#utility.yul\":23720:23729   */\n      dup5\n        /* \"#utility.yul\":23715:23718   */\n      dup10\n        /* \"#utility.yul\":23711:23730   */\n      add\n        /* \"#utility.yul\":23705:23731   */\n      mload\n        /* \"#utility.yul\":23763:23811   */\n      tag_637\n        /* \"#utility.yul\":23805:23809   */\n      0x1f\n        /* \"#utility.yul\":23797:23803   */\n      dup10\n        /* \"#utility.yul\":23793:23810   */\n      and\n        /* \"#utility.yul\":23782:23791   */\n      dup3\n        /* \"#utility.yul\":23763:23811   */\n      tag_382\n      jump\t// in\n    tag_637:\n        /* \"#utility.yul\":23755:23761   */\n      dup4\n        /* \"#utility.yul\":23748:23812   */\n      sstore\n        /* \"#utility.yul\":23670:23826   */\n      pop\n        /* \"#utility.yul\":23647:23826   */\n    tag_636:\n        /* \"#utility.yul\":23872:23873   */\n      0x01\n        /* \"#utility.yul\":23868:23869   */\n      0x02\n        /* \"#utility.yul\":23860:23866   */\n      dup9\n        /* \"#utility.yul\":23856:23870   */\n      mul\n        /* \"#utility.yul\":23852:23874   */\n      add\n        /* \"#utility.yul\":23846:23850   */\n      dup9\n        /* \"#utility.yul\":23839:23875   */\n      sstore\n        /* \"#utility.yul\":23274:23885   */\n      pop\n      pop\n      pop\n        /* \"#utility.yul\":23237:24124   */\n    tag_628:\n      pop\n        /* \"#utility.yul\":22827:24130   */\n      pop\n      pop\n      pop\n        /* \"#utility.yul\":22735:24130   */\n      pop\n      pop\n      jump\t// out\n        /* \"#utility.yul\":24136:24441   */\n    tag_213:\n        /* \"#utility.yul\":24176:24179   */\n      0x00\n        /* \"#utility.yul\":24195:24215   */\n      tag_639\n        /* \"#utility.yul\":24213:24214   */\n      dup3\n        /* \"#utility.yul\":24195:24215   */\n      tag_336\n      jump\t// in\n    tag_639:\n        /* \"#utility.yul\":24190:24215   */\n      swap2\n      pop\n        /* \"#utility.yul\":24229:24249   */\n      tag_640\n        /* \"#utility.yul\":24247:24248   */\n      dup4\n        /* \"#utility.yul\":24229:24249   */\n      tag_336\n      jump\t// in\n    tag_640:\n        /* \"#utility.yul\":24224:24249   */\n      swap3\n      pop\n        /* \"#utility.yul\":24383:24384   */\n      dup3\n        /* \"#utility.yul\":24315:24381   */\n      0xffffffffffffffffffffffffffffffffffffffffffffffffffffffffffffffff\n        /* \"#utility.yul\":24311:24385   */\n      sub\n        /* \"#utility.yul\":24308:24309   */\n      dup3\n        /* \"#utility.yul\":24305:24386   */\n      gt\n        /* \"#utility.yul\":24302:24409   */\n      iszero\n      tag_641\n      jumpi\n        /* \"#utility.yul\":24389:24407   */\n      tag_642\n      tag_369\n      jump\t// in\n    tag_642:\n        /* \"#utility.yul\":24302:24409   */\n    tag_641:\n        /* \"#utility.yul\":24433:24434   */\n      dup3\n        /* \"#utility.yul\":24430:24431   */\n      dup3\n        /* \"#utility.yul\":24426:24435   */\n      add\n        /* \"#utility.yul\":24419:24435   */\n      swap1\n      pop\n        /* \"#utility.yul\":24136:24441   */\n      swap3\n      swap2\n      pop\n      pop\n      jump\t// out\n        /* \"#utility.yul\":24447:24638   */\n    tag_265:\n        /* \"#utility.yul\":24487:24491   */\n      0x00\n        /* \"#utility.yul\":24507:24527   */\n      tag_644\n        /* \"#utility.yul\":24525:24526   */\n      dup3\n        /* \"#utility.yul\":24507:24527   */\n      tag_336\n      jump\t// in\n    tag_644:\n        /* \"#utility.yul\":24502:24527   */\n      swap2\n      pop\n        /* \"#utility.yul\":24541:24561   */\n      tag_645\n        /* \"#utility.yul\":24559:24560   */\n      dup4\n        /* \"#utility.yul\":24541:24561   */\n      tag_336\n      jump\t// in\n    tag_645:\n        /* \"#utility.yul\":24536:24561   */\n      swap3\n      pop\n        /* \"#utility.yul\":24580:24581   */\n      dup3\n        /* \"#utility.yul\":24577:24578   */\n      dup3\n        /* \"#utility.yul\":24574:24582   */\n      lt\n        /* \"#utility.yul\":24571:24605   */\n      iszero\n      tag_646\n      jumpi\n        /* \"#utility.yul\":24585:24603   */\n      tag_647\n      tag_369\n      jump\t// in\n    tag_647:\n        /* \"#utility.yul\":24571:24605   */\n    tag_646:\n        /* \"#utility.yul\":24630:24631   */\n      dup3\n        /* \"#utility.yul\":24627:24628   */\n      dup3\n        /* \"#utility.yul\":24623:24632   */\n      sub\n        /* \"#utility.yul\":24615:24632   */\n      swap1\n      pop\n        /* \"#utility.yul\":24447:24638   */\n      swap3\n      swap2\n      pop\n      pop\n      jump\t// out\n        /* \"#utility.yul\":24644:24869   */\n    tag_384:\n        /* \"#utility.yul\":24784:24818   */\n      0x4f776e61626c653a206e6577206f776e657220697320746865207a65726f2061\n        /* \"#utility.yul\":24780:24781   */\n      0x00\n        /* \"#utility.yul\":24772:24778   */\n      dup3\n        /* \"#utility.yul\":24768:24782   */\n      add\n        /* \"#utility.yul\":24761:24819   */\n      mstore\n        /* \"#utility.yul\":24853:24861   */\n      0x6464726573730000000000000000000000000000000000000000000000000000\n        /* \"#utility.yul\":24848:24850   */\n      0x20\n        /* \"#utility.yul\":24840:24846   */\n      dup3\n        /* \"#utility.yul\":24836:24851   */\n      add\n        /* \"#utility.yul\":24829:24862   */\n      mstore\n        /* \"#utility.yul\":24644:24869   */\n      pop\n      jump\t// out\n        /* \"#utility.yul\":24875:25241   */\n    tag_385:\n        /* \"#utility.yul\":25017:25020   */\n      0x00\n        /* \"#utility.yul\":25038:25105   */\n      tag_650\n        /* \"#utility.yul\":25102:25104   */\n      0x26\n        /* \"#utility.yul\":25097:25100   */\n      dup4\n        /* \"#utility.yul\":25038:25105   */\n      tag_349\n      jump\t// in\n    tag_650:\n        /* \"#utility.yul\":25031:25105   */\n      swap2\n      pop\n        /* \"#utility.yul\":25114:25207   */\n      tag_651\n        /* \"#utility.yul\":25203:25206   */\n      dup3\n        /* \"#utility.yul\":25114:25207   */\n      tag_384\n      jump\t// in\n    tag_651:\n        /* \"#utility.yul\":25232:25234   */\n      0x40\n        /* \"#utility.yul\":25227:25230   */\n      dup3\n        /* \"#utility.yul\":25223:25235   */\n      add\n        /* \"#utility.yul\":25216:25235   */\n      swap1\n      pop\n        /* \"#utility.yul\":24875:25241   */\n      swap2\n      swap1\n      pop\n      jump\t// out\n        /* \"#utility.yul\":25247:25666   */\n    tag_279:\n        /* \"#utility.yul\":25413:25417   */\n      0x00\n        /* \"#utility.yul\":25451:25453   */\n      0x20\n        /* \"#utility.yul\":25440:25449   */\n      dup3\n        /* \"#utility.yul\":25436:25454   */\n      add\n        /* \"#utility.yul\":25428:25454   */\n      swap1\n      pop\n        /* \"#utility.yul\":25500:25509   */\n      dup2\n        /* \"#utility.yul\":25494:25498   */\n      dup2\n        /* \"#utility.yul\":25490:25510   */\n      sub\n        /* \"#utility.yul\":25486:25487   */\n      0x00\n        /* \"#utility.yul\":25475:25484   */\n      dup4\n        /* \"#utility.yul\":25471:25488   */\n      add\n        /* \"#utility.yul\":25464:25511   */\n      mstore\n        /* \"#utility.yul\":25528:25659   */\n      tag_653\n        /* \"#utility.yul\":25654:25658   */\n      dup2\n        /* \"#utility.yul\":25528:25659   */\n      tag_385\n      jump\t// in\n    tag_653:\n        /* \"#utility.yul\":25520:25659   */\n      swap1\n      pop\n        /* \"#utility.yul\":25247:25666   */\n      swap2\n      swap1\n      pop\n      jump\t// out\n\n    auxdata: 0xa2646970667358221220c93f8d16bd82c7d8468cf63eae3dad1e03cab5c3c20a6fa046d7769eabcc479464736f6c634300080f0033\n}\n",
				"bytecode": {
					"linkReferences": {},
					"object": "60806040523480156200001157600080fd5b5062000032620000266200003860201b60201c565b6200004060201b60201c565b62000104565b600033905090565b60008060009054906101000a900473ffffffffffffffffffffffffffffffffffffffff169050816000806101000a81548173ffffffffffffffffffffffffffffffffffffffff021916908373ffffffffffffffffffffffffffffffffffffffff1602179055508173ffffffffffffffffffffffffffffffffffffffff168173ffffffffffffffffffffffffffffffffffffffff167f8be0079c531659141344cd1fd0a4f28419497f9722a3daafe3b4186f6b6457e060405160405180910390a35050565b61250a80620001146000396000f3fe608060405234801561001057600080fd5b50600436106100ea5760003560e01c8063967572ce1161008c578063df6a9a6911610066578063df6a9a6914610222578063e50d793414610252578063f2fde38b1461026e578063f4bf93be1461028a576100ea565b8063967572ce146101b9578063a07990c8146101d5578063c744f2b214610206576100ea565b8063513f8b02116100c8578063513f8b0214610159578063715018a6146101755780637a63e74e1461017f5780638da5cb5b1461019b576100ea565b806302784721146100ef5780632a596f571461011f5780632dd7ed5f14610129575b600080fd5b61010960048036038101906101049190611837565b6102bd565b60405161011691906118c8565b60405180910390f35b610127610480565b005b610143600480360381019061013e91906119d5565b610482565b6040516101509190611a68565b60405180910390f35b610173600480360381019061016e9190611837565b6105c1565b005b61017d6106c8565b005b610199600480360381019061019491906119d5565b610750565b005b6101a3610887565b6040516101b09190611ac4565b60405180910390f35b6101d360048036038101906101ce9190611837565b6108b0565b005b6101ef60048036038101906101ea9190611b0b565b610a7c565b6040516101fd929190611bef565b60405180910390f35b610220600480360381019061021b9190611c1f565b610b5b565b005b61023c60048036038101906102379190611caa565b610d61565b6040516102499190611dff565b60405180910390f35b61026c60048036038101906102679190611c1f565b610f18565b005b61028860048036038101906102839190611e4d565b61111e565b005b6102a4600480360381019061029f9190611caa565b611215565b6040516102b49493929190611e7a565b60405180910390f35b60006102c761147b565b73ffffffffffffffffffffffffffffffffffffffff166102e5610887565b73ffffffffffffffffffffffffffffffffffffffff161461033b576040517f08c379a000000000000000000000000000000000000000000000000000000000815260040161033290611f27565b60405180910390fd5b6103458383611483565b61034e57600080fd5b60006002846040516103609190611f83565b90815260200160405180910390208054905090506000836040516020016103879190611f83565b60405160208183030381529060405280519060200120905060005b8281101561047657816002876040516103bb9190611f83565b908152602001604051809103902082815481106103db576103da611f9a565b5b90600052602060002090600202016000016040516020016103fc91906120c1565b6040516020818303038152906040528051906020012003610463576002866040516104279190611f83565b9081526020016040518091039020818154811061044757610446611f9a565b5b906000526020600020906002020160010154935050505061047a565b808061046e90612107565b9150506103a2565b5050505b92915050565b565b600061048c61147b565b73ffffffffffffffffffffffffffffffffffffffff166104aa610887565b73ffffffffffffffffffffffffffffffffffffffff1614610500576040517f08c379a00000000000000000000000000000000000000000000000000000000081526004016104f790611f27565b60405180910390fd5b61050861163e565b826000015181600001819052508260200151816020018190525082604001518160400181905250826060015181606001819052508060018560405161054d9190611f83565b9081526020016040518091039020600082015181600001908161057091906122e6565b50602082015181600101908161058691906122e6565b50604082015181600201908161059c91906122e6565b5060608201518160030190816105b291906122e6565b50905050600191505092915050565b6105c961147b565b73ffffffffffffffffffffffffffffffffffffffff166105e7610887565b73ffffffffffffffffffffffffffffffffffffffff161461063d576040517f08c379a000000000000000000000000000000000000000000000000000000000815260040161063490611f27565b60405180910390fd5b610645611666565b81816000018190525060008160200181815250506002836040516106699190611f83565b908152602001604051809103902081908060018154018082558091505060019003906000526020600020906002020160009091909190915060008201518160000190816106b691906122e6565b50602082015181600101555050505050565b6106d061147b565b73ffffffffffffffffffffffffffffffffffffffff166106ee610887565b73ffffffffffffffffffffffffffffffffffffffff1614610744576040517f08c379a000000000000000000000000000000000000000000000000000000000815260040161073b90611f27565b60405180910390fd5b61074e600061157a565b565b61075861147b565b73ffffffffffffffffffffffffffffffffffffffff16610776610887565b73ffffffffffffffffffffffffffffffffffffffff16146107cc576040517f08c379a00000000000000000000000000000000000000000000000000000000081526004016107c390611f27565b60405180910390fd5b6107d461163e565b81600001518160000181905250816020015181602001819052508160400151816040018190525081606001518160600181905250806001846040516108199190611f83565b9081526020016040518091039020600082015181600001908161083c91906122e6565b50602082015181600101908161085291906122e6565b50604082015181600201908161086891906122e6565b50606082015181600301908161087e91906122e6565b50905050505050565b60008060009054906101000a900473ffffffffffffffffffffffffffffffffffffffff16905090565b6108b861147b565b73ffffffffffffffffffffffffffffffffffffffff166108d6610887565b73ffffffffffffffffffffffffffffffffffffffff161461092c576040517f08c379a000000000000000000000000000000000000000000000000000000000815260040161092390611f27565b60405180910390fd5b6109368282611483565b61093f57600080fd5b60006002836040516109519190611f83565b90815260200160405180910390208054905090506000826040516020016109789190611f83565b60405160208183030381529060405280519060200120905060005b82811015610a7557816002866040516109ac9190611f83565b908152602001604051809103902082815481106109cc576109cb611f9a565b5b90600052602060002090600202016000016040516020016109ed91906120c1565b6040516020818303038152906040528051906020012003610a6257600285604051610a189190611f83565b90815260200160405180910390208181548110610a3857610a37611f9a565b5b906000526020600020906002020160008082016000610a579190611680565b600182016000905550505b8080610a6d90612107565b915050610993565b5050505050565b6002828051602081018201805184825260208301602085012081835280955050505050508181548110610aae57600080fd5b906000526020600020906002020160009150915050806000018054610ad290611ff8565b80601f0160208091040260200160405190810160405280929190818152602001828054610afe90611ff8565b8015610b4b5780601f10610b2057610100808354040283529160200191610b4b565b820191906000526020600020905b815481529060010190602001808311610b2e57829003601f168201915b5050505050908060010154905082565b610b6361147b565b73ffffffffffffffffffffffffffffffffffffffff16610b81610887565b73ffffffffffffffffffffffffffffffffffffffff1614610bd7576040517f08c379a0000000000000000000000000000000000000000000000000000000008152600401610bce90611f27565b60405180910390fd5b610be18383611483565b610bea57600080fd5b6000600284604051610bfc9190611f83565b9081526020016040518091039020805490509050600083604051602001610c239190611f83565b60405160208183030381529060405280519060200120905060005b82811015610d595781600287604051610c579190611f83565b90815260200160405180910390208281548110610c7757610c76611f9a565b5b9060005260206000209060020201600001604051602001610c9891906120c1565b6040516020818303038152906040528051906020012003610d465783600287604051610cc49190611f83565b90815260200160405180910390208281548110610ce457610ce3611f9a565b5b906000526020600020906002020160010154610d0091906123b8565b600287604051610d109190611f83565b90815260200160405180910390208281548110610d3057610d2f611f9a565b5b9060005260206000209060020201600101819055505b8080610d5190612107565b915050610c3e565b505050505050565b6060610d6b61147b565b73ffffffffffffffffffffffffffffffffffffffff16610d89610887565b73ffffffffffffffffffffffffffffffffffffffff1614610ddf576040517f08c379a0000000000000000000000000000000000000000000000000000000008152600401610dd690611f27565b60405180910390fd5b60606000600284604051610df39190611f83565b908152602001604051809103902080549050905060005b81811015610f0d57600285604051610e229190611f83565b90815260200160405180910390208181548110610e4257610e41611f9a565b5b90600052602060002090600202016000018054610e5e90611ff8565b80601f0160208091040260200160405190810160405280929190818152602001828054610e8a90611ff8565b8015610ed75780601f10610eac57610100808354040283529160200191610ed7565b820191906000526020600020905b815481529060010190602001808311610eba57829003601f168201915b5050505050838281518110610eef57610eee611f9a565b5b60200260200101819052508080610f0590612107565b915050610e0a565b508192505050919050565b610f2061147b565b73ffffffffffffffffffffffffffffffffffffffff16610f3e610887565b73ffffffffffffffffffffffffffffffffffffffff1614610f94576040517f08c379a0000000000000000000000000000000000000000000000000000000008152600401610f8b90611f27565b60405180910390fd5b610f9e8383611483565b610fa757600080fd5b6000600284604051610fb99190611f83565b9081526020016040518091039020805490509050600083604051602001610fe09190611f83565b60405160208183030381529060405280519060200120905060005b8281101561111657816002876040516110149190611f83565b9081526020016040518091039020828154811061103457611033611f9a565b5b906000526020600020906002020160000160405160200161105591906120c1565b604051602081830303815290604052805190602001200361110357836002876040516110819190611f83565b908152602001604051809103902082815481106110a1576110a0611f9a565b5b9060005260206000209060020201600101546110bd919061240e565b6002876040516110cd9190611f83565b908152602001604051809103902082815481106110ed576110ec611f9a565b5b9060005260206000209060020201600101819055505b808061110e90612107565b915050610ffb565b505050505050565b61112661147b565b73ffffffffffffffffffffffffffffffffffffffff16611144610887565b73ffffffffffffffffffffffffffffffffffffffff161461119a576040517f08c379a000000000000000000000000000000000000000000000000000000000815260040161119190611f27565b60405180910390fd5b600073ffffffffffffffffffffffffffffffffffffffff168173ffffffffffffffffffffffffffffffffffffffff1603611209576040517f08c379a0000000000000000000000000000000000000000000000000000000008152600401611200906124b4565b60405180910390fd5b6112128161157a565b50565b60018180516020810182018051848252602083016020850120818352809550505050505060009150905080600001805461124e90611ff8565b80601f016020809104026020016040519081016040528092919081815260200182805461127a90611ff8565b80156112c75780601f1061129c576101008083540402835291602001916112c7565b820191906000526020600020905b8154815290600101906020018083116112aa57829003601f168201915b5050505050908060010180546112dc90611ff8565b80601f016020809104026020016040519081016040528092919081815260200182805461130890611ff8565b80156113555780601f1061132a57610100808354040283529160200191611355565b820191906000526020600020905b81548152906001019060200180831161133857829003601f168201915b50505050509080600201805461136a90611ff8565b80601f016020809104026020016040519081016040528092919081815260200182805461139690611ff8565b80156113e35780601f106113b8576101008083540402835291602001916113e3565b820191906000526020600020905b8154815290600101906020018083116113c657829003601f168201915b5050505050908060030180546113f890611ff8565b80601f016020809104026020016040519081016040528092919081815260200182805461142490611ff8565b80156114715780601f1061144657610100808354040283529160200191611471565b820191906000526020600020905b81548152906001019060200180831161145457829003601f168201915b5050505050905084565b600033905090565b6000806002846040516114969190611f83565b90815260200160405180910390208054905090506000836040516020016114bd9190611f83565b60405160208183030381529060405280519060200120905060005b8281101561156c57816002876040516114f19190611f83565b9081526020016040518091039020828154811061151157611510611f9a565b5b906000526020600020906002020160000160405160200161153291906120c1565b60405160208183030381529060405280519060200120036115595760019350505050611574565b808061156490612107565b9150506114d8565b506000925050505b92915050565b60008060009054906101000a900473ffffffffffffffffffffffffffffffffffffffff169050816000806101000a81548173ffffffffffffffffffffffffffffffffffffffff021916908373ffffffffffffffffffffffffffffffffffffffff1602179055508173ffffffffffffffffffffffffffffffffffffffff168173ffffffffffffffffffffffffffffffffffffffff167f8be0079c531659141344cd1fd0a4f28419497f9722a3daafe3b4186f6b6457e060405160405180910390a35050565b6040518060800160405280606081526020016060815260200160608152602001606081525090565b604051806040016040528060608152602001600081525090565b50805461168c90611ff8565b6000825580601f1061169e57506116bd565b601f0160209004906000526020600020908101906116bc91906116c0565b5b50565b5b808211156116d95760008160009055506001016116c1565b5090565b6000604051905090565b600080fd5b600080fd5b600080fd5b600080fd5b6000601f19601f8301169050919050565b7f4e487b7100000000000000000000000000000000000000000000000000000000600052604160045260246000fd5b611744826116fb565b810181811067ffffffffffffffff821117156117635761176261170c565b5b80604052505050565b60006117766116dd565b9050611782828261173b565b919050565b600067ffffffffffffffff8211156117a2576117a161170c565b5b6117ab826116fb565b9050602081019050919050565b82818337600083830152505050565b60006117da6117d584611787565b61176c565b9050828152602081018484840111156117f6576117f56116f6565b5b6118018482856117b8565b509392505050565b600082601f83011261181e5761181d6116f1565b5b813561182e8482602086016117c7565b91505092915050565b6000806040838503121561184e5761184d6116e7565b5b600083013567ffffffffffffffff81111561186c5761186b6116ec565b5b61187885828601611809565b925050602083013567ffffffffffffffff811115611899576118986116ec565b5b6118a585828601611809565b9150509250929050565b6000819050919050565b6118c2816118af565b82525050565b60006020820190506118dd60008301846118b9565b92915050565b600080fd5b600080fd5b600060808284031215611903576119026118e3565b5b61190d608061176c565b9050600082013567ffffffffffffffff81111561192d5761192c6118e8565b5b61193984828501611809565b600083015250602082013567ffffffffffffffff81111561195d5761195c6118e8565b5b61196984828501611809565b602083015250604082013567ffffffffffffffff81111561198d5761198c6118e8565b5b61199984828501611809565b604083015250606082013567ffffffffffffffff8111156119bd576119bc6118e8565b5b6119c984828501611809565b60608301525092915050565b600080604083850312156119ec576119eb6116e7565b5b600083013567ffffffffffffffff811115611a0a57611a096116ec565b5b611a1685828601611809565b925050602083013567ffffffffffffffff811115611a3757611a366116ec565b5b611a43858286016118ed565b9150509250929050565b60008115159050919050565b611a6281611a4d565b82525050565b6000602082019050611a7d6000830184611a59565b92915050565b600073ffffffffffffffffffffffffffffffffffffffff82169050919050565b6000611aae82611a83565b9050919050565b611abe81611aa3565b82525050565b6000602082019050611ad96000830184611ab5565b92915050565b611ae8816118af565b8114611af357600080fd5b50565b600081359050611b0581611adf565b92915050565b60008060408385031215611b2257611b216116e7565b5b600083013567ffffffffffffffff811115611b4057611b3f6116ec565b5b611b4c85828601611809565b9250506020611b5d85828601611af6565b9150509250929050565b600081519050919050565b600082825260208201905092915050565b60005b83811015611ba1578082015181840152602081019050611b86565b83811115611bb0576000848401525b50505050565b6000611bc182611b67565b611bcb8185611b72565b9350611bdb818560208601611b83565b611be4816116fb565b840191505092915050565b60006040820190508181036000830152611c098185611bb6565b9050611c1860208301846118b9565b9392505050565b600080600060608486031215611c3857611c376116e7565b5b600084013567ffffffffffffffff811115611c5657611c556116ec565b5b611c6286828701611809565b935050602084013567ffffffffffffffff811115611c8357611c826116ec565b5b611c8f86828701611809565b9250506040611ca086828701611af6565b9150509250925092565b600060208284031215611cc057611cbf6116e7565b5b600082013567ffffffffffffffff811115611cde57611cdd6116ec565b5b611cea84828501611809565b91505092915050565b600081519050919050565b600082825260208201905092915050565b6000819050602082019050919050565b600082825260208201905092915050565b6000611d3b82611b67565b611d458185611d1f565b9350611d55818560208601611b83565b611d5e816116fb565b840191505092915050565b6000611d758383611d30565b905092915050565b6000602082019050919050565b6000611d9582611cf3565b611d9f8185611cfe565b935083602082028501611db185611d0f565b8060005b85811015611ded5784840389528151611dce8582611d69565b9450611dd983611d7d565b925060208a01995050600181019050611db5565b50829750879550505050505092915050565b60006020820190508181036000830152611e198184611d8a565b905092915050565b611e2a81611aa3565b8114611e3557600080fd5b50565b600081359050611e4781611e21565b92915050565b600060208284031215611e6357611e626116e7565b5b6000611e7184828501611e38565b91505092915050565b60006080820190508181036000830152611e948187611bb6565b90508181036020830152611ea88186611bb6565b90508181036040830152611ebc8185611bb6565b90508181036060830152611ed08184611bb6565b905095945050505050565b7f4f776e61626c653a2063616c6c6572206973206e6f7420746865206f776e6572600082015250565b6000611f11602083611b72565b9150611f1c82611edb565b602082019050919050565b60006020820190508181036000830152611f4081611f04565b9050919050565b600081905092915050565b6000611f5d82611b67565b611f678185611f47565b9350611f77818560208601611b83565b80840191505092915050565b6000611f8f8284611f52565b915081905092915050565b7f4e487b7100000000000000000000000000000000000000000000000000000000600052603260045260246000fd5b7f4e487b7100000000000000000000000000000000000000000000000000000000600052602260045260246000fd5b6000600282049050600182168061201057607f821691505b60208210810361202357612022611fc9565b5b50919050565b60008190508160005260206000209050919050565b6000815461204b81611ff8565b6120558186611f47565b945060018216600081146120705760018114612085576120b8565b60ff19831686528115158202860193506120b8565b61208e85612029565b60005b838110156120b057815481890152600182019150602081019050612091565b838801955050505b50505092915050565b60006120cd828461203e565b915081905092915050565b7f4e487b7100000000000000000000000000000000000000000000000000000000600052601160045260246000fd5b6000612112826118af565b91507fffffffffffffffffffffffffffffffffffffffffffffffffffffffffffffffff8203612144576121436120d8565b5b600182019050919050565b60006020601f8301049050919050565b600082821b905092915050565b60006008830261219c7fffffffffffffffffffffffffffffffffffffffffffffffffffffffffffffffff8261215f565b6121a6868361215f565b95508019841693508086168417925050509392505050565b6000819050919050565b60006121e36121de6121d9846118af565b6121be565b6118af565b9050919050565b6000819050919050565b6121fd836121c8565b612211612209826121ea565b84845461216c565b825550505050565b600090565b612226612219565b6122318184846121f4565b505050565b5b818110156122555761224a60008261221e565b600181019050612237565b5050565b601f82111561229a5761226b81612029565b6122748461214f565b81016020851015612283578190505b61229761228f8561214f565b830182612236565b50505b505050565b600082821c905092915050565b60006122bd6000198460080261229f565b1980831691505092915050565b60006122d683836122ac565b9150826002028217905092915050565b6122ef82611b67565b67ffffffffffffffff8111156123085761230761170c565b5b6123128254611ff8565b61231d828285612259565b600060209050601f831160018114612350576000841561233e578287015190505b61234885826122ca565b8655506123b0565b601f19841661235e86612029565b60005b8281101561238657848901518255600182019150602085019450602081019050612361565b868310156123a3578489015161239f601f8916826122ac565b8355505b6001600288020188555050505b505050505050565b60006123c3826118af565b91506123ce836118af565b9250827fffffffffffffffffffffffffffffffffffffffffffffffffffffffffffffffff03821115612403576124026120d8565b5b828201905092915050565b6000612419826118af565b9150612424836118af565b925082821015612437576124366120d8565b5b828203905092915050565b7f4f776e61626c653a206e6577206f776e657220697320746865207a65726f206160008201527f6464726573730000000000000000000000000000000000000000000000000000602082015250565b600061249e602683611b72565b91506124a982612442565b604082019050919050565b600060208201905081810360008301526124cd81612491565b905091905056fea2646970667358221220c93f8d16bd82c7d8468cf63eae3dad1e03cab5c3c20a6fa046d7769eabcc479464736f6c634300080f0033",
					"opcodes": "PUSH1 0x80 PUSH1 0x40 MSTORE CALLVALUE DUP1 ISZERO PUSH3 0x11 JUMPI PUSH1 0x0 DUP1 REVERT JUMPDEST POP PUSH3 0x32 PUSH3 0x26 PUSH3 0x38 PUSH1 0x20 SHL PUSH1 0x20 SHR JUMP JUMPDEST PUSH3 0x40 PUSH1 0x20 SHL PUSH1 0x20 SHR JUMP JUMPDEST PUSH3 0x104 JUMP JUMPDEST PUSH1 0x0 CALLER SWAP1 POP SWAP1 JUMP JUMPDEST PUSH1 0x0 DUP1 PUSH1 0x0 SWAP1 SLOAD SWAP1 PUSH2 0x100 EXP SWAP1 DIV PUSH20 0xFFFFFFFFFFFFFFFFFFFFFFFFFFFFFFFFFFFFFFFF AND SWAP1 POP DUP2 PUSH1 0x0 DUP1 PUSH2 0x100 EXP DUP2 SLOAD DUP2 PUSH20 0xFFFFFFFFFFFFFFFFFFFFFFFFFFFFFFFFFFFFFFFF MUL NOT AND SWAP1 DUP4 PUSH20 0xFFFFFFFFFFFFFFFFFFFFFFFFFFFFFFFFFFFFFFFF AND MUL OR SWAP1 SSTORE POP DUP2 PUSH20 0xFFFFFFFFFFFFFFFFFFFFFFFFFFFFFFFFFFFFFFFF AND DUP2 PUSH20 0xFFFFFFFFFFFFFFFFFFFFFFFFFFFFFFFFFFFFFFFF AND PUSH32 0x8BE0079C531659141344CD1FD0A4F28419497F9722A3DAAFE3B4186F6B6457E0 PUSH1 0x40 MLOAD PUSH1 0x40 MLOAD DUP1 SWAP2 SUB SWAP1 LOG3 POP POP JUMP JUMPDEST PUSH2 0x250A DUP1 PUSH3 0x114 PUSH1 0x0 CODECOPY PUSH1 0x0 RETURN INVALID PUSH1 0x80 PUSH1 0x40 MSTORE CALLVALUE DUP1 ISZERO PUSH2 0x10 JUMPI PUSH1 0x0 DUP1 REVERT JUMPDEST POP PUSH1 0x4 CALLDATASIZE LT PUSH2 0xEA JUMPI PUSH1 0x0 CALLDATALOAD PUSH1 0xE0 SHR DUP1 PUSH4 0x967572CE GT PUSH2 0x8C JUMPI DUP1 PUSH4 0xDF6A9A69 GT PUSH2 0x66 JUMPI DUP1 PUSH4 0xDF6A9A69 EQ PUSH2 0x222 JUMPI DUP1 PUSH4 0xE50D7934 EQ PUSH2 0x252 JUMPI DUP1 PUSH4 0xF2FDE38B EQ PUSH2 0x26E JUMPI DUP1 PUSH4 0xF4BF93BE EQ PUSH2 0x28A JUMPI PUSH2 0xEA JUMP JUMPDEST DUP1 PUSH4 0x967572CE EQ PUSH2 0x1B9 JUMPI DUP1 PUSH4 0xA07990C8 EQ PUSH2 0x1D5 JUMPI DUP1 PUSH4 0xC744F2B2 EQ PUSH2 0x206 JUMPI PUSH2 0xEA JUMP JUMPDEST DUP1 PUSH4 0x513F8B02 GT PUSH2 0xC8 JUMPI DUP1 PUSH4 0x513F8B02 EQ PUSH2 0x159 JUMPI DUP1 PUSH4 0x715018A6 EQ PUSH2 0x175 JUMPI DUP1 PUSH4 0x7A63E74E EQ PUSH2 0x17F JUMPI DUP1 PUSH4 0x8DA5CB5B EQ PUSH2 0x19B JUMPI PUSH2 0xEA JUMP JUMPDEST DUP1 PUSH4 0x2784721 EQ PUSH2 0xEF JUMPI DUP1 PUSH4 0x2A596F57 EQ PUSH2 0x11F JUMPI DUP1 PUSH4 0x2DD7ED5F EQ PUSH2 0x129 JUMPI JUMPDEST PUSH1 0x0 DUP1 REVERT JUMPDEST PUSH2 0x109 PUSH1 0x4 DUP1 CALLDATASIZE SUB DUP2 ADD SWAP1 PUSH2 0x104 SWAP2 SWAP1 PUSH2 0x1837 JUMP JUMPDEST PUSH2 0x2BD JUMP JUMPDEST PUSH1 0x40 MLOAD PUSH2 0x116 SWAP2 SWAP1 PUSH2 0x18C8 JUMP JUMPDEST PUSH1 0x40 MLOAD DUP1 SWAP2 SUB SWAP1 RETURN JUMPDEST PUSH2 0x127 PUSH2 0x480 JUMP JUMPDEST STOP JUMPDEST PUSH2 0x143 PUSH1 0x4 DUP1 CALLDATASIZE SUB DUP2 ADD SWAP1 PUSH2 0x13E SWAP2 SWAP1 PUSH2 0x19D5 JUMP JUMPDEST PUSH2 0x482 JUMP JUMPDEST PUSH1 0x40 MLOAD PUSH2 0x150 SWAP2 SWAP1 PUSH2 0x1A68 JUMP JUMPDEST PUSH1 0x40 MLOAD DUP1 SWAP2 SUB SWAP1 RETURN JUMPDEST PUSH2 0x173 PUSH1 0x4 DUP1 CALLDATASIZE SUB DUP2 ADD SWAP1 PUSH2 0x16E SWAP2 SWAP1 PUSH2 0x1837 JUMP JUMPDEST PUSH2 0x5C1 JUMP JUMPDEST STOP JUMPDEST PUSH2 0x17D PUSH2 0x6C8 JUMP JUMPDEST STOP JUMPDEST PUSH2 0x199 PUSH1 0x4 DUP1 CALLDATASIZE SUB DUP2 ADD SWAP1 PUSH2 0x194 SWAP2 SWAP1 PUSH2 0x19D5 JUMP JUMPDEST PUSH2 0x750 JUMP JUMPDEST STOP JUMPDEST PUSH2 0x1A3 PUSH2 0x887 JUMP JUMPDEST PUSH1 0x40 MLOAD PUSH2 0x1B0 SWAP2 SWAP1 PUSH2 0x1AC4 JUMP JUMPDEST PUSH1 0x40 MLOAD DUP1 SWAP2 SUB SWAP1 RETURN JUMPDEST PUSH2 0x1D3 PUSH1 0x4 DUP1 CALLDATASIZE SUB DUP2 ADD SWAP1 PUSH2 0x1CE SWAP2 SWAP1 PUSH2 0x1837 JUMP JUMPDEST PUSH2 0x8B0 JUMP JUMPDEST STOP JUMPDEST PUSH2 0x1EF PUSH1 0x4 DUP1 CALLDATASIZE SUB DUP2 ADD SWAP1 PUSH2 0x1EA SWAP2 SWAP1 PUSH2 0x1B0B JUMP JUMPDEST PUSH2 0xA7C JUMP JUMPDEST PUSH1 0x40 MLOAD PUSH2 0x1FD SWAP3 SWAP2 SWAP1 PUSH2 0x1BEF JUMP JUMPDEST PUSH1 0x40 MLOAD DUP1 SWAP2 SUB SWAP1 RETURN JUMPDEST PUSH2 0x220 PUSH1 0x4 DUP1 CALLDATASIZE SUB DUP2 ADD SWAP1 PUSH2 0x21B SWAP2 SWAP1 PUSH2 0x1C1F JUMP JUMPDEST PUSH2 0xB5B JUMP JUMPDEST STOP JUMPDEST PUSH2 0x23C PUSH1 0x4 DUP1 CALLDATASIZE SUB DUP2 ADD SWAP1 PUSH2 0x237 SWAP2 SWAP1 PUSH2 0x1CAA JUMP JUMPDEST PUSH2 0xD61 JUMP JUMPDEST PUSH1 0x40 MLOAD PUSH2 0x249 SWAP2 SWAP1 PUSH2 0x1DFF JUMP JUMPDEST PUSH1 0x40 MLOAD DUP1 SWAP2 SUB SWAP1 RETURN JUMPDEST PUSH2 0x26C PUSH1 0x4 DUP1 CALLDATASIZE SUB DUP2 ADD SWAP1 PUSH2 0x267 SWAP2 SWAP1 PUSH2 0x1C1F JUMP JUMPDEST PUSH2 0xF18 JUMP JUMPDEST STOP JUMPDEST PUSH2 0x288 PUSH1 0x4 DUP1 CALLDATASIZE SUB DUP2 ADD SWAP1 PUSH2 0x283 SWAP2 SWAP1 PUSH2 0x1E4D JUMP JUMPDEST PUSH2 0x111E JUMP JUMPDEST STOP JUMPDEST PUSH2 0x2A4 PUSH1 0x4 DUP1 CALLDATASIZE SUB DUP2 ADD SWAP1 PUSH2 0x29F SWAP2 SWAP1 PUSH2 0x1CAA JUMP JUMPDEST PUSH2 0x1215 JUMP JUMPDEST PUSH1 0x40 MLOAD PUSH2 0x2B4 SWAP5 SWAP4 SWAP3 SWAP2 SWAP1 PUSH2 0x1E7A JUMP JUMPDEST PUSH1 0x40 MLOAD DUP1 SWAP2 SUB SWAP1 RETURN JUMPDEST PUSH1 0x0 PUSH2 0x2C7 PUSH2 0x147B JUMP JUMPDEST PUSH20 0xFFFFFFFFFFFFFFFFFFFFFFFFFFFFFFFFFFFFFFFF AND PUSH2 0x2E5 PUSH2 0x887 JUMP JUMPDEST PUSH20 0xFFFFFFFFFFFFFFFFFFFFFFFFFFFFFFFFFFFFFFFF AND EQ PUSH2 0x33B JUMPI PUSH1 0x40 MLOAD PUSH32 0x8C379A000000000000000000000000000000000000000000000000000000000 DUP2 MSTORE PUSH1 0x4 ADD PUSH2 0x332 SWAP1 PUSH2 0x1F27 JUMP JUMPDEST PUSH1 0x40 MLOAD DUP1 SWAP2 SUB SWAP1 REVERT JUMPDEST PUSH2 0x345 DUP4 DUP4 PUSH2 0x1483 JUMP JUMPDEST PUSH2 0x34E JUMPI PUSH1 0x0 DUP1 REVERT JUMPDEST PUSH1 0x0 PUSH1 0x2 DUP5 PUSH1 0x40 MLOAD PUSH2 0x360 SWAP2 SWAP1 PUSH2 0x1F83 JUMP JUMPDEST SWAP1 DUP2 MSTORE PUSH1 0x20 ADD PUSH1 0x40 MLOAD DUP1 SWAP2 SUB SWAP1 KECCAK256 DUP1 SLOAD SWAP1 POP SWAP1 POP PUSH1 0x0 DUP4 PUSH1 0x40 MLOAD PUSH1 0x20 ADD PUSH2 0x387 SWAP2 SWAP1 PUSH2 0x1F83 JUMP JUMPDEST PUSH1 0x40 MLOAD PUSH1 0x20 DUP2 DUP4 SUB SUB DUP2 MSTORE SWAP1 PUSH1 0x40 MSTORE DUP1 MLOAD SWAP1 PUSH1 0x20 ADD KECCAK256 SWAP1 POP PUSH1 0x0 JUMPDEST DUP3 DUP2 LT ISZERO PUSH2 0x476 JUMPI DUP2 PUSH1 0x2 DUP8 PUSH1 0x40 MLOAD PUSH2 0x3BB SWAP2 SWAP1 PUSH2 0x1F83 JUMP JUMPDEST SWAP1 DUP2 MSTORE PUSH1 0x20 ADD PUSH1 0x40 MLOAD DUP1 SWAP2 SUB SWAP1 KECCAK256 DUP3 DUP2 SLOAD DUP2 LT PUSH2 0x3DB JUMPI PUSH2 0x3DA PUSH2 0x1F9A JUMP JUMPDEST JUMPDEST SWAP1 PUSH1 0x0 MSTORE PUSH1 0x20 PUSH1 0x0 KECCAK256 SWAP1 PUSH1 0x2 MUL ADD PUSH1 0x0 ADD PUSH1 0x40 MLOAD PUSH1 0x20 ADD PUSH2 0x3FC SWAP2 SWAP1 PUSH2 0x20C1 JUMP JUMPDEST PUSH1 0x40 MLOAD PUSH1 0x20 DUP2 DUP4 SUB SUB DUP2 MSTORE SWAP1 PUSH1 0x40 MSTORE DUP1 MLOAD SWAP1 PUSH1 0x20 ADD KECCAK256 SUB PUSH2 0x463 JUMPI PUSH1 0x2 DUP7 PUSH1 0x40 MLOAD PUSH2 0x427 SWAP2 SWAP1 PUSH2 0x1F83 JUMP JUMPDEST SWAP1 DUP2 MSTORE PUSH1 0x20 ADD PUSH1 0x40 MLOAD DUP1 SWAP2 SUB SWAP1 KECCAK256 DUP2 DUP2 SLOAD DUP2 LT PUSH2 0x447 JUMPI PUSH2 0x446 PUSH2 0x1F9A JUMP JUMPDEST JUMPDEST SWAP1 PUSH1 0x0 MSTORE PUSH1 0x20 PUSH1 0x0 KECCAK256 SWAP1 PUSH1 0x2 MUL ADD PUSH1 0x1 ADD SLOAD SWAP4 POP POP POP POP PUSH2 0x47A JUMP JUMPDEST DUP1 DUP1 PUSH2 0x46E SWAP1 PUSH2 0x2107 JUMP JUMPDEST SWAP2 POP POP PUSH2 0x3A2 JUMP JUMPDEST POP POP POP JUMPDEST SWAP3 SWAP2 POP POP JUMP JUMPDEST JUMP JUMPDEST PUSH1 0x0 PUSH2 0x48C PUSH2 0x147B JUMP JUMPDEST PUSH20 0xFFFFFFFFFFFFFFFFFFFFFFFFFFFFFFFFFFFFFFFF AND PUSH2 0x4AA PUSH2 0x887 JUMP JUMPDEST PUSH20 0xFFFFFFFFFFFFFFFFFFFFFFFFFFFFFFFFFFFFFFFF AND EQ PUSH2 0x500 JUMPI PUSH1 0x40 MLOAD PUSH32 0x8C379A000000000000000000000000000000000000000000000000000000000 DUP2 MSTORE PUSH1 0x4 ADD PUSH2 0x4F7 SWAP1 PUSH2 0x1F27 JUMP JUMPDEST PUSH1 0x40 MLOAD DUP1 SWAP2 SUB SWAP1 REVERT JUMPDEST PUSH2 0x508 PUSH2 0x163E JUMP JUMPDEST DUP3 PUSH1 0x0 ADD MLOAD DUP2 PUSH1 0x0 ADD DUP2 SWAP1 MSTORE POP DUP3 PUSH1 0x20 ADD MLOAD DUP2 PUSH1 0x20 ADD DUP2 SWAP1 MSTORE POP DUP3 PUSH1 0x40 ADD MLOAD DUP2 PUSH1 0x40 ADD DUP2 SWAP1 MSTORE POP DUP3 PUSH1 0x60 ADD MLOAD DUP2 PUSH1 0x60 ADD DUP2 SWAP1 MSTORE POP DUP1 PUSH1 0x1 DUP6 PUSH1 0x40 MLOAD PUSH2 0x54D SWAP2 SWAP1 PUSH2 0x1F83 JUMP JUMPDEST SWAP1 DUP2 MSTORE PUSH1 0x20 ADD PUSH1 0x40 MLOAD DUP1 SWAP2 SUB SWAP1 KECCAK256 PUSH1 0x0 DUP3 ADD MLOAD DUP2 PUSH1 0x0 ADD SWAP1 DUP2 PUSH2 0x570 SWAP2 SWAP1 PUSH2 0x22E6 JUMP JUMPDEST POP PUSH1 0x20 DUP3 ADD MLOAD DUP2 PUSH1 0x1 ADD SWAP1 DUP2 PUSH2 0x586 SWAP2 SWAP1 PUSH2 0x22E6 JUMP JUMPDEST POP PUSH1 0x40 DUP3 ADD MLOAD DUP2 PUSH1 0x2 ADD SWAP1 DUP2 PUSH2 0x59C SWAP2 SWAP1 PUSH2 0x22E6 JUMP JUMPDEST POP PUSH1 0x60 DUP3 ADD MLOAD DUP2 PUSH1 0x3 ADD SWAP1 DUP2 PUSH2 0x5B2 SWAP2 SWAP1 PUSH2 0x22E6 JUMP JUMPDEST POP SWAP1 POP POP PUSH1 0x1 SWAP2 POP POP SWAP3 SWAP2 POP POP JUMP JUMPDEST PUSH2 0x5C9 PUSH2 0x147B JUMP JUMPDEST PUSH20 0xFFFFFFFFFFFFFFFFFFFFFFFFFFFFFFFFFFFFFFFF AND PUSH2 0x5E7 PUSH2 0x887 JUMP JUMPDEST PUSH20 0xFFFFFFFFFFFFFFFFFFFFFFFFFFFFFFFFFFFFFFFF AND EQ PUSH2 0x63D JUMPI PUSH1 0x40 MLOAD PUSH32 0x8C379A000000000000000000000000000000000000000000000000000000000 DUP2 MSTORE PUSH1 0x4 ADD PUSH2 0x634 SWAP1 PUSH2 0x1F27 JUMP JUMPDEST PUSH1 0x40 MLOAD DUP1 SWAP2 SUB SWAP1 REVERT JUMPDEST PUSH2 0x645 PUSH2 0x1666 JUMP JUMPDEST DUP2 DUP2 PUSH1 0x0 ADD DUP2 SWAP1 MSTORE POP PUSH1 0x0 DUP2 PUSH1 0x20 ADD DUP2 DUP2 MSTORE POP POP PUSH1 0x2 DUP4 PUSH1 0x40 MLOAD PUSH2 0x669 SWAP2 SWAP1 PUSH2 0x1F83 JUMP JUMPDEST SWAP1 DUP2 MSTORE PUSH1 0x20 ADD PUSH1 0x40 MLOAD DUP1 SWAP2 SUB SWAP1 KECCAK256 DUP2 SWAP1 DUP1 PUSH1 0x1 DUP2 SLOAD ADD DUP1 DUP3 SSTORE DUP1 SWAP2 POP POP PUSH1 0x1 SWAP1 SUB SWAP1 PUSH1 0x0 MSTORE PUSH1 0x20 PUSH1 0x0 KECCAK256 SWAP1 PUSH1 0x2 MUL ADD PUSH1 0x0 SWAP1 SWAP2 SWAP1 SWAP2 SWAP1 SWAP2 POP PUSH1 0x0 DUP3 ADD MLOAD DUP2 PUSH1 0x0 ADD SWAP1 DUP2 PUSH2 0x6B6 SWAP2 SWAP1 PUSH2 0x22E6 JUMP JUMPDEST POP PUSH1 0x20 DUP3 ADD MLOAD DUP2 PUSH1 0x1 ADD SSTORE POP POP POP POP POP JUMP JUMPDEST PUSH2 0x6D0 PUSH2 0x147B JUMP JUMPDEST PUSH20 0xFFFFFFFFFFFFFFFFFFFFFFFFFFFFFFFFFFFFFFFF AND PUSH2 0x6EE PUSH2 0x887 JUMP JUMPDEST PUSH20 0xFFFFFFFFFFFFFFFFFFFFFFFFFFFFFFFFFFFFFFFF AND EQ PUSH2 0x744 JUMPI PUSH1 0x40 MLOAD PUSH32 0x8C379A000000000000000000000000000000000000000000000000000000000 DUP2 MSTORE PUSH1 0x4 ADD PUSH2 0x73B SWAP1 PUSH2 0x1F27 JUMP JUMPDEST PUSH1 0x40 MLOAD DUP1 SWAP2 SUB SWAP1 REVERT JUMPDEST PUSH2 0x74E PUSH1 0x0 PUSH2 0x157A JUMP JUMPDEST JUMP JUMPDEST PUSH2 0x758 PUSH2 0x147B JUMP JUMPDEST PUSH20 0xFFFFFFFFFFFFFFFFFFFFFFFFFFFFFFFFFFFFFFFF AND PUSH2 0x776 PUSH2 0x887 JUMP JUMPDEST PUSH20 0xFFFFFFFFFFFFFFFFFFFFFFFFFFFFFFFFFFFFFFFF AND EQ PUSH2 0x7CC JUMPI PUSH1 0x40 MLOAD PUSH32 0x8C379A000000000000000000000000000000000000000000000000000000000 DUP2 MSTORE PUSH1 0x4 ADD PUSH2 0x7C3 SWAP1 PUSH2 0x1F27 JUMP JUMPDEST PUSH1 0x40 MLOAD DUP1 SWAP2 SUB SWAP1 REVERT JUMPDEST PUSH2 0x7D4 PUSH2 0x163E JUMP JUMPDEST DUP2 PUSH1 0x0 ADD MLOAD DUP2 PUSH1 0x0 ADD DUP2 SWAP1 MSTORE POP DUP2 PUSH1 0x20 ADD MLOAD DUP2 PUSH1 0x20 ADD DUP2 SWAP1 MSTORE POP DUP2 PUSH1 0x40 ADD MLOAD DUP2 PUSH1 0x40 ADD DUP2 SWAP1 MSTORE POP DUP2 PUSH1 0x60 ADD MLOAD DUP2 PUSH1 0x60 ADD DUP2 SWAP1 MSTORE POP DUP1 PUSH1 0x1 DUP5 PUSH1 0x40 MLOAD PUSH2 0x819 SWAP2 SWAP1 PUSH2 0x1F83 JUMP JUMPDEST SWAP1 DUP2 MSTORE PUSH1 0x20 ADD PUSH1 0x40 MLOAD DUP1 SWAP2 SUB SWAP1 KECCAK256 PUSH1 0x0 DUP3 ADD MLOAD DUP2 PUSH1 0x0 ADD SWAP1 DUP2 PUSH2 0x83C SWAP2 SWAP1 PUSH2 0x22E6 JUMP JUMPDEST POP PUSH1 0x20 DUP3 ADD MLOAD DUP2 PUSH1 0x1 ADD SWAP1 DUP2 PUSH2 0x852 SWAP2 SWAP1 PUSH2 0x22E6 JUMP JUMPDEST POP PUSH1 0x40 DUP3 ADD MLOAD DUP2 PUSH1 0x2 ADD SWAP1 DUP2 PUSH2 0x868 SWAP2 SWAP1 PUSH2 0x22E6 JUMP JUMPDEST POP PUSH1 0x60 DUP3 ADD MLOAD DUP2 PUSH1 0x3 ADD SWAP1 DUP2 PUSH2 0x87E SWAP2 SWAP1 PUSH2 0x22E6 JUMP JUMPDEST POP SWAP1 POP POP POP POP POP JUMP JUMPDEST PUSH1 0x0 DUP1 PUSH1 0x0 SWAP1 SLOAD SWAP1 PUSH2 0x100 EXP SWAP1 DIV PUSH20 0xFFFFFFFFFFFFFFFFFFFFFFFFFFFFFFFFFFFFFFFF AND SWAP1 POP SWAP1 JUMP JUMPDEST PUSH2 0x8B8 PUSH2 0x147B JUMP JUMPDEST PUSH20 0xFFFFFFFFFFFFFFFFFFFFFFFFFFFFFFFFFFFFFFFF AND PUSH2 0x8D6 PUSH2 0x887 JUMP JUMPDEST PUSH20 0xFFFFFFFFFFFFFFFFFFFFFFFFFFFFFFFFFFFFFFFF AND EQ PUSH2 0x92C JUMPI PUSH1 0x40 MLOAD PUSH32 0x8C379A000000000000000000000000000000000000000000000000000000000 DUP2 MSTORE PUSH1 0x4 ADD PUSH2 0x923 SWAP1 PUSH2 0x1F27 JUMP JUMPDEST PUSH1 0x40 MLOAD DUP1 SWAP2 SUB SWAP1 REVERT JUMPDEST PUSH2 0x936 DUP3 DUP3 PUSH2 0x1483 JUMP JUMPDEST PUSH2 0x93F JUMPI PUSH1 0x0 DUP1 REVERT JUMPDEST PUSH1 0x0 PUSH1 0x2 DUP4 PUSH1 0x40 MLOAD PUSH2 0x951 SWAP2 SWAP1 PUSH2 0x1F83 JUMP JUMPDEST SWAP1 DUP2 MSTORE PUSH1 0x20 ADD PUSH1 0x40 MLOAD DUP1 SWAP2 SUB SWAP1 KECCAK256 DUP1 SLOAD SWAP1 POP SWAP1 POP PUSH1 0x0 DUP3 PUSH1 0x40 MLOAD PUSH1 0x20 ADD PUSH2 0x978 SWAP2 SWAP1 PUSH2 0x1F83 JUMP JUMPDEST PUSH1 0x40 MLOAD PUSH1 0x20 DUP2 DUP4 SUB SUB DUP2 MSTORE SWAP1 PUSH1 0x40 MSTORE DUP1 MLOAD SWAP1 PUSH1 0x20 ADD KECCAK256 SWAP1 POP PUSH1 0x0 JUMPDEST DUP3 DUP2 LT ISZERO PUSH2 0xA75 JUMPI DUP2 PUSH1 0x2 DUP7 PUSH1 0x40 MLOAD PUSH2 0x9AC SWAP2 SWAP1 PUSH2 0x1F83 JUMP JUMPDEST SWAP1 DUP2 MSTORE PUSH1 0x20 ADD PUSH1 0x40 MLOAD DUP1 SWAP2 SUB SWAP1 KECCAK256 DUP3 DUP2 SLOAD DUP2 LT PUSH2 0x9CC JUMPI PUSH2 0x9CB PUSH2 0x1F9A JUMP JUMPDEST JUMPDEST SWAP1 PUSH1 0x0 MSTORE PUSH1 0x20 PUSH1 0x0 KECCAK256 SWAP1 PUSH1 0x2 MUL ADD PUSH1 0x0 ADD PUSH1 0x40 MLOAD PUSH1 0x20 ADD PUSH2 0x9ED SWAP2 SWAP1 PUSH2 0x20C1 JUMP JUMPDEST PUSH1 0x40 MLOAD PUSH1 0x20 DUP2 DUP4 SUB SUB DUP2 MSTORE SWAP1 PUSH1 0x40 MSTORE DUP1 MLOAD SWAP1 PUSH1 0x20 ADD KECCAK256 SUB PUSH2 0xA62 JUMPI PUSH1 0x2 DUP6 PUSH1 0x40 MLOAD PUSH2 0xA18 SWAP2 SWAP1 PUSH2 0x1F83 JUMP JUMPDEST SWAP1 DUP2 MSTORE PUSH1 0x20 ADD PUSH1 0x40 MLOAD DUP1 SWAP2 SUB SWAP1 KECCAK256 DUP2 DUP2 SLOAD DUP2 LT PUSH2 0xA38 JUMPI PUSH2 0xA37 PUSH2 0x1F9A JUMP JUMPDEST JUMPDEST SWAP1 PUSH1 0x0 MSTORE PUSH1 0x20 PUSH1 0x0 KECCAK256 SWAP1 PUSH1 0x2 MUL ADD PUSH1 0x0 DUP1 DUP3 ADD PUSH1 0x0 PUSH2 0xA57 SWAP2 SWAP1 PUSH2 0x1680 JUMP JUMPDEST PUSH1 0x1 DUP3 ADD PUSH1 0x0 SWAP1 SSTORE POP POP JUMPDEST DUP1 DUP1 PUSH2 0xA6D SWAP1 PUSH2 0x2107 JUMP JUMPDEST SWAP2 POP POP PUSH2 0x993 JUMP JUMPDEST POP POP POP POP POP JUMP JUMPDEST PUSH1 0x2 DUP3 DUP1 MLOAD PUSH1 0x20 DUP2 ADD DUP3 ADD DUP1 MLOAD DUP5 DUP3 MSTORE PUSH1 0x20 DUP4 ADD PUSH1 0x20 DUP6 ADD KECCAK256 DUP2 DUP4 MSTORE DUP1 SWAP6 POP POP POP POP POP POP DUP2 DUP2 SLOAD DUP2 LT PUSH2 0xAAE JUMPI PUSH1 0x0 DUP1 REVERT JUMPDEST SWAP1 PUSH1 0x0 MSTORE PUSH1 0x20 PUSH1 0x0 KECCAK256 SWAP1 PUSH1 0x2 MUL ADD PUSH1 0x0 SWAP2 POP SWAP2 POP POP DUP1 PUSH1 0x0 ADD DUP1 SLOAD PUSH2 0xAD2 SWAP1 PUSH2 0x1FF8 JUMP JUMPDEST DUP1 PUSH1 0x1F ADD PUSH1 0x20 DUP1 SWAP2 DIV MUL PUSH1 0x20 ADD PUSH1 0x40 MLOAD SWAP1 DUP2 ADD PUSH1 0x40 MSTORE DUP1 SWAP3 SWAP2 SWAP1 DUP2 DUP2 MSTORE PUSH1 0x20 ADD DUP3 DUP1 SLOAD PUSH2 0xAFE SWAP1 PUSH2 0x1FF8 JUMP JUMPDEST DUP1 ISZERO PUSH2 0xB4B JUMPI DUP1 PUSH1 0x1F LT PUSH2 0xB20 JUMPI PUSH2 0x100 DUP1 DUP4 SLOAD DIV MUL DUP4 MSTORE SWAP2 PUSH1 0x20 ADD SWAP2 PUSH2 0xB4B JUMP JUMPDEST DUP3 ADD SWAP2 SWAP1 PUSH1 0x0 MSTORE PUSH1 0x20 PUSH1 0x0 KECCAK256 SWAP1 JUMPDEST DUP2 SLOAD DUP2 MSTORE SWAP1 PUSH1 0x1 ADD SWAP1 PUSH1 0x20 ADD DUP1 DUP4 GT PUSH2 0xB2E JUMPI DUP3 SWAP1 SUB PUSH1 0x1F AND DUP3 ADD SWAP2 JUMPDEST POP POP POP POP POP SWAP1 DUP1 PUSH1 0x1 ADD SLOAD SWAP1 POP DUP3 JUMP JUMPDEST PUSH2 0xB63 PUSH2 0x147B JUMP JUMPDEST PUSH20 0xFFFFFFFFFFFFFFFFFFFFFFFFFFFFFFFFFFFFFFFF AND PUSH2 0xB81 PUSH2 0x887 JUMP JUMPDEST PUSH20 0xFFFFFFFFFFFFFFFFFFFFFFFFFFFFFFFFFFFFFFFF AND EQ PUSH2 0xBD7 JUMPI PUSH1 0x40 MLOAD PUSH32 0x8C379A000000000000000000000000000000000000000000000000000000000 DUP2 MSTORE PUSH1 0x4 ADD PUSH2 0xBCE SWAP1 PUSH2 0x1F27 JUMP JUMPDEST PUSH1 0x40 MLOAD DUP1 SWAP2 SUB SWAP1 REVERT JUMPDEST PUSH2 0xBE1 DUP4 DUP4 PUSH2 0x1483 JUMP JUMPDEST PUSH2 0xBEA JUMPI PUSH1 0x0 DUP1 REVERT JUMPDEST PUSH1 0x0 PUSH1 0x2 DUP5 PUSH1 0x40 MLOAD PUSH2 0xBFC SWAP2 SWAP1 PUSH2 0x1F83 JUMP JUMPDEST SWAP1 DUP2 MSTORE PUSH1 0x20 ADD PUSH1 0x40 MLOAD DUP1 SWAP2 SUB SWAP1 KECCAK256 DUP1 SLOAD SWAP1 POP SWAP1 POP PUSH1 0x0 DUP4 PUSH1 0x40 MLOAD PUSH1 0x20 ADD PUSH2 0xC23 SWAP2 SWAP1 PUSH2 0x1F83 JUMP JUMPDEST PUSH1 0x40 MLOAD PUSH1 0x20 DUP2 DUP4 SUB SUB DUP2 MSTORE SWAP1 PUSH1 0x40 MSTORE DUP1 MLOAD SWAP1 PUSH1 0x20 ADD KECCAK256 SWAP1 POP PUSH1 0x0 JUMPDEST DUP3 DUP2 LT ISZERO PUSH2 0xD59 JUMPI DUP2 PUSH1 0x2 DUP8 PUSH1 0x40 MLOAD PUSH2 0xC57 SWAP2 SWAP1 PUSH2 0x1F83 JUMP JUMPDEST SWAP1 DUP2 MSTORE PUSH1 0x20 ADD PUSH1 0x40 MLOAD DUP1 SWAP2 SUB SWAP1 KECCAK256 DUP3 DUP2 SLOAD DUP2 LT PUSH2 0xC77 JUMPI PUSH2 0xC76 PUSH2 0x1F9A JUMP JUMPDEST JUMPDEST SWAP1 PUSH1 0x0 MSTORE PUSH1 0x20 PUSH1 0x0 KECCAK256 SWAP1 PUSH1 0x2 MUL ADD PUSH1 0x0 ADD PUSH1 0x40 MLOAD PUSH1 0x20 ADD PUSH2 0xC98 SWAP2 SWAP1 PUSH2 0x20C1 JUMP JUMPDEST PUSH1 0x40 MLOAD PUSH1 0x20 DUP2 DUP4 SUB SUB DUP2 MSTORE SWAP1 PUSH1 0x40 MSTORE DUP1 MLOAD SWAP1 PUSH1 0x20 ADD KECCAK256 SUB PUSH2 0xD46 JUMPI DUP4 PUSH1 0x2 DUP8 PUSH1 0x40 MLOAD PUSH2 0xCC4 SWAP2 SWAP1 PUSH2 0x1F83 JUMP JUMPDEST SWAP1 DUP2 MSTORE PUSH1 0x20 ADD PUSH1 0x40 MLOAD DUP1 SWAP2 SUB SWAP1 KECCAK256 DUP3 DUP2 SLOAD DUP2 LT PUSH2 0xCE4 JUMPI PUSH2 0xCE3 PUSH2 0x1F9A JUMP JUMPDEST JUMPDEST SWAP1 PUSH1 0x0 MSTORE PUSH1 0x20 PUSH1 0x0 KECCAK256 SWAP1 PUSH1 0x2 MUL ADD PUSH1 0x1 ADD SLOAD PUSH2 0xD00 SWAP2 SWAP1 PUSH2 0x23B8 JUMP JUMPDEST PUSH1 0x2 DUP8 PUSH1 0x40 MLOAD PUSH2 0xD10 SWAP2 SWAP1 PUSH2 0x1F83 JUMP JUMPDEST SWAP1 DUP2 MSTORE PUSH1 0x20 ADD PUSH1 0x40 MLOAD DUP1 SWAP2 SUB SWAP1 KECCAK256 DUP3 DUP2 SLOAD DUP2 LT PUSH2 0xD30 JUMPI PUSH2 0xD2F PUSH2 0x1F9A JUMP JUMPDEST JUMPDEST SWAP1 PUSH1 0x0 MSTORE PUSH1 0x20 PUSH1 0x0 KECCAK256 SWAP1 PUSH1 0x2 MUL ADD PUSH1 0x1 ADD DUP2 SWAP1 SSTORE POP JUMPDEST DUP1 DUP1 PUSH2 0xD51 SWAP1 PUSH2 0x2107 JUMP JUMPDEST SWAP2 POP POP PUSH2 0xC3E JUMP JUMPDEST POP POP POP POP POP POP JUMP JUMPDEST PUSH1 0x60 PUSH2 0xD6B PUSH2 0x147B JUMP JUMPDEST PUSH20 0xFFFFFFFFFFFFFFFFFFFFFFFFFFFFFFFFFFFFFFFF AND PUSH2 0xD89 PUSH2 0x887 JUMP JUMPDEST PUSH20 0xFFFFFFFFFFFFFFFFFFFFFFFFFFFFFFFFFFFFFFFF AND EQ PUSH2 0xDDF JUMPI PUSH1 0x40 MLOAD PUSH32 0x8C379A000000000000000000000000000000000000000000000000000000000 DUP2 MSTORE PUSH1 0x4 ADD PUSH2 0xDD6 SWAP1 PUSH2 0x1F27 JUMP JUMPDEST PUSH1 0x40 MLOAD DUP1 SWAP2 SUB SWAP1 REVERT JUMPDEST PUSH1 0x60 PUSH1 0x0 PUSH1 0x2 DUP5 PUSH1 0x40 MLOAD PUSH2 0xDF3 SWAP2 SWAP1 PUSH2 0x1F83 JUMP JUMPDEST SWAP1 DUP2 MSTORE PUSH1 0x20 ADD PUSH1 0x40 MLOAD DUP1 SWAP2 SUB SWAP1 KECCAK256 DUP1 SLOAD SWAP1 POP SWAP1 POP PUSH1 0x0 JUMPDEST DUP2 DUP2 LT ISZERO PUSH2 0xF0D JUMPI PUSH1 0x2 DUP6 PUSH1 0x40 MLOAD PUSH2 0xE22 SWAP2 SWAP1 PUSH2 0x1F83 JUMP JUMPDEST SWAP1 DUP2 MSTORE PUSH1 0x20 ADD PUSH1 0x40 MLOAD DUP1 SWAP2 SUB SWAP1 KECCAK256 DUP2 DUP2 SLOAD DUP2 LT PUSH2 0xE42 JUMPI PUSH2 0xE41 PUSH2 0x1F9A JUMP JUMPDEST JUMPDEST SWAP1 PUSH1 0x0 MSTORE PUSH1 0x20 PUSH1 0x0 KECCAK256 SWAP1 PUSH1 0x2 MUL ADD PUSH1 0x0 ADD DUP1 SLOAD PUSH2 0xE5E SWAP1 PUSH2 0x1FF8 JUMP JUMPDEST DUP1 PUSH1 0x1F ADD PUSH1 0x20 DUP1 SWAP2 DIV MUL PUSH1 0x20 ADD PUSH1 0x40 MLOAD SWAP1 DUP2 ADD PUSH1 0x40 MSTORE DUP1 SWAP3 SWAP2 SWAP1 DUP2 DUP2 MSTORE PUSH1 0x20 ADD DUP3 DUP1 SLOAD PUSH2 0xE8A SWAP1 PUSH2 0x1FF8 JUMP JUMPDEST DUP1 ISZERO PUSH2 0xED7 JUMPI DUP1 PUSH1 0x1F LT PUSH2 0xEAC JUMPI PUSH2 0x100 DUP1 DUP4 SLOAD DIV MUL DUP4 MSTORE SWAP2 PUSH1 0x20 ADD SWAP2 PUSH2 0xED7 JUMP JUMPDEST DUP3 ADD SWAP2 SWAP1 PUSH1 0x0 MSTORE PUSH1 0x20 PUSH1 0x0 KECCAK256 SWAP1 JUMPDEST DUP2 SLOAD DUP2 MSTORE SWAP1 PUSH1 0x1 ADD SWAP1 PUSH1 0x20 ADD DUP1 DUP4 GT PUSH2 0xEBA JUMPI DUP3 SWAP1 SUB PUSH1 0x1F AND DUP3 ADD SWAP2 JUMPDEST POP POP POP POP POP DUP4 DUP3 DUP2 MLOAD DUP2 LT PUSH2 0xEEF JUMPI PUSH2 0xEEE PUSH2 0x1F9A JUMP JUMPDEST JUMPDEST PUSH1 0x20 MUL PUSH1 0x20 ADD ADD DUP2 SWAP1 MSTORE POP DUP1 DUP1 PUSH2 0xF05 SWAP1 PUSH2 0x2107 JUMP JUMPDEST SWAP2 POP POP PUSH2 0xE0A JUMP JUMPDEST POP DUP2 SWAP3 POP POP POP SWAP2 SWAP1 POP JUMP JUMPDEST PUSH2 0xF20 PUSH2 0x147B JUMP JUMPDEST PUSH20 0xFFFFFFFFFFFFFFFFFFFFFFFFFFFFFFFFFFFFFFFF AND PUSH2 0xF3E PUSH2 0x887 JUMP JUMPDEST PUSH20 0xFFFFFFFFFFFFFFFFFFFFFFFFFFFFFFFFFFFFFFFF AND EQ PUSH2 0xF94 JUMPI PUSH1 0x40 MLOAD PUSH32 0x8C379A000000000000000000000000000000000000000000000000000000000 DUP2 MSTORE PUSH1 0x4 ADD PUSH2 0xF8B SWAP1 PUSH2 0x1F27 JUMP JUMPDEST PUSH1 0x40 MLOAD DUP1 SWAP2 SUB SWAP1 REVERT JUMPDEST PUSH2 0xF9E DUP4 DUP4 PUSH2 0x1483 JUMP JUMPDEST PUSH2 0xFA7 JUMPI PUSH1 0x0 DUP1 REVERT JUMPDEST PUSH1 0x0 PUSH1 0x2 DUP5 PUSH1 0x40 MLOAD PUSH2 0xFB9 SWAP2 SWAP1 PUSH2 0x1F83 JUMP JUMPDEST SWAP1 DUP2 MSTORE PUSH1 0x20 ADD PUSH1 0x40 MLOAD DUP1 SWAP2 SUB SWAP1 KECCAK256 DUP1 SLOAD SWAP1 POP SWAP1 POP PUSH1 0x0 DUP4 PUSH1 0x40 MLOAD PUSH1 0x20 ADD PUSH2 0xFE0 SWAP2 SWAP1 PUSH2 0x1F83 JUMP JUMPDEST PUSH1 0x40 MLOAD PUSH1 0x20 DUP2 DUP4 SUB SUB DUP2 MSTORE SWAP1 PUSH1 0x40 MSTORE DUP1 MLOAD SWAP1 PUSH1 0x20 ADD KECCAK256 SWAP1 POP PUSH1 0x0 JUMPDEST DUP3 DUP2 LT ISZERO PUSH2 0x1116 JUMPI DUP2 PUSH1 0x2 DUP8 PUSH1 0x40 MLOAD PUSH2 0x1014 SWAP2 SWAP1 PUSH2 0x1F83 JUMP JUMPDEST SWAP1 DUP2 MSTORE PUSH1 0x20 ADD PUSH1 0x40 MLOAD DUP1 SWAP2 SUB SWAP1 KECCAK256 DUP3 DUP2 SLOAD DUP2 LT PUSH2 0x1034 JUMPI PUSH2 0x1033 PUSH2 0x1F9A JUMP JUMPDEST JUMPDEST SWAP1 PUSH1 0x0 MSTORE PUSH1 0x20 PUSH1 0x0 KECCAK256 SWAP1 PUSH1 0x2 MUL ADD PUSH1 0x0 ADD PUSH1 0x40 MLOAD PUSH1 0x20 ADD PUSH2 0x1055 SWAP2 SWAP1 PUSH2 0x20C1 JUMP JUMPDEST PUSH1 0x40 MLOAD PUSH1 0x20 DUP2 DUP4 SUB SUB DUP2 MSTORE SWAP1 PUSH1 0x40 MSTORE DUP1 MLOAD SWAP1 PUSH1 0x20 ADD KECCAK256 SUB PUSH2 0x1103 JUMPI DUP4 PUSH1 0x2 DUP8 PUSH1 0x40 MLOAD PUSH2 0x1081 SWAP2 SWAP1 PUSH2 0x1F83 JUMP JUMPDEST SWAP1 DUP2 MSTORE PUSH1 0x20 ADD PUSH1 0x40 MLOAD DUP1 SWAP2 SUB SWAP1 KECCAK256 DUP3 DUP2 SLOAD DUP2 LT PUSH2 0x10A1 JUMPI PUSH2 0x10A0 PUSH2 0x1F9A JUMP JUMPDEST JUMPDEST SWAP1 PUSH1 0x0 MSTORE PUSH1 0x20 PUSH1 0x0 KECCAK256 SWAP1 PUSH1 0x2 MUL ADD PUSH1 0x1 ADD SLOAD PUSH2 0x10BD SWAP2 SWAP1 PUSH2 0x240E JUMP JUMPDEST PUSH1 0x2 DUP8 PUSH1 0x40 MLOAD PUSH2 0x10CD SWAP2 SWAP1 PUSH2 0x1F83 JUMP JUMPDEST SWAP1 DUP2 MSTORE PUSH1 0x20 ADD PUSH1 0x40 MLOAD DUP1 SWAP2 SUB SWAP1 KECCAK256 DUP3 DUP2 SLOAD DUP2 LT PUSH2 0x10ED JUMPI PUSH2 0x10EC PUSH2 0x1F9A JUMP JUMPDEST JUMPDEST SWAP1 PUSH1 0x0 MSTORE PUSH1 0x20 PUSH1 0x0 KECCAK256 SWAP1 PUSH1 0x2 MUL ADD PUSH1 0x1 ADD DUP2 SWAP1 SSTORE POP JUMPDEST DUP1 DUP1 PUSH2 0x110E SWAP1 PUSH2 0x2107 JUMP JUMPDEST SWAP2 POP POP PUSH2 0xFFB JUMP JUMPDEST POP POP POP POP POP POP JUMP JUMPDEST PUSH2 0x1126 PUSH2 0x147B JUMP JUMPDEST PUSH20 0xFFFFFFFFFFFFFFFFFFFFFFFFFFFFFFFFFFFFFFFF AND PUSH2 0x1144 PUSH2 0x887 JUMP JUMPDEST PUSH20 0xFFFFFFFFFFFFFFFFFFFFFFFFFFFFFFFFFFFFFFFF AND EQ PUSH2 0x119A JUMPI PUSH1 0x40 MLOAD PUSH32 0x8C379A000000000000000000000000000000000000000000000000000000000 DUP2 MSTORE PUSH1 0x4 ADD PUSH2 0x1191 SWAP1 PUSH2 0x1F27 JUMP JUMPDEST PUSH1 0x40 MLOAD DUP1 SWAP2 SUB SWAP1 REVERT JUMPDEST PUSH1 0x0 PUSH20 0xFFFFFFFFFFFFFFFFFFFFFFFFFFFFFFFFFFFFFFFF AND DUP2 PUSH20 0xFFFFFFFFFFFFFFFFFFFFFFFFFFFFFFFFFFFFFFFF AND SUB PUSH2 0x1209 JUMPI PUSH1 0x40 MLOAD PUSH32 0x8C379A000000000000000000000000000000000000000000000000000000000 DUP2 MSTORE PUSH1 0x4 ADD PUSH2 0x1200 SWAP1 PUSH2 0x24B4 JUMP JUMPDEST PUSH1 0x40 MLOAD DUP1 SWAP2 SUB SWAP1 REVERT JUMPDEST PUSH2 0x1212 DUP2 PUSH2 0x157A JUMP JUMPDEST POP JUMP JUMPDEST PUSH1 0x1 DUP2 DUP1 MLOAD PUSH1 0x20 DUP2 ADD DUP3 ADD DUP1 MLOAD DUP5 DUP3 MSTORE PUSH1 0x20 DUP4 ADD PUSH1 0x20 DUP6 ADD KECCAK256 DUP2 DUP4 MSTORE DUP1 SWAP6 POP POP POP POP POP POP PUSH1 0x0 SWAP2 POP SWAP1 POP DUP1 PUSH1 0x0 ADD DUP1 SLOAD PUSH2 0x124E SWAP1 PUSH2 0x1FF8 JUMP JUMPDEST DUP1 PUSH1 0x1F ADD PUSH1 0x20 DUP1 SWAP2 DIV MUL PUSH1 0x20 ADD PUSH1 0x40 MLOAD SWAP1 DUP2 ADD PUSH1 0x40 MSTORE DUP1 SWAP3 SWAP2 SWAP1 DUP2 DUP2 MSTORE PUSH1 0x20 ADD DUP3 DUP1 SLOAD PUSH2 0x127A SWAP1 PUSH2 0x1FF8 JUMP JUMPDEST DUP1 ISZERO PUSH2 0x12C7 JUMPI DUP1 PUSH1 0x1F LT PUSH2 0x129C JUMPI PUSH2 0x100 DUP1 DUP4 SLOAD DIV MUL DUP4 MSTORE SWAP2 PUSH1 0x20 ADD SWAP2 PUSH2 0x12C7 JUMP JUMPDEST DUP3 ADD SWAP2 SWAP1 PUSH1 0x0 MSTORE PUSH1 0x20 PUSH1 0x0 KECCAK256 SWAP1 JUMPDEST DUP2 SLOAD DUP2 MSTORE SWAP1 PUSH1 0x1 ADD SWAP1 PUSH1 0x20 ADD DUP1 DUP4 GT PUSH2 0x12AA JUMPI DUP3 SWAP1 SUB PUSH1 0x1F AND DUP3 ADD SWAP2 JUMPDEST POP POP POP POP POP SWAP1 DUP1 PUSH1 0x1 ADD DUP1 SLOAD PUSH2 0x12DC SWAP1 PUSH2 0x1FF8 JUMP JUMPDEST DUP1 PUSH1 0x1F ADD PUSH1 0x20 DUP1 SWAP2 DIV MUL PUSH1 0x20 ADD PUSH1 0x40 MLOAD SWAP1 DUP2 ADD PUSH1 0x40 MSTORE DUP1 SWAP3 SWAP2 SWAP1 DUP2 DUP2 MSTORE PUSH1 0x20 ADD DUP3 DUP1 SLOAD PUSH2 0x1308 SWAP1 PUSH2 0x1FF8 JUMP JUMPDEST DUP1 ISZERO PUSH2 0x1355 JUMPI DUP1 PUSH1 0x1F LT PUSH2 0x132A JUMPI PUSH2 0x100 DUP1 DUP4 SLOAD DIV MUL DUP4 MSTORE SWAP2 PUSH1 0x20 ADD SWAP2 PUSH2 0x1355 JUMP JUMPDEST DUP3 ADD SWAP2 SWAP1 PUSH1 0x0 MSTORE PUSH1 0x20 PUSH1 0x0 KECCAK256 SWAP1 JUMPDEST DUP2 SLOAD DUP2 MSTORE SWAP1 PUSH1 0x1 ADD SWAP1 PUSH1 0x20 ADD DUP1 DUP4 GT PUSH2 0x1338 JUMPI DUP3 SWAP1 SUB PUSH1 0x1F AND DUP3 ADD SWAP2 JUMPDEST POP POP POP POP POP SWAP1 DUP1 PUSH1 0x2 ADD DUP1 SLOAD PUSH2 0x136A SWAP1 PUSH2 0x1FF8 JUMP JUMPDEST DUP1 PUSH1 0x1F ADD PUSH1 0x20 DUP1 SWAP2 DIV MUL PUSH1 0x20 ADD PUSH1 0x40 MLOAD SWAP1 DUP2 ADD PUSH1 0x40 MSTORE DUP1 SWAP3 SWAP2 SWAP1 DUP2 DUP2 MSTORE PUSH1 0x20 ADD DUP3 DUP1 SLOAD PUSH2 0x1396 SWAP1 PUSH2 0x1FF8 JUMP JUMPDEST DUP1 ISZERO PUSH2 0x13E3 JUMPI DUP1 PUSH1 0x1F LT PUSH2 0x13B8 JUMPI PUSH2 0x100 DUP1 DUP4 SLOAD DIV MUL DUP4 MSTORE SWAP2 PUSH1 0x20 ADD SWAP2 PUSH2 0x13E3 JUMP JUMPDEST DUP3 ADD SWAP2 SWAP1 PUSH1 0x0 MSTORE PUSH1 0x20 PUSH1 0x0 KECCAK256 SWAP1 JUMPDEST DUP2 SLOAD DUP2 MSTORE SWAP1 PUSH1 0x1 ADD SWAP1 PUSH1 0x20 ADD DUP1 DUP4 GT PUSH2 0x13C6 JUMPI DUP3 SWAP1 SUB PUSH1 0x1F AND DUP3 ADD SWAP2 JUMPDEST POP POP POP POP POP SWAP1 DUP1 PUSH1 0x3 ADD DUP1 SLOAD PUSH2 0x13F8 SWAP1 PUSH2 0x1FF8 JUMP JUMPDEST DUP1 PUSH1 0x1F ADD PUSH1 0x20 DUP1 SWAP2 DIV MUL PUSH1 0x20 ADD PUSH1 0x40 MLOAD SWAP1 DUP2 ADD PUSH1 0x40 MSTORE DUP1 SWAP3 SWAP2 SWAP1 DUP2 DUP2 MSTORE PUSH1 0x20 ADD DUP3 DUP1 SLOAD PUSH2 0x1424 SWAP1 PUSH2 0x1FF8 JUMP JUMPDEST DUP1 ISZERO PUSH2 0x1471 JUMPI DUP1 PUSH1 0x1F LT PUSH2 0x1446 JUMPI PUSH2 0x100 DUP1 DUP4 SLOAD DIV MUL DUP4 MSTORE SWAP2 PUSH1 0x20 ADD SWAP2 PUSH2 0x1471 JUMP JUMPDEST DUP3 ADD SWAP2 SWAP1 PUSH1 0x0 MSTORE PUSH1 0x20 PUSH1 0x0 KECCAK256 SWAP1 JUMPDEST DUP2 SLOAD DUP2 MSTORE SWAP1 PUSH1 0x1 ADD SWAP1 PUSH1 0x20 ADD DUP1 DUP4 GT PUSH2 0x1454 JUMPI DUP3 SWAP1 SUB PUSH1 0x1F AND DUP3 ADD SWAP2 JUMPDEST POP POP POP POP POP SWAP1 POP DUP5 JUMP JUMPDEST PUSH1 0x0 CALLER SWAP1 POP SWAP1 JUMP JUMPDEST PUSH1 0x0 DUP1 PUSH1 0x2 DUP5 PUSH1 0x40 MLOAD PUSH2 0x1496 SWAP2 SWAP1 PUSH2 0x1F83 JUMP JUMPDEST SWAP1 DUP2 MSTORE PUSH1 0x20 ADD PUSH1 0x40 MLOAD DUP1 SWAP2 SUB SWAP1 KECCAK256 DUP1 SLOAD SWAP1 POP SWAP1 POP PUSH1 0x0 DUP4 PUSH1 0x40 MLOAD PUSH1 0x20 ADD PUSH2 0x14BD SWAP2 SWAP1 PUSH2 0x1F83 JUMP JUMPDEST PUSH1 0x40 MLOAD PUSH1 0x20 DUP2 DUP4 SUB SUB DUP2 MSTORE SWAP1 PUSH1 0x40 MSTORE DUP1 MLOAD SWAP1 PUSH1 0x20 ADD KECCAK256 SWAP1 POP PUSH1 0x0 JUMPDEST DUP3 DUP2 LT ISZERO PUSH2 0x156C JUMPI DUP2 PUSH1 0x2 DUP8 PUSH1 0x40 MLOAD PUSH2 0x14F1 SWAP2 SWAP1 PUSH2 0x1F83 JUMP JUMPDEST SWAP1 DUP2 MSTORE PUSH1 0x20 ADD PUSH1 0x40 MLOAD DUP1 SWAP2 SUB SWAP1 KECCAK256 DUP3 DUP2 SLOAD DUP2 LT PUSH2 0x1511 JUMPI PUSH2 0x1510 PUSH2 0x1F9A JUMP JUMPDEST JUMPDEST SWAP1 PUSH1 0x0 MSTORE PUSH1 0x20 PUSH1 0x0 KECCAK256 SWAP1 PUSH1 0x2 MUL ADD PUSH1 0x0 ADD PUSH1 0x40 MLOAD PUSH1 0x20 ADD PUSH2 0x1532 SWAP2 SWAP1 PUSH2 0x20C1 JUMP JUMPDEST PUSH1 0x40 MLOAD PUSH1 0x20 DUP2 DUP4 SUB SUB DUP2 MSTORE SWAP1 PUSH1 0x40 MSTORE DUP1 MLOAD SWAP1 PUSH1 0x20 ADD KECCAK256 SUB PUSH2 0x1559 JUMPI PUSH1 0x1 SWAP4 POP POP POP POP PUSH2 0x1574 JUMP JUMPDEST DUP1 DUP1 PUSH2 0x1564 SWAP1 PUSH2 0x2107 JUMP JUMPDEST SWAP2 POP POP PUSH2 0x14D8 JUMP JUMPDEST POP PUSH1 0x0 SWAP3 POP POP POP JUMPDEST SWAP3 SWAP2 POP POP JUMP JUMPDEST PUSH1 0x0 DUP1 PUSH1 0x0 SWAP1 SLOAD SWAP1 PUSH2 0x100 EXP SWAP1 DIV PUSH20 0xFFFFFFFFFFFFFFFFFFFFFFFFFFFFFFFFFFFFFFFF AND SWAP1 POP DUP2 PUSH1 0x0 DUP1 PUSH2 0x100 EXP DUP2 SLOAD DUP2 PUSH20 0xFFFFFFFFFFFFFFFFFFFFFFFFFFFFFFFFFFFFFFFF MUL NOT AND SWAP1 DUP4 PUSH20 0xFFFFFFFFFFFFFFFFFFFFFFFFFFFFFFFFFFFFFFFF AND MUL OR SWAP1 SSTORE POP DUP2 PUSH20 0xFFFFFFFFFFFFFFFFFFFFFFFFFFFFFFFFFFFFFFFF AND DUP2 PUSH20 0xFFFFFFFFFFFFFFFFFFFFFFFFFFFFFFFFFFFFFFFF AND PUSH32 0x8BE0079C531659141344CD1FD0A4F28419497F9722A3DAAFE3B4186F6B6457E0 PUSH1 0x40 MLOAD PUSH1 0x40 MLOAD DUP1 SWAP2 SUB SWAP1 LOG3 POP POP JUMP JUMPDEST PUSH1 0x40 MLOAD DUP1 PUSH1 0x80 ADD PUSH1 0x40 MSTORE DUP1 PUSH1 0x60 DUP2 MSTORE PUSH1 0x20 ADD PUSH1 0x60 DUP2 MSTORE PUSH1 0x20 ADD PUSH1 0x60 DUP2 MSTORE PUSH1 0x20 ADD PUSH1 0x60 DUP2 MSTORE POP SWAP1 JUMP JUMPDEST PUSH1 0x40 MLOAD DUP1 PUSH1 0x40 ADD PUSH1 0x40 MSTORE DUP1 PUSH1 0x60 DUP2 MSTORE PUSH1 0x20 ADD PUSH1 0x0 DUP2 MSTORE POP SWAP1 JUMP JUMPDEST POP DUP1 SLOAD PUSH2 0x168C SWAP1 PUSH2 0x1FF8 JUMP JUMPDEST PUSH1 0x0 DUP3 SSTORE DUP1 PUSH1 0x1F LT PUSH2 0x169E JUMPI POP PUSH2 0x16BD JUMP JUMPDEST PUSH1 0x1F ADD PUSH1 0x20 SWAP1 DIV SWAP1 PUSH1 0x0 MSTORE PUSH1 0x20 PUSH1 0x0 KECCAK256 SWAP1 DUP2 ADD SWAP1 PUSH2 0x16BC SWAP2 SWAP1 PUSH2 0x16C0 JUMP JUMPDEST JUMPDEST POP JUMP JUMPDEST JUMPDEST DUP1 DUP3 GT ISZERO PUSH2 0x16D9 JUMPI PUSH1 0x0 DUP2 PUSH1 0x0 SWAP1 SSTORE POP PUSH1 0x1 ADD PUSH2 0x16C1 JUMP JUMPDEST POP SWAP1 JUMP JUMPDEST PUSH1 0x0 PUSH1 0x40 MLOAD SWAP1 POP SWAP1 JUMP JUMPDEST PUSH1 0x0 DUP1 REVERT JUMPDEST PUSH1 0x0 DUP1 REVERT JUMPDEST PUSH1 0x0 DUP1 REVERT JUMPDEST PUSH1 0x0 DUP1 REVERT JUMPDEST PUSH1 0x0 PUSH1 0x1F NOT PUSH1 0x1F DUP4 ADD AND SWAP1 POP SWAP2 SWAP1 POP JUMP JUMPDEST PUSH32 0x4E487B7100000000000000000000000000000000000000000000000000000000 PUSH1 0x0 MSTORE PUSH1 0x41 PUSH1 0x4 MSTORE PUSH1 0x24 PUSH1 0x0 REVERT JUMPDEST PUSH2 0x1744 DUP3 PUSH2 0x16FB JUMP JUMPDEST DUP2 ADD DUP2 DUP2 LT PUSH8 0xFFFFFFFFFFFFFFFF DUP3 GT OR ISZERO PUSH2 0x1763 JUMPI PUSH2 0x1762 PUSH2 0x170C JUMP JUMPDEST JUMPDEST DUP1 PUSH1 0x40 MSTORE POP POP POP JUMP JUMPDEST PUSH1 0x0 PUSH2 0x1776 PUSH2 0x16DD JUMP JUMPDEST SWAP1 POP PUSH2 0x1782 DUP3 DUP3 PUSH2 0x173B JUMP JUMPDEST SWAP2 SWAP1 POP JUMP JUMPDEST PUSH1 0x0 PUSH8 0xFFFFFFFFFFFFFFFF DUP3 GT ISZERO PUSH2 0x17A2 JUMPI PUSH2 0x17A1 PUSH2 0x170C JUMP JUMPDEST JUMPDEST PUSH2 0x17AB DUP3 PUSH2 0x16FB JUMP JUMPDEST SWAP1 POP PUSH1 0x20 DUP2 ADD SWAP1 POP SWAP2 SWAP1 POP JUMP JUMPDEST DUP3 DUP2 DUP4 CALLDATACOPY PUSH1 0x0 DUP4 DUP4 ADD MSTORE POP POP POP JUMP JUMPDEST PUSH1 0x0 PUSH2 0x17DA PUSH2 0x17D5 DUP5 PUSH2 0x1787 JUMP JUMPDEST PUSH2 0x176C JUMP JUMPDEST SWAP1 POP DUP3 DUP2 MSTORE PUSH1 0x20 DUP2 ADD DUP5 DUP5 DUP5 ADD GT ISZERO PUSH2 0x17F6 JUMPI PUSH2 0x17F5 PUSH2 0x16F6 JUMP JUMPDEST JUMPDEST PUSH2 0x1801 DUP5 DUP3 DUP6 PUSH2 0x17B8 JUMP JUMPDEST POP SWAP4 SWAP3 POP POP POP JUMP JUMPDEST PUSH1 0x0 DUP3 PUSH1 0x1F DUP4 ADD SLT PUSH2 0x181E JUMPI PUSH2 0x181D PUSH2 0x16F1 JUMP JUMPDEST JUMPDEST DUP2 CALLDATALOAD PUSH2 0x182E DUP5 DUP3 PUSH1 0x20 DUP7 ADD PUSH2 0x17C7 JUMP JUMPDEST SWAP2 POP POP SWAP3 SWAP2 POP POP JUMP JUMPDEST PUSH1 0x0 DUP1 PUSH1 0x40 DUP4 DUP6 SUB SLT ISZERO PUSH2 0x184E JUMPI PUSH2 0x184D PUSH2 0x16E7 JUMP JUMPDEST JUMPDEST PUSH1 0x0 DUP4 ADD CALLDATALOAD PUSH8 0xFFFFFFFFFFFFFFFF DUP2 GT ISZERO PUSH2 0x186C JUMPI PUSH2 0x186B PUSH2 0x16EC JUMP JUMPDEST JUMPDEST PUSH2 0x1878 DUP6 DUP3 DUP7 ADD PUSH2 0x1809 JUMP JUMPDEST SWAP3 POP POP PUSH1 0x20 DUP4 ADD CALLDATALOAD PUSH8 0xFFFFFFFFFFFFFFFF DUP2 GT ISZERO PUSH2 0x1899 JUMPI PUSH2 0x1898 PUSH2 0x16EC JUMP JUMPDEST JUMPDEST PUSH2 0x18A5 DUP6 DUP3 DUP7 ADD PUSH2 0x1809 JUMP JUMPDEST SWAP2 POP POP SWAP3 POP SWAP3 SWAP1 POP JUMP JUMPDEST PUSH1 0x0 DUP2 SWAP1 POP SWAP2 SWAP1 POP JUMP JUMPDEST PUSH2 0x18C2 DUP2 PUSH2 0x18AF JUMP JUMPDEST DUP3 MSTORE POP POP JUMP JUMPDEST PUSH1 0x0 PUSH1 0x20 DUP3 ADD SWAP1 POP PUSH2 0x18DD PUSH1 0x0 DUP4 ADD DUP5 PUSH2 0x18B9 JUMP JUMPDEST SWAP3 SWAP2 POP POP JUMP JUMPDEST PUSH1 0x0 DUP1 REVERT JUMPDEST PUSH1 0x0 DUP1 REVERT JUMPDEST PUSH1 0x0 PUSH1 0x80 DUP3 DUP5 SUB SLT ISZERO PUSH2 0x1903 JUMPI PUSH2 0x1902 PUSH2 0x18E3 JUMP JUMPDEST JUMPDEST PUSH2 0x190D PUSH1 0x80 PUSH2 0x176C JUMP JUMPDEST SWAP1 POP PUSH1 0x0 DUP3 ADD CALLDATALOAD PUSH8 0xFFFFFFFFFFFFFFFF DUP2 GT ISZERO PUSH2 0x192D JUMPI PUSH2 0x192C PUSH2 0x18E8 JUMP JUMPDEST JUMPDEST PUSH2 0x1939 DUP5 DUP3 DUP6 ADD PUSH2 0x1809 JUMP JUMPDEST PUSH1 0x0 DUP4 ADD MSTORE POP PUSH1 0x20 DUP3 ADD CALLDATALOAD PUSH8 0xFFFFFFFFFFFFFFFF DUP2 GT ISZERO PUSH2 0x195D JUMPI PUSH2 0x195C PUSH2 0x18E8 JUMP JUMPDEST JUMPDEST PUSH2 0x1969 DUP5 DUP3 DUP6 ADD PUSH2 0x1809 JUMP JUMPDEST PUSH1 0x20 DUP4 ADD MSTORE POP PUSH1 0x40 DUP3 ADD CALLDATALOAD PUSH8 0xFFFFFFFFFFFFFFFF DUP2 GT ISZERO PUSH2 0x198D JUMPI PUSH2 0x198C PUSH2 0x18E8 JUMP JUMPDEST JUMPDEST PUSH2 0x1999 DUP5 DUP3 DUP6 ADD PUSH2 0x1809 JUMP JUMPDEST PUSH1 0x40 DUP4 ADD MSTORE POP PUSH1 0x60 DUP3 ADD CALLDATALOAD PUSH8 0xFFFFFFFFFFFFFFFF DUP2 GT ISZERO PUSH2 0x19BD JUMPI PUSH2 0x19BC PUSH2 0x18E8 JUMP JUMPDEST JUMPDEST PUSH2 0x19C9 DUP5 DUP3 DUP6 ADD PUSH2 0x1809 JUMP JUMPDEST PUSH1 0x60 DUP4 ADD MSTORE POP SWAP3 SWAP2 POP POP JUMP JUMPDEST PUSH1 0x0 DUP1 PUSH1 0x40 DUP4 DUP6 SUB SLT ISZERO PUSH2 0x19EC JUMPI PUSH2 0x19EB PUSH2 0x16E7 JUMP JUMPDEST JUMPDEST PUSH1 0x0 DUP4 ADD CALLDATALOAD PUSH8 0xFFFFFFFFFFFFFFFF DUP2 GT ISZERO PUSH2 0x1A0A JUMPI PUSH2 0x1A09 PUSH2 0x16EC JUMP JUMPDEST JUMPDEST PUSH2 0x1A16 DUP6 DUP3 DUP7 ADD PUSH2 0x1809 JUMP JUMPDEST SWAP3 POP POP PUSH1 0x20 DUP4 ADD CALLDATALOAD PUSH8 0xFFFFFFFFFFFFFFFF DUP2 GT ISZERO PUSH2 0x1A37 JUMPI PUSH2 0x1A36 PUSH2 0x16EC JUMP JUMPDEST JUMPDEST PUSH2 0x1A43 DUP6 DUP3 DUP7 ADD PUSH2 0x18ED JUMP JUMPDEST SWAP2 POP POP SWAP3 POP SWAP3 SWAP1 POP JUMP JUMPDEST PUSH1 0x0 DUP2 ISZERO ISZERO SWAP1 POP SWAP2 SWAP1 POP JUMP JUMPDEST PUSH2 0x1A62 DUP2 PUSH2 0x1A4D JUMP JUMPDEST DUP3 MSTORE POP POP JUMP JUMPDEST PUSH1 0x0 PUSH1 0x20 DUP3 ADD SWAP1 POP PUSH2 0x1A7D PUSH1 0x0 DUP4 ADD DUP5 PUSH2 0x1A59 JUMP JUMPDEST SWAP3 SWAP2 POP POP JUMP JUMPDEST PUSH1 0x0 PUSH20 0xFFFFFFFFFFFFFFFFFFFFFFFFFFFFFFFFFFFFFFFF DUP3 AND SWAP1 POP SWAP2 SWAP1 POP JUMP JUMPDEST PUSH1 0x0 PUSH2 0x1AAE DUP3 PUSH2 0x1A83 JUMP JUMPDEST SWAP1 POP SWAP2 SWAP1 POP JUMP JUMPDEST PUSH2 0x1ABE DUP2 PUSH2 0x1AA3 JUMP JUMPDEST DUP3 MSTORE POP POP JUMP JUMPDEST PUSH1 0x0 PUSH1 0x20 DUP3 ADD SWAP1 POP PUSH2 0x1AD9 PUSH1 0x0 DUP4 ADD DUP5 PUSH2 0x1AB5 JUMP JUMPDEST SWAP3 SWAP2 POP POP JUMP JUMPDEST PUSH2 0x1AE8 DUP2 PUSH2 0x18AF JUMP JUMPDEST DUP2 EQ PUSH2 0x1AF3 JUMPI PUSH1 0x0 DUP1 REVERT JUMPDEST POP JUMP JUMPDEST PUSH1 0x0 DUP2 CALLDATALOAD SWAP1 POP PUSH2 0x1B05 DUP2 PUSH2 0x1ADF JUMP JUMPDEST SWAP3 SWAP2 POP POP JUMP JUMPDEST PUSH1 0x0 DUP1 PUSH1 0x40 DUP4 DUP6 SUB SLT ISZERO PUSH2 0x1B22 JUMPI PUSH2 0x1B21 PUSH2 0x16E7 JUMP JUMPDEST JUMPDEST PUSH1 0x0 DUP4 ADD CALLDATALOAD PUSH8 0xFFFFFFFFFFFFFFFF DUP2 GT ISZERO PUSH2 0x1B40 JUMPI PUSH2 0x1B3F PUSH2 0x16EC JUMP JUMPDEST JUMPDEST PUSH2 0x1B4C DUP6 DUP3 DUP7 ADD PUSH2 0x1809 JUMP JUMPDEST SWAP3 POP POP PUSH1 0x20 PUSH2 0x1B5D DUP6 DUP3 DUP7 ADD PUSH2 0x1AF6 JUMP JUMPDEST SWAP2 POP POP SWAP3 POP SWAP3 SWAP1 POP JUMP JUMPDEST PUSH1 0x0 DUP2 MLOAD SWAP1 POP SWAP2 SWAP1 POP JUMP JUMPDEST PUSH1 0x0 DUP3 DUP3 MSTORE PUSH1 0x20 DUP3 ADD SWAP1 POP SWAP3 SWAP2 POP POP JUMP JUMPDEST PUSH1 0x0 JUMPDEST DUP4 DUP2 LT ISZERO PUSH2 0x1BA1 JUMPI DUP1 DUP3 ADD MLOAD DUP2 DUP5 ADD MSTORE PUSH1 0x20 DUP2 ADD SWAP1 POP PUSH2 0x1B86 JUMP JUMPDEST DUP4 DUP2 GT ISZERO PUSH2 0x1BB0 JUMPI PUSH1 0x0 DUP5 DUP5 ADD MSTORE JUMPDEST POP POP POP POP JUMP JUMPDEST PUSH1 0x0 PUSH2 0x1BC1 DUP3 PUSH2 0x1B67 JUMP JUMPDEST PUSH2 0x1BCB DUP2 DUP6 PUSH2 0x1B72 JUMP JUMPDEST SWAP4 POP PUSH2 0x1BDB DUP2 DUP6 PUSH1 0x20 DUP7 ADD PUSH2 0x1B83 JUMP JUMPDEST PUSH2 0x1BE4 DUP2 PUSH2 0x16FB JUMP JUMPDEST DUP5 ADD SWAP2 POP POP SWAP3 SWAP2 POP POP JUMP JUMPDEST PUSH1 0x0 PUSH1 0x40 DUP3 ADD SWAP1 POP DUP2 DUP2 SUB PUSH1 0x0 DUP4 ADD MSTORE PUSH2 0x1C09 DUP2 DUP6 PUSH2 0x1BB6 JUMP JUMPDEST SWAP1 POP PUSH2 0x1C18 PUSH1 0x20 DUP4 ADD DUP5 PUSH2 0x18B9 JUMP JUMPDEST SWAP4 SWAP3 POP POP POP JUMP JUMPDEST PUSH1 0x0 DUP1 PUSH1 0x0 PUSH1 0x60 DUP5 DUP7 SUB SLT ISZERO PUSH2 0x1C38 JUMPI PUSH2 0x1C37 PUSH2 0x16E7 JUMP JUMPDEST JUMPDEST PUSH1 0x0 DUP5 ADD CALLDATALOAD PUSH8 0xFFFFFFFFFFFFFFFF DUP2 GT ISZERO PUSH2 0x1C56 JUMPI PUSH2 0x1C55 PUSH2 0x16EC JUMP JUMPDEST JUMPDEST PUSH2 0x1C62 DUP7 DUP3 DUP8 ADD PUSH2 0x1809 JUMP JUMPDEST SWAP4 POP POP PUSH1 0x20 DUP5 ADD CALLDATALOAD PUSH8 0xFFFFFFFFFFFFFFFF DUP2 GT ISZERO PUSH2 0x1C83 JUMPI PUSH2 0x1C82 PUSH2 0x16EC JUMP JUMPDEST JUMPDEST PUSH2 0x1C8F DUP7 DUP3 DUP8 ADD PUSH2 0x1809 JUMP JUMPDEST SWAP3 POP POP PUSH1 0x40 PUSH2 0x1CA0 DUP7 DUP3 DUP8 ADD PUSH2 0x1AF6 JUMP JUMPDEST SWAP2 POP POP SWAP3 POP SWAP3 POP SWAP3 JUMP JUMPDEST PUSH1 0x0 PUSH1 0x20 DUP3 DUP5 SUB SLT ISZERO PUSH2 0x1CC0 JUMPI PUSH2 0x1CBF PUSH2 0x16E7 JUMP JUMPDEST JUMPDEST PUSH1 0x0 DUP3 ADD CALLDATALOAD PUSH8 0xFFFFFFFFFFFFFFFF DUP2 GT ISZERO PUSH2 0x1CDE JUMPI PUSH2 0x1CDD PUSH2 0x16EC JUMP JUMPDEST JUMPDEST PUSH2 0x1CEA DUP5 DUP3 DUP6 ADD PUSH2 0x1809 JUMP JUMPDEST SWAP2 POP POP SWAP3 SWAP2 POP POP JUMP JUMPDEST PUSH1 0x0 DUP2 MLOAD SWAP1 POP SWAP2 SWAP1 POP JUMP JUMPDEST PUSH1 0x0 DUP3 DUP3 MSTORE PUSH1 0x20 DUP3 ADD SWAP1 POP SWAP3 SWAP2 POP POP JUMP JUMPDEST PUSH1 0x0 DUP2 SWAP1 POP PUSH1 0x20 DUP3 ADD SWAP1 POP SWAP2 SWAP1 POP JUMP JUMPDEST PUSH1 0x0 DUP3 DUP3 MSTORE PUSH1 0x20 DUP3 ADD SWAP1 POP SWAP3 SWAP2 POP POP JUMP JUMPDEST PUSH1 0x0 PUSH2 0x1D3B DUP3 PUSH2 0x1B67 JUMP JUMPDEST PUSH2 0x1D45 DUP2 DUP6 PUSH2 0x1D1F JUMP JUMPDEST SWAP4 POP PUSH2 0x1D55 DUP2 DUP6 PUSH1 0x20 DUP7 ADD PUSH2 0x1B83 JUMP JUMPDEST PUSH2 0x1D5E DUP2 PUSH2 0x16FB JUMP JUMPDEST DUP5 ADD SWAP2 POP POP SWAP3 SWAP2 POP POP JUMP JUMPDEST PUSH1 0x0 PUSH2 0x1D75 DUP4 DUP4 PUSH2 0x1D30 JUMP JUMPDEST SWAP1 POP SWAP3 SWAP2 POP POP JUMP JUMPDEST PUSH1 0x0 PUSH1 0x20 DUP3 ADD SWAP1 POP SWAP2 SWAP1 POP JUMP JUMPDEST PUSH1 0x0 PUSH2 0x1D95 DUP3 PUSH2 0x1CF3 JUMP JUMPDEST PUSH2 0x1D9F DUP2 DUP6 PUSH2 0x1CFE JUMP JUMPDEST SWAP4 POP DUP4 PUSH1 0x20 DUP3 MUL DUP6 ADD PUSH2 0x1DB1 DUP6 PUSH2 0x1D0F JUMP JUMPDEST DUP1 PUSH1 0x0 JUMPDEST DUP6 DUP2 LT ISZERO PUSH2 0x1DED JUMPI DUP5 DUP5 SUB DUP10 MSTORE DUP2 MLOAD PUSH2 0x1DCE DUP6 DUP3 PUSH2 0x1D69 JUMP JUMPDEST SWAP5 POP PUSH2 0x1DD9 DUP4 PUSH2 0x1D7D JUMP JUMPDEST SWAP3 POP PUSH1 0x20 DUP11 ADD SWAP10 POP POP PUSH1 0x1 DUP2 ADD SWAP1 POP PUSH2 0x1DB5 JUMP JUMPDEST POP DUP3 SWAP8 POP DUP8 SWAP6 POP POP POP POP POP POP SWAP3 SWAP2 POP POP JUMP JUMPDEST PUSH1 0x0 PUSH1 0x20 DUP3 ADD SWAP1 POP DUP2 DUP2 SUB PUSH1 0x0 DUP4 ADD MSTORE PUSH2 0x1E19 DUP2 DUP5 PUSH2 0x1D8A JUMP JUMPDEST SWAP1 POP SWAP3 SWAP2 POP POP JUMP JUMPDEST PUSH2 0x1E2A DUP2 PUSH2 0x1AA3 JUMP JUMPDEST DUP2 EQ PUSH2 0x1E35 JUMPI PUSH1 0x0 DUP1 REVERT JUMPDEST POP JUMP JUMPDEST PUSH1 0x0 DUP2 CALLDATALOAD SWAP1 POP PUSH2 0x1E47 DUP2 PUSH2 0x1E21 JUMP JUMPDEST SWAP3 SWAP2 POP POP JUMP JUMPDEST PUSH1 0x0 PUSH1 0x20 DUP3 DUP5 SUB SLT ISZERO PUSH2 0x1E63 JUMPI PUSH2 0x1E62 PUSH2 0x16E7 JUMP JUMPDEST JUMPDEST PUSH1 0x0 PUSH2 0x1E71 DUP5 DUP3 DUP6 ADD PUSH2 0x1E38 JUMP JUMPDEST SWAP2 POP POP SWAP3 SWAP2 POP POP JUMP JUMPDEST PUSH1 0x0 PUSH1 0x80 DUP3 ADD SWAP1 POP DUP2 DUP2 SUB PUSH1 0x0 DUP4 ADD MSTORE PUSH2 0x1E94 DUP2 DUP8 PUSH2 0x1BB6 JUMP JUMPDEST SWAP1 POP DUP2 DUP2 SUB PUSH1 0x20 DUP4 ADD MSTORE PUSH2 0x1EA8 DUP2 DUP7 PUSH2 0x1BB6 JUMP JUMPDEST SWAP1 POP DUP2 DUP2 SUB PUSH1 0x40 DUP4 ADD MSTORE PUSH2 0x1EBC DUP2 DUP6 PUSH2 0x1BB6 JUMP JUMPDEST SWAP1 POP DUP2 DUP2 SUB PUSH1 0x60 DUP4 ADD MSTORE PUSH2 0x1ED0 DUP2 DUP5 PUSH2 0x1BB6 JUMP JUMPDEST SWAP1 POP SWAP6 SWAP5 POP POP POP POP POP JUMP JUMPDEST PUSH32 0x4F776E61626C653A2063616C6C6572206973206E6F7420746865206F776E6572 PUSH1 0x0 DUP3 ADD MSTORE POP JUMP JUMPDEST PUSH1 0x0 PUSH2 0x1F11 PUSH1 0x20 DUP4 PUSH2 0x1B72 JUMP JUMPDEST SWAP2 POP PUSH2 0x1F1C DUP3 PUSH2 0x1EDB JUMP JUMPDEST PUSH1 0x20 DUP3 ADD SWAP1 POP SWAP2 SWAP1 POP JUMP JUMPDEST PUSH1 0x0 PUSH1 0x20 DUP3 ADD SWAP1 POP DUP2 DUP2 SUB PUSH1 0x0 DUP4 ADD MSTORE PUSH2 0x1F40 DUP2 PUSH2 0x1F04 JUMP JUMPDEST SWAP1 POP SWAP2 SWAP1 POP JUMP JUMPDEST PUSH1 0x0 DUP2 SWAP1 POP SWAP3 SWAP2 POP POP JUMP JUMPDEST PUSH1 0x0 PUSH2 0x1F5D DUP3 PUSH2 0x1B67 JUMP JUMPDEST PUSH2 0x1F67 DUP2 DUP6 PUSH2 0x1F47 JUMP JUMPDEST SWAP4 POP PUSH2 0x1F77 DUP2 DUP6 PUSH1 0x20 DUP7 ADD PUSH2 0x1B83 JUMP JUMPDEST DUP1 DUP5 ADD SWAP2 POP POP SWAP3 SWAP2 POP POP JUMP JUMPDEST PUSH1 0x0 PUSH2 0x1F8F DUP3 DUP5 PUSH2 0x1F52 JUMP JUMPDEST SWAP2 POP DUP2 SWAP1 POP SWAP3 SWAP2 POP POP JUMP JUMPDEST PUSH32 0x4E487B7100000000000000000000000000000000000000000000000000000000 PUSH1 0x0 MSTORE PUSH1 0x32 PUSH1 0x4 MSTORE PUSH1 0x24 PUSH1 0x0 REVERT JUMPDEST PUSH32 0x4E487B7100000000000000000000000000000000000000000000000000000000 PUSH1 0x0 MSTORE PUSH1 0x22 PUSH1 0x4 MSTORE PUSH1 0x24 PUSH1 0x0 REVERT JUMPDEST PUSH1 0x0 PUSH1 0x2 DUP3 DIV SWAP1 POP PUSH1 0x1 DUP3 AND DUP1 PUSH2 0x2010 JUMPI PUSH1 0x7F DUP3 AND SWAP2 POP JUMPDEST PUSH1 0x20 DUP3 LT DUP2 SUB PUSH2 0x2023 JUMPI PUSH2 0x2022 PUSH2 0x1FC9 JUMP JUMPDEST JUMPDEST POP SWAP2 SWAP1 POP JUMP JUMPDEST PUSH1 0x0 DUP2 SWAP1 POP DUP2 PUSH1 0x0 MSTORE PUSH1 0x20 PUSH1 0x0 KECCAK256 SWAP1 POP SWAP2 SWAP1 POP JUMP JUMPDEST PUSH1 0x0 DUP2 SLOAD PUSH2 0x204B DUP2 PUSH2 0x1FF8 JUMP JUMPDEST PUSH2 0x2055 DUP2 DUP7 PUSH2 0x1F47 JUMP JUMPDEST SWAP5 POP PUSH1 0x1 DUP3 AND PUSH1 0x0 DUP2 EQ PUSH2 0x2070 JUMPI PUSH1 0x1 DUP2 EQ PUSH2 0x2085 JUMPI PUSH2 0x20B8 JUMP JUMPDEST PUSH1 0xFF NOT DUP4 AND DUP7 MSTORE DUP2 ISZERO ISZERO DUP3 MUL DUP7 ADD SWAP4 POP PUSH2 0x20B8 JUMP JUMPDEST PUSH2 0x208E DUP6 PUSH2 0x2029 JUMP JUMPDEST PUSH1 0x0 JUMPDEST DUP4 DUP2 LT ISZERO PUSH2 0x20B0 JUMPI DUP2 SLOAD DUP2 DUP10 ADD MSTORE PUSH1 0x1 DUP3 ADD SWAP2 POP PUSH1 0x20 DUP2 ADD SWAP1 POP PUSH2 0x2091 JUMP JUMPDEST DUP4 DUP9 ADD SWAP6 POP POP POP JUMPDEST POP POP POP SWAP3 SWAP2 POP POP JUMP JUMPDEST PUSH1 0x0 PUSH2 0x20CD DUP3 DUP5 PUSH2 0x203E JUMP JUMPDEST SWAP2 POP DUP2 SWAP1 POP SWAP3 SWAP2 POP POP JUMP JUMPDEST PUSH32 0x4E487B7100000000000000000000000000000000000000000000000000000000 PUSH1 0x0 MSTORE PUSH1 0x11 PUSH1 0x4 MSTORE PUSH1 0x24 PUSH1 0x0 REVERT JUMPDEST PUSH1 0x0 PUSH2 0x2112 DUP3 PUSH2 0x18AF JUMP JUMPDEST SWAP2 POP PUSH32 0xFFFFFFFFFFFFFFFFFFFFFFFFFFFFFFFFFFFFFFFFFFFFFFFFFFFFFFFFFFFFFFFF DUP3 SUB PUSH2 0x2144 JUMPI PUSH2 0x2143 PUSH2 0x20D8 JUMP JUMPDEST JUMPDEST PUSH1 0x1 DUP3 ADD SWAP1 POP SWAP2 SWAP1 POP JUMP JUMPDEST PUSH1 0x0 PUSH1 0x20 PUSH1 0x1F DUP4 ADD DIV SWAP1 POP SWAP2 SWAP1 POP JUMP JUMPDEST PUSH1 0x0 DUP3 DUP3 SHL SWAP1 POP SWAP3 SWAP2 POP POP JUMP JUMPDEST PUSH1 0x0 PUSH1 0x8 DUP4 MUL PUSH2 0x219C PUSH32 0xFFFFFFFFFFFFFFFFFFFFFFFFFFFFFFFFFFFFFFFFFFFFFFFFFFFFFFFFFFFFFFFF DUP3 PUSH2 0x215F JUMP JUMPDEST PUSH2 0x21A6 DUP7 DUP4 PUSH2 0x215F JUMP JUMPDEST SWAP6 POP DUP1 NOT DUP5 AND SWAP4 POP DUP1 DUP7 AND DUP5 OR SWAP3 POP POP POP SWAP4 SWAP3 POP POP POP JUMP JUMPDEST PUSH1 0x0 DUP2 SWAP1 POP SWAP2 SWAP1 POP JUMP JUMPDEST PUSH1 0x0 PUSH2 0x21E3 PUSH2 0x21DE PUSH2 0x21D9 DUP5 PUSH2 0x18AF JUMP JUMPDEST PUSH2 0x21BE JUMP JUMPDEST PUSH2 0x18AF JUMP JUMPDEST SWAP1 POP SWAP2 SWAP1 POP JUMP JUMPDEST PUSH1 0x0 DUP2 SWAP1 POP SWAP2 SWAP1 POP JUMP JUMPDEST PUSH2 0x21FD DUP4 PUSH2 0x21C8 JUMP JUMPDEST PUSH2 0x2211 PUSH2 0x2209 DUP3 PUSH2 0x21EA JUMP JUMPDEST DUP5 DUP5 SLOAD PUSH2 0x216C JUMP JUMPDEST DUP3 SSTORE POP POP POP POP JUMP JUMPDEST PUSH1 0x0 SWAP1 JUMP JUMPDEST PUSH2 0x2226 PUSH2 0x2219 JUMP JUMPDEST PUSH2 0x2231 DUP2 DUP5 DUP5 PUSH2 0x21F4 JUMP JUMPDEST POP POP POP JUMP JUMPDEST JUMPDEST DUP2 DUP2 LT ISZERO PUSH2 0x2255 JUMPI PUSH2 0x224A PUSH1 0x0 DUP3 PUSH2 0x221E JUMP JUMPDEST PUSH1 0x1 DUP2 ADD SWAP1 POP PUSH2 0x2237 JUMP JUMPDEST POP POP JUMP JUMPDEST PUSH1 0x1F DUP3 GT ISZERO PUSH2 0x229A JUMPI PUSH2 0x226B DUP2 PUSH2 0x2029 JUMP JUMPDEST PUSH2 0x2274 DUP5 PUSH2 0x214F JUMP JUMPDEST DUP2 ADD PUSH1 0x20 DUP6 LT ISZERO PUSH2 0x2283 JUMPI DUP2 SWAP1 POP JUMPDEST PUSH2 0x2297 PUSH2 0x228F DUP6 PUSH2 0x214F JUMP JUMPDEST DUP4 ADD DUP3 PUSH2 0x2236 JUMP JUMPDEST POP POP JUMPDEST POP POP POP JUMP JUMPDEST PUSH1 0x0 DUP3 DUP3 SHR SWAP1 POP SWAP3 SWAP2 POP POP JUMP JUMPDEST PUSH1 0x0 PUSH2 0x22BD PUSH1 0x0 NOT DUP5 PUSH1 0x8 MUL PUSH2 0x229F JUMP JUMPDEST NOT DUP1 DUP4 AND SWAP2 POP POP SWAP3 SWAP2 POP POP JUMP JUMPDEST PUSH1 0x0 PUSH2 0x22D6 DUP4 DUP4 PUSH2 0x22AC JUMP JUMPDEST SWAP2 POP DUP3 PUSH1 0x2 MUL DUP3 OR SWAP1 POP SWAP3 SWAP2 POP POP JUMP JUMPDEST PUSH2 0x22EF DUP3 PUSH2 0x1B67 JUMP JUMPDEST PUSH8 0xFFFFFFFFFFFFFFFF DUP2 GT ISZERO PUSH2 0x2308 JUMPI PUSH2 0x2307 PUSH2 0x170C JUMP JUMPDEST JUMPDEST PUSH2 0x2312 DUP3 SLOAD PUSH2 0x1FF8 JUMP JUMPDEST PUSH2 0x231D DUP3 DUP3 DUP6 PUSH2 0x2259 JUMP JUMPDEST PUSH1 0x0 PUSH1 0x20 SWAP1 POP PUSH1 0x1F DUP4 GT PUSH1 0x1 DUP2 EQ PUSH2 0x2350 JUMPI PUSH1 0x0 DUP5 ISZERO PUSH2 0x233E JUMPI DUP3 DUP8 ADD MLOAD SWAP1 POP JUMPDEST PUSH2 0x2348 DUP6 DUP3 PUSH2 0x22CA JUMP JUMPDEST DUP7 SSTORE POP PUSH2 0x23B0 JUMP JUMPDEST PUSH1 0x1F NOT DUP5 AND PUSH2 0x235E DUP7 PUSH2 0x2029 JUMP JUMPDEST PUSH1 0x0 JUMPDEST DUP3 DUP2 LT ISZERO PUSH2 0x2386 JUMPI DUP5 DUP10 ADD MLOAD DUP3 SSTORE PUSH1 0x1 DUP3 ADD SWAP2 POP PUSH1 0x20 DUP6 ADD SWAP5 POP PUSH1 0x20 DUP2 ADD SWAP1 POP PUSH2 0x2361 JUMP JUMPDEST DUP7 DUP4 LT ISZERO PUSH2 0x23A3 JUMPI DUP5 DUP10 ADD MLOAD PUSH2 0x239F PUSH1 0x1F DUP10 AND DUP3 PUSH2 0x22AC JUMP JUMPDEST DUP4 SSTORE POP JUMPDEST PUSH1 0x1 PUSH1 0x2 DUP9 MUL ADD DUP9 SSTORE POP POP POP JUMPDEST POP POP POP POP POP POP JUMP JUMPDEST PUSH1 0x0 PUSH2 0x23C3 DUP3 PUSH2 0x18AF JUMP JUMPDEST SWAP2 POP PUSH2 0x23CE DUP4 PUSH2 0x18AF JUMP JUMPDEST SWAP3 POP DUP3 PUSH32 0xFFFFFFFFFFFFFFFFFFFFFFFFFFFFFFFFFFFFFFFFFFFFFFFFFFFFFFFFFFFFFFFF SUB DUP3 GT ISZERO PUSH2 0x2403 JUMPI PUSH2 0x2402 PUSH2 0x20D8 JUMP JUMPDEST JUMPDEST DUP3 DUP3 ADD SWAP1 POP SWAP3 SWAP2 POP POP JUMP JUMPDEST PUSH1 0x0 PUSH2 0x2419 DUP3 PUSH2 0x18AF JUMP JUMPDEST SWAP2 POP PUSH2 0x2424 DUP4 PUSH2 0x18AF JUMP JUMPDEST SWAP3 POP DUP3 DUP3 LT ISZERO PUSH2 0x2437 JUMPI PUSH2 0x2436 PUSH2 0x20D8 JUMP JUMPDEST JUMPDEST DUP3 DUP3 SUB SWAP1 POP SWAP3 SWAP2 POP POP JUMP JUMPDEST PUSH32 0x4F776E61626C653A206E6577206F776E657220697320746865207A65726F2061 PUSH1 0x0 DUP3 ADD MSTORE PUSH32 0x6464726573730000000000000000000000000000000000000000000000000000 PUSH1 0x20 DUP3 ADD MSTORE POP JUMP JUMPDEST PUSH1 0x0 PUSH2 0x249E PUSH1 0x26 DUP4 PUSH2 0x1B72 JUMP JUMPDEST SWAP2 POP PUSH2 0x24A9 DUP3 PUSH2 0x2442 JUMP JUMPDEST PUSH1 0x40 DUP3 ADD SWAP1 POP SWAP2 SWAP1 POP JUMP JUMPDEST PUSH1 0x0 PUSH1 0x20 DUP3 ADD SWAP1 POP DUP2 DUP2 SUB PUSH1 0x0 DUP4 ADD MSTORE PUSH2 0x24CD DUP2 PUSH2 0x2491 JUMP JUMPDEST SWAP1 POP SWAP2 SWAP1 POP JUMP INVALID LOG2 PUSH5 0x6970667358 0x22 SLT KECCAK256 0xC9 EXTCODEHASH DUP14 AND 0xBD DUP3 0xC7 0xD8 CHAINID DUP13 0xF6 RETURNDATACOPY 0xAE RETURNDATASIZE 0xAD 0x1E SUB 0xCA 0xB5 0xC3 0xC2 EXP PUSH16 0xA046D7769EABCC479464736F6C634300 ADDMOD 0xF STOP CALLER "
				},
				"gasEstimates": {
					"creation": {
						"codeDepositCost": "1896400",
						"executionCost": "infinite",
						"totalCost": "infinite"
					},
					"external": {
						"addPoint(string,string,uint256)": "infinite",
						"connectApp(string,string)": "infinite",
						"disconnectApp(string,string)": "infinite",
						"getPoint(string,string)": "infinite",
						"getUserApps(string)": "infinite",
						"owner()": "2611",
						"register(string,(string,string,string,string))": "infinite",
						"renounceOwnership()": "30419",
						"sendPoint()": "190",
						"subtractPoint(string,string,uint256)": "infinite",
						"transferOwnership(address)": "30786",
						"updateUserInfo(string,(string,string,string,string))": "infinite",
						"user(string)": "infinite",
						"userApp(string,uint256)": "infinite"
					},
					"internal": {
						"findUserApp(string memory,string memory)": "infinite"
					}
				},
				"methodIdentifiers": {
					"addPoint(string,string,uint256)": "c744f2b2",
					"connectApp(string,string)": "513f8b02",
					"disconnectApp(string,string)": "967572ce",
					"getPoint(string,string)": "02784721",
					"getUserApps(string)": "df6a9a69",
					"owner()": "8da5cb5b",
					"register(string,(string,string,string,string))": "2dd7ed5f",
					"renounceOwnership()": "715018a6",
					"sendPoint()": "2a596f57",
					"subtractPoint(string,string,uint256)": "e50d7934",
					"transferOwnership(address)": "f2fde38b",
					"updateUserInfo(string,(string,string,string,string))": "7a63e74e",
					"user(string)": "f4bf93be",
					"userApp(string,uint256)": "a07990c8"
				}
			},
			"storageLayout": {
				"storage": [
					{
						"astId": 664,
						"contract": "DID.sol:DID",
						"label": "_owner",
						"offset": 0,
						"slot": "0",
						"type": "t_address"
					},
					{
						"astId": 12,
						"contract": "DID.sol:DID",
						"label": "user",
						"offset": 0,
						"slot": "1",
						"type": "t_mapping(t_string_memory_ptr,t_struct(UserInfo)581_storage)"
					},
					{
						"astId": 18,
						"contract": "DID.sol:DID",
						"label": "userApp",
						"offset": 0,
						"slot": "2",
						"type": "t_mapping(t_string_memory_ptr,t_array(t_struct(Connected)572_storage)dyn_storage)"
					}
				],
				"types": {
					"t_address": {
						"encoding": "inplace",
						"label": "address",
						"numberOfBytes": "20"
					},
					"t_array(t_struct(Connected)572_storage)dyn_storage": {
						"base": "t_struct(Connected)572_storage",
						"encoding": "dynamic_array",
						"label": "struct IDID.Connected[]",
						"numberOfBytes": "32"
					},
					"t_mapping(t_string_memory_ptr,t_array(t_struct(Connected)572_storage)dyn_storage)": {
						"encoding": "mapping",
						"key": "t_string_memory_ptr",
						"label": "mapping(string => struct IDID.Connected[])",
						"numberOfBytes": "32",
						"value": "t_array(t_struct(Connected)572_storage)dyn_storage"
					},
					"t_mapping(t_string_memory_ptr,t_struct(UserInfo)581_storage)": {
						"encoding": "mapping",
						"key": "t_string_memory_ptr",
						"label": "mapping(string => struct IDID.UserInfo)",
						"numberOfBytes": "32",
						"value": "t_struct(UserInfo)581_storage"
					},
					"t_string_memory_ptr": {
						"encoding": "bytes",
						"label": "string",
						"numberOfBytes": "32"
					},
					"t_string_storage": {
						"encoding": "bytes",
						"label": "string",
						"numberOfBytes": "32"
					},
					"t_struct(Connected)572_storage": {
						"encoding": "inplace",
						"label": "struct IDID.Connected",
						"members": [
							{
								"astId": 569,
								"contract": "DID.sol:DID",
								"label": "app",
								"offset": 0,
								"slot": "0",
								"type": "t_string_storage"
							},
							{
								"astId": 571,
								"contract": "DID.sol:DID",
								"label": "point",
								"offset": 0,
								"slot": "1",
								"type": "t_uint256"
							}
						],
						"numberOfBytes": "64"
					},
					"t_struct(UserInfo)581_storage": {
						"encoding": "inplace",
						"label": "struct IDID.UserInfo",
						"members": [
							{
								"astId": 574,
								"contract": "DID.sol:DID",
								"label": "name",
								"offset": 0,
								"slot": "0",
								"type": "t_string_storage"
							},
							{
								"astId": 576,
								"contract": "DID.sol:DID",
								"label": "birth",
								"offset": 0,
								"slot": "1",
								"type": "t_string_storage"
							},
							{
								"astId": 578,
								"contract": "DID.sol:DID",
								"label": "gender",
								"offset": 0,
								"slot": "2",
								"type": "t_string_storage"
							},
							{
								"astId": 580,
								"contract": "DID.sol:DID",
								"label": "email",
								"offset": 0,
								"slot": "3",
								"type": "t_string_storage"
							}
						],
						"numberOfBytes": "128"
					},
					"t_uint256": {
						"encoding": "inplace",
						"label": "uint256",
						"numberOfBytes": "32"
					}
				}
			},
			"userdoc": {
				"kind": "user",
				"methods": {},
				"version": 1
			}
		}
	}
}