{
  "contractName": "DID",
  "abi": [
    {
      "anonymous": false,
      "inputs": [
        {
          "indexed": true,
          "internalType": "address",
          "name": "previousOwner",
          "type": "address"
        },
        {
          "indexed": true,
          "internalType": "address",
          "name": "newOwner",
          "type": "address"
        }
      ],
      "name": "OwnershipTransferred",
      "type": "event"
    },
    {
      "inputs": [],
      "name": "owner",
      "outputs": [
        {
          "internalType": "address",
          "name": "",
          "type": "address"
        }
      ],
      "stateMutability": "view",
      "type": "function",
      "constant": true
    },
    {
      "inputs": [],
      "name": "renounceOwnership",
      "outputs": [],
      "stateMutability": "nonpayable",
      "type": "function"
    },
    {
      "inputs": [
        {
          "internalType": "address",
          "name": "newOwner",
          "type": "address"
        }
      ],
      "name": "transferOwnership",
      "outputs": [],
      "stateMutability": "nonpayable",
      "type": "function"
    },
    {
      "inputs": [
        {
          "internalType": "string",
          "name": "_identifier",
          "type": "string"
        },
        {
          "components": [
            {
              "internalType": "string",
              "name": "name",
              "type": "string"
            },
            {
              "internalType": "string",
              "name": "birth",
              "type": "string"
            },
            {
              "internalType": "string",
              "name": "gender",
              "type": "string"
            },
            {
              "internalType": "string",
              "name": "email",
              "type": "string"
            }
          ],
          "internalType": "struct IDID.UserInfo",
          "name": "_userData",
          "type": "tuple"
        }
      ],
      "name": "registerUser",
      "outputs": [],
      "stateMutability": "nonpayable",
      "type": "function"
    },
    {
      "inputs": [
        {
          "internalType": "string",
          "name": "_identifier",
          "type": "string"
        }
      ],
      "name": "withdrawUser",
      "outputs": [],
      "stateMutability": "nonpayable",
      "type": "function"
    },
    {
      "inputs": [
        {
          "internalType": "string",
          "name": "_identifier",
          "type": "string"
        },
        {
          "components": [
            {
              "internalType": "string",
              "name": "name",
              "type": "string"
            },
            {
              "internalType": "string",
              "name": "birth",
              "type": "string"
            },
            {
              "internalType": "string",
              "name": "gender",
              "type": "string"
            },
            {
              "internalType": "string",
              "name": "email",
              "type": "string"
            }
          ],
          "internalType": "struct IDID.UserInfo",
          "name": "_userData",
          "type": "tuple"
        }
      ],
      "name": "updateUser",
      "outputs": [],
      "stateMutability": "nonpayable",
      "type": "function"
    },
    {
      "inputs": [
        {
          "internalType": "string",
          "name": "_identifier",
          "type": "string"
        }
      ],
      "name": "isRegistered",
      "outputs": [
        {
          "internalType": "bool",
          "name": "",
          "type": "bool"
        }
      ],
      "stateMutability": "view",
      "type": "function",
      "constant": true
    },
    {
      "inputs": [
        {
          "internalType": "string",
          "name": "_identifier",
          "type": "string"
        }
      ],
      "name": "getUserInfo",
      "outputs": [
        {
          "components": [
            {
              "internalType": "string",
              "name": "name",
              "type": "string"
            },
            {
              "internalType": "string",
              "name": "birth",
              "type": "string"
            },
            {
              "internalType": "string",
              "name": "gender",
              "type": "string"
            },
            {
              "internalType": "string",
              "name": "email",
              "type": "string"
            }
          ],
          "internalType": "struct IDID.UserInfo",
          "name": "",
          "type": "tuple"
        }
      ],
      "stateMutability": "view",
      "type": "function",
      "constant": true
    }
  ],
  "bytecode": "0x608060405234801561001057600080fd5b5061002d61002261003260201b60201c565b61003a60201b60201c565b6100fe565b600033905090565b60008060009054906101000a900473ffffffffffffffffffffffffffffffffffffffff169050816000806101000a81548173ffffffffffffffffffffffffffffffffffffffff021916908373ffffffffffffffffffffffffffffffffffffffff1602179055508173ffffffffffffffffffffffffffffffffffffffff168173ffffffffffffffffffffffffffffffffffffffff167f8be0079c531659141344cd1fd0a4f28419497f9722a3daafe3b4186f6b6457e060405160405180910390a35050565b6114318061010d6000396000f3fe608060405234801561001057600080fd5b50600436106100885760003560e01c80638da5cb5b1161005b5780638da5cb5b146100ff578063c822d7f01461011d578063c90ae0f21461014d578063f2fde38b1461016957610088565b80630311f61d1461008d57806320b4d14b146100a9578063715018a6146100c55780637c9b7fdd146100cf575b600080fd5b6100a760048036038101906100a29190610ce3565b610185565b005b6100c360048036038101906100be9190610d5b565b6102ad565b005b6100cd61037d565b005b6100e960048036038101906100e49190610d5b565b610405565b6040516100f69190610ea4565b60405180910390f35b610107610701565b6040516101149190610f07565b60405180910390f35b61013760048036038101906101329190610d5b565b61072a565b6040516101449190610f3d565b60405180910390f35b61016760048036038101906101629190610ce3565b61075f565b005b610183600480360381019061017e9190610f84565b61084f565b005b6002826040516101959190610fed565b908152602001604051809103902060009054906101000a900460ff16156101bb57600080fd5b6101c3610a12565b81600001518160000181905250816020015181602001819052508160400151816040018190525081606001518160600181905250806001846040516102089190610fed565b9081526020016040518091039020600082015181600001908161022b919061121a565b506020820151816001019081610241919061121a565b506040820151816002019081610257919061121a565b50606082015181600301908161026d919061121a565b5090505060016002846040516102839190610fed565b908152602001604051809103902060006101000a81548160ff021916908315150217905550505050565b6002816040516102bd9190610fed565b908152602001604051809103902060009054906101000a900460ff166102e257600080fd5b6001816040516102f29190610fed565b9081526020016040518091039020600080820160006103119190610a3a565b6001820160006103219190610a3a565b6002820160006103319190610a3a565b6003820160006103419190610a3a565b505060006002826040516103559190610fed565b908152602001604051809103902060006101000a81548160ff02191690831515021790555050565b610385610946565b73ffffffffffffffffffffffffffffffffffffffff166103a3610701565b73ffffffffffffffffffffffffffffffffffffffff16146103f9576040517f08c379a00000000000000000000000000000000000000000000000000000000081526004016103f090611349565b60405180910390fd5b610403600061094e565b565b61040d610a12565b610415610946565b73ffffffffffffffffffffffffffffffffffffffff16610433610701565b73ffffffffffffffffffffffffffffffffffffffff1614610489576040517f08c379a000000000000000000000000000000000000000000000000000000000815260040161048090611349565b60405180910390fd5b6001826040516104999190610fed565b90815260200160405180910390206040518060800160405290816000820180546104c290611033565b80601f01602080910402602001604051908101604052809291908181526020018280546104ee90611033565b801561053b5780601f106105105761010080835404028352916020019161053b565b820191906000526020600020905b81548152906001019060200180831161051e57829003601f168201915b5050505050815260200160018201805461055490611033565b80601f016020809104026020016040519081016040528092919081815260200182805461058090611033565b80156105cd5780601f106105a2576101008083540402835291602001916105cd565b820191906000526020600020905b8154815290600101906020018083116105b057829003601f168201915b505050505081526020016002820180546105e690611033565b80601f016020809104026020016040519081016040528092919081815260200182805461061290611033565b801561065f5780601f106106345761010080835404028352916020019161065f565b820191906000526020600020905b81548152906001019060200180831161064257829003601f168201915b5050505050815260200160038201805461067890611033565b80601f01602080910402602001604051908101604052809291908181526020018280546106a490611033565b80156106f15780601f106106c6576101008083540402835291602001916106f1565b820191906000526020600020905b8154815290600101906020018083116106d457829003601f168201915b5050505050815250509050919050565b60008060009054906101000a900473ffffffffffffffffffffffffffffffffffffffff16905090565b600060028260405161073c9190610fed565b908152602001604051809103902060009054906101000a900460ff169050919050565b60028260405161076f9190610fed565b908152602001604051809103902060009054906101000a900460ff1661079457600080fd5b61079c610a12565b81600001518160000181905250816020015181602001819052508160400151816040018190525081606001518160600181905250806001846040516107e19190610fed565b90815260200160405180910390206000820151816000019081610804919061121a565b50602082015181600101908161081a919061121a565b506040820151816002019081610830919061121a565b506060820151816003019081610846919061121a565b50905050505050565b610857610946565b73ffffffffffffffffffffffffffffffffffffffff16610875610701565b73ffffffffffffffffffffffffffffffffffffffff16146108cb576040517f08c379a00000000000000000000000000000000000000000000000000000000081526004016108c290611349565b60405180910390fd5b600073ffffffffffffffffffffffffffffffffffffffff168173ffffffffffffffffffffffffffffffffffffffff160361093a576040517f08c379a0000000000000000000000000000000000000000000000000000000008152600401610931906113db565b60405180910390fd5b6109438161094e565b50565b600033905090565b60008060009054906101000a900473ffffffffffffffffffffffffffffffffffffffff169050816000806101000a81548173ffffffffffffffffffffffffffffffffffffffff021916908373ffffffffffffffffffffffffffffffffffffffff1602179055508173ffffffffffffffffffffffffffffffffffffffff168173ffffffffffffffffffffffffffffffffffffffff167f8be0079c531659141344cd1fd0a4f28419497f9722a3daafe3b4186f6b6457e060405160405180910390a35050565b6040518060800160405280606081526020016060815260200160608152602001606081525090565b508054610a4690611033565b6000825580601f10610a585750610a77565b601f016020900490600052602060002090810190610a769190610a7a565b5b50565b5b80821115610a93576000816000905550600101610a7b565b5090565b6000604051905090565b600080fd5b600080fd5b600080fd5b600080fd5b6000601f19601f8301169050919050565b7f4e487b7100000000000000000000000000000000000000000000000000000000600052604160045260246000fd5b610afe82610ab5565b810181811067ffffffffffffffff82111715610b1d57610b1c610ac6565b5b80604052505050565b6000610b30610a97565b9050610b3c8282610af5565b919050565b600067ffffffffffffffff821115610b5c57610b5b610ac6565b5b610b6582610ab5565b9050602081019050919050565b82818337600083830152505050565b6000610b94610b8f84610b41565b610b26565b905082815260208101848484011115610bb057610baf610ab0565b5b610bbb848285610b72565b509392505050565b600082601f830112610bd857610bd7610aab565b5b8135610be8848260208601610b81565b91505092915050565b600080fd5b600080fd5b600060808284031215610c1157610c10610bf1565b5b610c1b6080610b26565b9050600082013567ffffffffffffffff811115610c3b57610c3a610bf6565b5b610c4784828501610bc3565b600083015250602082013567ffffffffffffffff811115610c6b57610c6a610bf6565b5b610c7784828501610bc3565b602083015250604082013567ffffffffffffffff811115610c9b57610c9a610bf6565b5b610ca784828501610bc3565b604083015250606082013567ffffffffffffffff811115610ccb57610cca610bf6565b5b610cd784828501610bc3565b60608301525092915050565b60008060408385031215610cfa57610cf9610aa1565b5b600083013567ffffffffffffffff811115610d1857610d17610aa6565b5b610d2485828601610bc3565b925050602083013567ffffffffffffffff811115610d4557610d44610aa6565b5b610d5185828601610bfb565b9150509250929050565b600060208284031215610d7157610d70610aa1565b5b600082013567ffffffffffffffff811115610d8f57610d8e610aa6565b5b610d9b84828501610bc3565b91505092915050565b600081519050919050565b600082825260208201905092915050565b60005b83811015610dde578082015181840152602081019050610dc3565b83811115610ded576000848401525b50505050565b6000610dfe82610da4565b610e088185610daf565b9350610e18818560208601610dc0565b610e2181610ab5565b840191505092915050565b60006080830160008301518482036000860152610e498282610df3565b91505060208301518482036020860152610e638282610df3565b91505060408301518482036040860152610e7d8282610df3565b91505060608301518482036060860152610e978282610df3565b9150508091505092915050565b60006020820190508181036000830152610ebe8184610e2c565b905092915050565b600073ffffffffffffffffffffffffffffffffffffffff82169050919050565b6000610ef182610ec6565b9050919050565b610f0181610ee6565b82525050565b6000602082019050610f1c6000830184610ef8565b92915050565b60008115159050919050565b610f3781610f22565b82525050565b6000602082019050610f526000830184610f2e565b92915050565b610f6181610ee6565b8114610f6c57600080fd5b50565b600081359050610f7e81610f58565b92915050565b600060208284031215610f9a57610f99610aa1565b5b6000610fa884828501610f6f565b91505092915050565b600081905092915050565b6000610fc782610da4565b610fd18185610fb1565b9350610fe1818560208601610dc0565b80840191505092915050565b6000610ff98284610fbc565b915081905092915050565b7f4e487b7100000000000000000000000000000000000000000000000000000000600052602260045260246000fd5b6000600282049050600182168061104b57607f821691505b60208210810361105e5761105d611004565b5b50919050565b60008190508160005260206000209050919050565b60006020601f8301049050919050565b600082821b905092915050565b6000600883026110c67fffffffffffffffffffffffffffffffffffffffffffffffffffffffffffffffff82611089565b6110d08683611089565b95508019841693508086168417925050509392505050565b6000819050919050565b6000819050919050565b600061111761111261110d846110e8565b6110f2565b6110e8565b9050919050565b6000819050919050565b611131836110fc565b61114561113d8261111e565b848454611096565b825550505050565b600090565b61115a61114d565b611165818484611128565b505050565b5b818110156111895761117e600082611152565b60018101905061116b565b5050565b601f8211156111ce5761119f81611064565b6111a884611079565b810160208510156111b7578190505b6111cb6111c385611079565b83018261116a565b50505b505050565b600082821c905092915050565b60006111f1600019846008026111d3565b1980831691505092915050565b600061120a83836111e0565b9150826002028217905092915050565b61122382610da4565b67ffffffffffffffff81111561123c5761123b610ac6565b5b6112468254611033565b61125182828561118d565b600060209050601f8311600181146112845760008415611272578287015190505b61127c85826111fe565b8655506112e4565b601f19841661129286611064565b60005b828110156112ba57848901518255600182019150602085019450602081019050611295565b868310156112d757848901516112d3601f8916826111e0565b8355505b6001600288020188555050505b505050505050565b600082825260208201905092915050565b7f4f776e61626c653a2063616c6c6572206973206e6f7420746865206f776e6572600082015250565b60006113336020836112ec565b915061133e826112fd565b602082019050919050565b6000602082019050818103600083015261136281611326565b9050919050565b7f4f776e61626c653a206e6577206f776e657220697320746865207a65726f206160008201527f6464726573730000000000000000000000000000000000000000000000000000602082015250565b60006113c56026836112ec565b91506113d082611369565b604082019050919050565b600060208201905081810360008301526113f4816113b8565b905091905056fea26469706673582212202712223abdd07e1b346bd52bd287bb6fb93f4aa3a88bdee5681dd33b332e6c4d64736f6c634300080f0033",
  "immutableReferences": {},
  "source": "// SPDX-License-Identifier: MIT\npragma solidity ^0.8.15;\n\nimport './IDID.sol';\nimport '../node_modules/openzeppelin-solidity/contracts/access/Ownable.sol';\n\ncontract DID is IDID, Ownable { \n\n    // identifier => UserInfo\n    mapping(string => UserInfo) private user;\n\n    // identifier => true/false\n    mapping(string => bool) private isRegisteredUser;\n\n    function registerUser(string memory _identifier, UserInfo memory _userData) public override {\n\n        require(!isRegisteredUser[_identifier]);\n        \n        UserInfo memory userInfo;\n\n        userInfo.name = _userData.name;\n        userInfo.birth = _userData.birth;\n        userInfo.gender = _userData.gender;\n        userInfo.email = _userData.email;\n\n        user[_identifier] = userInfo;\n        isRegisteredUser[_identifier] = true;\n    }\n\n    function withdrawUser(string memory _identifier) public override {\n        require(isRegisteredUser[_identifier]);\n\n        delete user[_identifier];\n        isRegisteredUser[_identifier] = false;\n    }\n\n    function updateUser(string memory _identifier, UserInfo memory _userData) public override {\n        require(isRegisteredUser[_identifier]);\n\n        UserInfo memory userInfo;\n\n        userInfo.name = _userData.name;\n        userInfo.birth = _userData.birth;\n        userInfo.gender = _userData.gender;\n        userInfo.email = _userData.email;\n\n        user[_identifier] = userInfo;\n    }\n\n    function isRegistered(string memory _identifier) public view override returns (bool) {\n        return isRegisteredUser[_identifier];\n    }\n\n    function getUserInfo(string memory _identifier) public view override onlyOwner returns (UserInfo memory) {\n        return user[_identifier];\n    }\n}",
  "sourcePath": "/Users/bitkunst/Desktop/workspace/did/smartContract/contracts/DID.sol",
  "compiler": {
    "name": "solc",
    "version": "0.8.15+commit.e14f2714.Emscripten.clang"
  },
  "schemaVersion": "3.4.8",
  "updatedAt": "2022-08-10T05:59:47.304Z",
  "networkType": "ethereum",
  "devdoc": {
    "kind": "dev",
    "methods": {
      "owner()": {
        "details": "Returns the address of the current owner."
      },
      "renounceOwnership()": {
        "details": "Leaves the contract without owner. It will not be possible to call `onlyOwner` functions anymore. Can only be called by the current owner. NOTE: Renouncing ownership will leave the contract without an owner, thereby removing any functionality that is only available to the owner."
      },
      "transferOwnership(address)": {
        "details": "Transfers ownership of the contract to a new account (`newOwner`). Can only be called by the current owner."
      }
    },
    "version": 1
  },
  "userdoc": {
    "kind": "user",
    "methods": {},
    "version": 1
  }
}